{
	"contracts/FlameBorn Token.sol": {
		"FlamebornToken": {
			"abi": [
				{
					"inputs": [
						{
							"internalType": "address",
							"name": "multisigWallet",
							"type": "address"
						}
					],
					"stateMutability": "nonpayable",
					"type": "constructor"
				},
				{
					"anonymous": false,
					"inputs": [
						{
							"indexed": true,
							"internalType": "address",
							"name": "owner",
							"type": "address"
						},
						{
							"indexed": true,
							"internalType": "address",
							"name": "spender",
							"type": "address"
						},
						{
							"indexed": false,
							"internalType": "uint256",
							"name": "value",
							"type": "uint256"
						}
					],
					"name": "Approval",
					"type": "event"
				},
				{
					"anonymous": false,
					"inputs": [
						{
							"indexed": true,
							"internalType": "bytes32",
							"name": "role",
							"type": "bytes32"
						},
						{
							"indexed": true,
							"internalType": "bytes32",
							"name": "previousAdminRole",
							"type": "bytes32"
						},
						{
							"indexed": true,
							"internalType": "bytes32",
							"name": "newAdminRole",
							"type": "bytes32"
						}
					],
					"name": "RoleAdminChanged",
					"type": "event"
				},
				{
					"anonymous": false,
					"inputs": [
						{
							"indexed": true,
							"internalType": "bytes32",
							"name": "role",
							"type": "bytes32"
						},
						{
							"indexed": true,
							"internalType": "address",
							"name": "account",
							"type": "address"
						},
						{
							"indexed": true,
							"internalType": "address",
							"name": "sender",
							"type": "address"
						}
					],
					"name": "RoleGranted",
					"type": "event"
				},
				{
					"anonymous": false,
					"inputs": [
						{
							"indexed": true,
							"internalType": "bytes32",
							"name": "role",
							"type": "bytes32"
						},
						{
							"indexed": true,
							"internalType": "address",
							"name": "account",
							"type": "address"
						},
						{
							"indexed": true,
							"internalType": "address",
							"name": "sender",
							"type": "address"
						}
					],
					"name": "RoleRevoked",
					"type": "event"
				},
				{
					"anonymous": false,
					"inputs": [
						{
							"indexed": true,
							"internalType": "address",
							"name": "from",
							"type": "address"
						},
						{
							"indexed": true,
							"internalType": "address",
							"name": "to",
							"type": "address"
						},
						{
							"indexed": false,
							"internalType": "uint256",
							"name": "value",
							"type": "uint256"
						}
					],
					"name": "Transfer",
					"type": "event"
				},
				{
					"inputs": [],
					"name": "DEFAULT_ADMIN_ROLE",
					"outputs": [
						{
							"internalType": "bytes32",
							"name": "",
							"type": "bytes32"
						}
					],
					"stateMutability": "view",
					"type": "function"
				},
				{
					"inputs": [],
					"name": "MULTISIG_ROLE",
					"outputs": [
						{
							"internalType": "bytes32",
							"name": "",
							"type": "bytes32"
						}
					],
					"stateMutability": "view",
					"type": "function"
				},
				{
					"inputs": [
						{
							"internalType": "address",
							"name": "owner",
							"type": "address"
						},
						{
							"internalType": "address",
							"name": "spender",
							"type": "address"
						}
					],
					"name": "allowance",
					"outputs": [
						{
							"internalType": "uint256",
							"name": "",
							"type": "uint256"
						}
					],
					"stateMutability": "view",
					"type": "function"
				},
				{
					"inputs": [
						{
							"internalType": "address",
							"name": "spender",
							"type": "address"
						},
						{
							"internalType": "uint256",
							"name": "amount",
							"type": "uint256"
						}
					],
					"name": "approve",
					"outputs": [
						{
							"internalType": "bool",
							"name": "",
							"type": "bool"
						}
					],
					"stateMutability": "nonpayable",
					"type": "function"
				},
				{
					"inputs": [
						{
							"internalType": "address",
							"name": "account",
							"type": "address"
						}
					],
					"name": "balanceOf",
					"outputs": [
						{
							"internalType": "uint256",
							"name": "",
							"type": "uint256"
						}
					],
					"stateMutability": "view",
					"type": "function"
				},
				{
					"inputs": [
						{
							"internalType": "address",
							"name": "from",
							"type": "address"
						},
						{
							"internalType": "uint256",
							"name": "amount",
							"type": "uint256"
						}
					],
					"name": "burn",
					"outputs": [],
					"stateMutability": "nonpayable",
					"type": "function"
				},
				{
					"inputs": [],
					"name": "decimals",
					"outputs": [
						{
							"internalType": "uint8",
							"name": "",
							"type": "uint8"
						}
					],
					"stateMutability": "view",
					"type": "function"
				},
				{
					"inputs": [
						{
							"internalType": "address",
							"name": "spender",
							"type": "address"
						},
						{
							"internalType": "uint256",
							"name": "subtractedValue",
							"type": "uint256"
						}
					],
					"name": "decreaseAllowance",
					"outputs": [
						{
							"internalType": "bool",
							"name": "",
							"type": "bool"
						}
					],
					"stateMutability": "nonpayable",
					"type": "function"
				},
				{
					"inputs": [
						{
							"internalType": "bytes32",
							"name": "role",
							"type": "bytes32"
						}
					],
					"name": "getRoleAdmin",
					"outputs": [
						{
							"internalType": "bytes32",
							"name": "",
							"type": "bytes32"
						}
					],
					"stateMutability": "view",
					"type": "function"
				},
				{
					"inputs": [
						{
							"internalType": "bytes32",
							"name": "role",
							"type": "bytes32"
						},
						{
							"internalType": "address",
							"name": "account",
							"type": "address"
						}
					],
					"name": "grantRole",
					"outputs": [],
					"stateMutability": "nonpayable",
					"type": "function"
				},
				{
					"inputs": [
						{
							"internalType": "bytes32",
							"name": "role",
							"type": "bytes32"
						},
						{
							"internalType": "address",
							"name": "account",
							"type": "address"
						}
					],
					"name": "hasRole",
					"outputs": [
						{
							"internalType": "bool",
							"name": "",
							"type": "bool"
						}
					],
					"stateMutability": "view",
					"type": "function"
				},
				{
					"inputs": [
						{
							"internalType": "address",
							"name": "spender",
							"type": "address"
						},
						{
							"internalType": "uint256",
							"name": "addedValue",
							"type": "uint256"
						}
					],
					"name": "increaseAllowance",
					"outputs": [
						{
							"internalType": "bool",
							"name": "",
							"type": "bool"
						}
					],
					"stateMutability": "nonpayable",
					"type": "function"
				},
				{
					"inputs": [],
					"name": "name",
					"outputs": [
						{
							"internalType": "string",
							"name": "",
							"type": "string"
						}
					],
					"stateMutability": "view",
					"type": "function"
				},
				{
					"inputs": [
						{
							"internalType": "bytes32",
							"name": "role",
							"type": "bytes32"
						},
						{
							"internalType": "address",
							"name": "account",
							"type": "address"
						}
					],
					"name": "renounceRole",
					"outputs": [],
					"stateMutability": "nonpayable",
					"type": "function"
				},
				{
					"inputs": [
						{
							"internalType": "bytes32",
							"name": "role",
							"type": "bytes32"
						},
						{
							"internalType": "address",
							"name": "account",
							"type": "address"
						}
					],
					"name": "revokeRole",
					"outputs": [],
					"stateMutability": "nonpayable",
					"type": "function"
				},
				{
					"inputs": [
						{
							"internalType": "bytes4",
							"name": "interfaceId",
							"type": "bytes4"
						}
					],
					"name": "supportsInterface",
					"outputs": [
						{
							"internalType": "bool",
							"name": "",
							"type": "bool"
						}
					],
					"stateMutability": "view",
					"type": "function"
				},
				{
					"inputs": [],
					"name": "symbol",
					"outputs": [
						{
							"internalType": "string",
							"name": "",
							"type": "string"
						}
					],
					"stateMutability": "view",
					"type": "function"
				},
				{
					"inputs": [],
					"name": "totalSupply",
					"outputs": [
						{
							"internalType": "uint256",
							"name": "",
							"type": "uint256"
						}
					],
					"stateMutability": "view",
					"type": "function"
				},
				{
					"inputs": [
						{
							"internalType": "address",
							"name": "to",
							"type": "address"
						},
						{
							"internalType": "uint256",
							"name": "amount",
							"type": "uint256"
						}
					],
					"name": "transfer",
					"outputs": [
						{
							"internalType": "bool",
							"name": "",
							"type": "bool"
						}
					],
					"stateMutability": "nonpayable",
					"type": "function"
				},
				{
					"inputs": [
						{
							"internalType": "address",
							"name": "from",
							"type": "address"
						},
						{
							"internalType": "address",
							"name": "to",
							"type": "address"
						},
						{
							"internalType": "uint256",
							"name": "amount",
							"type": "uint256"
						}
					],
					"name": "transferFrom",
					"outputs": [
						{
							"internalType": "bool",
							"name": "",
							"type": "bool"
						}
					],
					"stateMutability": "nonpayable",
					"type": "function"
				}
			],
			"devdoc": {
				"events": {
					"Approval(address,address,uint256)": {
						"details": "Emitted when the allowance of a `spender` for an `owner` is set by a call to {approve}. `value` is the new allowance."
					},
					"RoleAdminChanged(bytes32,bytes32,bytes32)": {
						"details": "Emitted when `newAdminRole` is set as ``role``'s admin role, replacing `previousAdminRole` `DEFAULT_ADMIN_ROLE` is the starting admin for all roles, despite {RoleAdminChanged} not being emitted signaling this. _Available since v3.1._"
					},
					"RoleGranted(bytes32,address,address)": {
						"details": "Emitted when `account` is granted `role`. `sender` is the account that originated the contract call, an admin role bearer except when using {AccessControl-_setupRole}."
					},
					"RoleRevoked(bytes32,address,address)": {
						"details": "Emitted when `account` is revoked `role`. `sender` is the account that originated the contract call:   - if using `revokeRole`, it is the admin role bearer   - if using `renounceRole`, it is the role bearer (i.e. `account`)"
					},
					"Transfer(address,address,uint256)": {
						"details": "Emitted when `value` tokens are moved from one account (`from`) to another (`to`). Note that `value` may be zero."
					}
				},
				"kind": "dev",
				"methods": {
					"allowance(address,address)": {
						"details": "See {IERC20-allowance}."
					},
					"approve(address,uint256)": {
						"details": "See {IERC20-approve}. NOTE: If `amount` is the maximum `uint256`, the allowance is not updated on `transferFrom`. This is semantically equivalent to an infinite approval. Requirements: - `spender` cannot be the zero address."
					},
					"balanceOf(address)": {
						"details": "See {IERC20-balanceOf}."
					},
					"decimals()": {
						"details": "Returns the number of decimals used to get its user representation. For example, if `decimals` equals `2`, a balance of `505` tokens should be displayed to a user as `5.05` (`505 / 10 ** 2`). Tokens usually opt for a value of 18, imitating the relationship between Ether and Wei. This is the default value returned by this function, unless it's overridden. NOTE: This information is only used for _display_ purposes: it in no way affects any of the arithmetic of the contract, including {IERC20-balanceOf} and {IERC20-transfer}."
					},
					"decreaseAllowance(address,uint256)": {
						"details": "Atomically decreases the allowance granted to `spender` by the caller. This is an alternative to {approve} that can be used as a mitigation for problems described in {IERC20-approve}. Emits an {Approval} event indicating the updated allowance. Requirements: - `spender` cannot be the zero address. - `spender` must have allowance for the caller of at least `subtractedValue`."
					},
					"getRoleAdmin(bytes32)": {
						"details": "Returns the admin role that controls `role`. See {grantRole} and {revokeRole}. To change a role's admin, use {_setRoleAdmin}."
					},
					"grantRole(bytes32,address)": {
						"details": "Grants `role` to `account`. If `account` had not been already granted `role`, emits a {RoleGranted} event. Requirements: - the caller must have ``role``'s admin role. May emit a {RoleGranted} event."
					},
					"hasRole(bytes32,address)": {
						"details": "Returns `true` if `account` has been granted `role`."
					},
					"increaseAllowance(address,uint256)": {
						"details": "Atomically increases the allowance granted to `spender` by the caller. This is an alternative to {approve} that can be used as a mitigation for problems described in {IERC20-approve}. Emits an {Approval} event indicating the updated allowance. Requirements: - `spender` cannot be the zero address."
					},
					"name()": {
						"details": "Returns the name of the token."
					},
					"renounceRole(bytes32,address)": {
						"details": "Revokes `role` from the calling account. Roles are often managed via {grantRole} and {revokeRole}: this function's purpose is to provide a mechanism for accounts to lose their privileges if they are compromised (such as when a trusted device is misplaced). If the calling account had been revoked `role`, emits a {RoleRevoked} event. Requirements: - the caller must be `account`. May emit a {RoleRevoked} event."
					},
					"revokeRole(bytes32,address)": {
						"details": "Revokes `role` from `account`. If `account` had been granted `role`, emits a {RoleRevoked} event. Requirements: - the caller must have ``role``'s admin role. May emit a {RoleRevoked} event."
					},
					"supportsInterface(bytes4)": {
						"details": "See {IERC165-supportsInterface}."
					},
					"symbol()": {
						"details": "Returns the symbol of the token, usually a shorter version of the name."
					},
					"totalSupply()": {
						"details": "See {IERC20-totalSupply}."
					},
					"transfer(address,uint256)": {
						"details": "See {IERC20-transfer}. Requirements: - `to` cannot be the zero address. - the caller must have a balance of at least `amount`."
					},
					"transferFrom(address,address,uint256)": {
						"details": "See {IERC20-transferFrom}. Emits an {Approval} event indicating the updated allowance. This is not required by the EIP. See the note at the beginning of {ERC20}. NOTE: Does not update the allowance if the current allowance is the maximum `uint256`. Requirements: - `from` and `to` cannot be the zero address. - `from` must have a balance of at least `amount`. - the caller must have allowance for ``from``'s tokens of at least `amount`."
					}
				},
				"version": 1
			},
			"evm": {
				"assembly": "    /* \"contracts/FlameBorn Token.sol\":186:1064  contract FlamebornToken is ERC20, AccessControl {... */\n  mstore(0x40, 0x80)\n    /* \"contracts/FlameBorn Token.sol\":352:711  constructor(address multisigWallet) ERC20(\"Flameborn\", \"FLB\") {... */\n  callvalue\n  dup1\n  iszero\n  tag_1\n  jumpi\n  0x00\n  dup1\n  revert\ntag_1:\n  pop\n  mload(0x40)\n  sub(codesize, bytecodeSize)\n  dup1\n  bytecodeSize\n  dup4\n  codecopy\n  dup2\n  add\n  0x40\n  dup2\n  swap1\n  mstore\n  tag_2\n  swap2\n  tag_3\n  jump\t// in\ntag_2:\n    /* \"@openzeppelin/contracts@4.9.3/token/ERC20/ERC20.sol\":1980:2093  constructor(string memory name_, string memory symbol_) {... */\n  mload(0x40)\n  dup1\n  0x40\n  add\n  0x40\n  mstore\n  dup1\n  0x09\n  dup2\n  mstore\n  0x20\n  add\n  shl(0xb9, 0x233630b6b2b137b937)\n  dup2\n  mstore\n  pop\n  mload(0x40)\n  dup1\n  0x40\n  add\n  0x40\n  mstore\n  dup1\n  0x03\n  dup2\n  mstore\n  0x20\n  add\n  shl(0xe9, 0x232621)\n  dup2\n  mstore\n  pop\n    /* \"@openzeppelin/contracts@4.9.3/token/ERC20/ERC20.sol\":2054:2059  name_ */\n  dup2\n    /* \"@openzeppelin/contracts@4.9.3/token/ERC20/ERC20.sol\":2046:2051  _name */\n  0x03\n    /* \"@openzeppelin/contracts@4.9.3/token/ERC20/ERC20.sol\":2046:2059  _name = name_ */\n  swap1\n  dup2\n  tag_7\n  swap2\n  swap1\n  tag_8\n  jump\t// in\ntag_7:\n  pop\n    /* \"@openzeppelin/contracts@4.9.3/token/ERC20/ERC20.sol\":2069:2076  _symbol */\n  0x04\n    /* \"@openzeppelin/contracts@4.9.3/token/ERC20/ERC20.sol\":2069:2086  _symbol = symbol_ */\n  tag_9\n    /* \"@openzeppelin/contracts@4.9.3/token/ERC20/ERC20.sol\":2079:2086  symbol_ */\n  dup3\n    /* \"@openzeppelin/contracts@4.9.3/token/ERC20/ERC20.sol\":2069:2076  _symbol */\n  dup3\n    /* \"@openzeppelin/contracts@4.9.3/token/ERC20/ERC20.sol\":2069:2086  _symbol = symbol_ */\n  tag_8\n  jump\t// in\ntag_9:\n  pop\n  pop\n  pop\n  sub(shl(0xa0, 0x01), 0x01)\n    /* \"contracts/FlameBorn Token.sol\":432:460  multisigWallet != address(0) */\n  dup2\n  and\n    /* \"contracts/FlameBorn Token.sol\":424:489  require(multisigWallet != address(0), \"Invalid multisig address\") */\n  tag_11\n  jumpi\n  mload(0x40)\n  shl(0xe5, 0x461bcd)\n  dup2\n  mstore\n    /* \"#utility.yul\":3198:3200   */\n  0x20\n    /* \"contracts/FlameBorn Token.sol\":424:489  require(multisigWallet != address(0), \"Invalid multisig address\") */\n  0x04\n  dup3\n  add\n    /* \"#utility.yul\":3180:3201   */\n  mstore\n    /* \"#utility.yul\":3237:3239   */\n  0x18\n    /* \"#utility.yul\":3217:3235   */\n  0x24\n  dup3\n  add\n    /* \"#utility.yul\":3210:3240   */\n  mstore\n    /* \"#utility.yul\":3276:3302   */\n  0x496e76616c6964206d756c746973696720616464726573730000000000000000\n    /* \"#utility.yul\":3256:3274   */\n  0x44\n  dup3\n  add\n    /* \"#utility.yul\":3249:3303   */\n  mstore\n    /* \"#utility.yul\":3320:3338   */\n  0x64\n  add\n    /* \"contracts/FlameBorn Token.sol\":424:489  require(multisigWallet != address(0), \"Invalid multisig address\") */\ntag_12:\n  mload(0x40)\n  dup1\n  swap2\n  sub\n  swap1\n  revert\ntag_11:\n    /* \"contracts/FlameBorn Token.sol\":508:554  _grantRole(DEFAULT_ADMIN_ROLE, multisigWallet) */\n  tag_14\n    /* \"@openzeppelin/contracts@4.9.3/access/AccessControl.sol\":2198:2202  0x00 */\n  0x00\n    /* \"contracts/FlameBorn Token.sol\":539:553  multisigWallet */\n  dup3\n    /* \"contracts/FlameBorn Token.sol\":508:518  _grantRole */\n  tag_15\n    /* \"contracts/FlameBorn Token.sol\":508:554  _grantRole(DEFAULT_ADMIN_ROLE, multisigWallet) */\n  jump\t// in\ntag_14:\n    /* \"contracts/FlameBorn Token.sol\":564:605  _grantRole(MULTISIG_ROLE, multisigWallet) */\n  tag_16\n    /* \"contracts/FlameBorn Token.sol\":280:306  keccak256(\"MULTISIG_ROLE\") */\n  0xa5a0b70b385ff7611cd3840916bd08b10829e5bf9e6637cf79dd9a427fc0e2ab\n    /* \"contracts/FlameBorn Token.sol\":590:604  multisigWallet */\n  dup3\n    /* \"contracts/FlameBorn Token.sol\":564:574  _grantRole */\n  tag_15\n    /* \"contracts/FlameBorn Token.sol\":564:605  _grantRole(MULTISIG_ROLE, multisigWallet) */\n  jump\t// in\ntag_16:\n    /* \"contracts/FlameBorn Token.sol\":624:667  _mint(multisigWallet, 100 * 10**decimals()) */\n  tag_17\n    /* \"contracts/FlameBorn Token.sol\":630:644  multisigWallet */\n  dup2\n    /* \"contracts/FlameBorn Token.sol\":652:666  10**decimals() */\n  tag_20\n    /* \"@openzeppelin/contracts@4.9.3/token/ERC20/ERC20.sol\":3186:3188  18 */\n  0x12\n    /* \"contracts/FlameBorn Token.sol\":652:654  10 */\n  0x0a\n    /* \"contracts/FlameBorn Token.sol\":652:666  10**decimals() */\n  tag_21\n  jump\t// in\ntag_20:\n    /* \"contracts/FlameBorn Token.sol\":646:666  100 * 10**decimals() */\n  tag_22\n  swap1\n    /* \"contracts/FlameBorn Token.sol\":646:649  100 */\n  0x64\n    /* \"contracts/FlameBorn Token.sol\":646:666  100 * 10**decimals() */\n  tag_23\n  jump\t// in\ntag_22:\n    /* \"contracts/FlameBorn Token.sol\":624:629  _mint */\n  tag_24\n    /* \"contracts/FlameBorn Token.sol\":624:667  _mint(multisigWallet, 100 * 10**decimals()) */\n  jump\t// in\ntag_17:\n  pop\n    /* \"contracts/FlameBorn Token.sol\":677:697  _initialMintComplete */\n  0x06\n    /* \"contracts/FlameBorn Token.sol\":677:704  _initialMintComplete = true */\n  dup1\n  sload\n  not(0xff)\n  and\n    /* \"contracts/FlameBorn Token.sol\":700:704  true */\n  0x01\n    /* \"contracts/FlameBorn Token.sol\":677:704  _initialMintComplete = true */\n  or\n  swap1\n  sstore\n    /* \"contracts/FlameBorn Token.sol\":186:1064  contract FlamebornToken is ERC20, AccessControl {... */\n  jump(tag_63)\n    /* \"@openzeppelin/contracts@4.9.3/access/AccessControl.sol\":7587:7820  function _grantRole(bytes32 role, address account) internal virtual {... */\ntag_15:\n    /* \"@openzeppelin/contracts@4.9.3/access/AccessControl.sol\":7670:7692  hasRole(role, account) */\n  tag_27\n    /* \"@openzeppelin/contracts@4.9.3/access/AccessControl.sol\":7678:7682  role */\n  dup3\n    /* \"@openzeppelin/contracts@4.9.3/access/AccessControl.sol\":7684:7691  account */\n  dup3\n    /* \"@openzeppelin/contracts@4.9.3/access/AccessControl.sol\":7670:7677  hasRole */\n  tag_28\n    /* \"@openzeppelin/contracts@4.9.3/access/AccessControl.sol\":7670:7692  hasRole(role, account) */\n  jump\t// in\ntag_27:\n    /* \"@openzeppelin/contracts@4.9.3/access/AccessControl.sol\":7665:7814  if (!hasRole(role, account)) {... */\n  tag_29\n  jumpi\n    /* \"@openzeppelin/contracts@4.9.3/access/AccessControl.sol\":7708:7720  _roles[role] */\n  0x00\n  dup3\n  dup2\n  mstore\n    /* \"@openzeppelin/contracts@4.9.3/access/AccessControl.sol\":7708:7714  _roles */\n  0x05\n    /* \"@openzeppelin/contracts@4.9.3/access/AccessControl.sol\":7708:7720  _roles[role] */\n  0x20\n  swap1\n  dup2\n  mstore\n  0x40\n  dup1\n  dup4\n  keccak256\n  sub(shl(0xa0, 0x01), 0x01)\n    /* \"@openzeppelin/contracts@4.9.3/access/AccessControl.sol\":7708:7737  _roles[role].members[account] */\n  dup6\n  and\n  dup5\n  mstore\n  swap1\n  swap2\n  mstore\n  swap1\n  keccak256\n    /* \"@openzeppelin/contracts@4.9.3/access/AccessControl.sol\":7708:7744  _roles[role].members[account] = true */\n  dup1\n  sload\n  not(0xff)\n  and\n    /* \"@openzeppelin/contracts@4.9.3/access/AccessControl.sol\":7740:7744  true */\n  0x01\n    /* \"@openzeppelin/contracts@4.9.3/access/AccessControl.sol\":7708:7744  _roles[role].members[account] = true */\n  or\n  swap1\n  sstore\n    /* \"@openzeppelin/contracts@4.9.3/access/AccessControl.sol\":7790:7802  _msgSender() */\n  tag_30\n    /* \"@openzeppelin/contracts@4.9.3/utils/Context.sol\":719:729  msg.sender */\n  caller\n  swap1\n    /* \"@openzeppelin/contracts@4.9.3/utils/Context.sol\":640:736  function _msgSender() internal view virtual returns (address) {... */\n  jump\n    /* \"@openzeppelin/contracts@4.9.3/access/AccessControl.sol\":7790:7802  _msgSender() */\ntag_30:\n  sub(shl(0xa0, 0x01), 0x01)\n    /* \"@openzeppelin/contracts@4.9.3/access/AccessControl.sol\":7763:7803  RoleGranted(role, account, _msgSender()) */\n  and\n    /* \"@openzeppelin/contracts@4.9.3/access/AccessControl.sol\":7781:7788  account */\n  dup2\n  sub(shl(0xa0, 0x01), 0x01)\n    /* \"@openzeppelin/contracts@4.9.3/access/AccessControl.sol\":7763:7803  RoleGranted(role, account, _msgSender()) */\n  and\n    /* \"@openzeppelin/contracts@4.9.3/access/AccessControl.sol\":7775:7779  role */\n  dup4\n    /* \"@openzeppelin/contracts@4.9.3/access/AccessControl.sol\":7763:7803  RoleGranted(role, account, _msgSender()) */\n  0x2f8788117e7eff1d82e926ec794901d17c78024a50270940304540a733656f0d\n  mload(0x40)\n  mload(0x40)\n  dup1\n  swap2\n  sub\n  swap1\n  log4\n    /* \"@openzeppelin/contracts@4.9.3/access/AccessControl.sol\":7665:7814  if (!hasRole(role, account)) {... */\ntag_29:\n    /* \"@openzeppelin/contracts@4.9.3/access/AccessControl.sol\":7587:7820  function _grantRole(bytes32 role, address account) internal virtual {... */\n  pop\n  pop\n  jump\t// out\n    /* \"contracts/FlameBorn Token.sol\":752:943  function _mint(address account, uint256 amount) internal virtual override {... */\ntag_24:\n    /* \"contracts/FlameBorn Token.sol\":845:865  _initialMintComplete */\n  and(0xff, sload(0x06))\n    /* \"contracts/FlameBorn Token.sol\":844:865  !_initialMintComplete */\n  iszero\n    /* \"contracts/FlameBorn Token.sol\":836:898  require(!_initialMintComplete, \"Minting disabled permanently\") */\n  tag_34\n  jumpi\n  mload(0x40)\n  shl(0xe5, 0x461bcd)\n  dup2\n  mstore\n    /* \"#utility.yul\":5233:5235   */\n  0x20\n    /* \"contracts/FlameBorn Token.sol\":836:898  require(!_initialMintComplete, \"Minting disabled permanently\") */\n  0x04\n  dup3\n  add\n    /* \"#utility.yul\":5215:5236   */\n  mstore\n    /* \"#utility.yul\":5272:5274   */\n  0x1c\n    /* \"#utility.yul\":5252:5270   */\n  0x24\n  dup3\n  add\n    /* \"#utility.yul\":5245:5275   */\n  mstore\n    /* \"#utility.yul\":5311:5341   */\n  0x4d696e74696e672064697361626c6564207065726d616e656e746c7900000000\n    /* \"#utility.yul\":5291:5309   */\n  0x44\n  dup3\n  add\n    /* \"#utility.yul\":5284:5342   */\n  mstore\n    /* \"#utility.yul\":5359:5377   */\n  0x64\n  add\n    /* \"contracts/FlameBorn Token.sol\":836:898  require(!_initialMintComplete, \"Minting disabled permanently\") */\n  tag_12\n    /* \"#utility.yul\":5031:5383   */\n  jump\n    /* \"contracts/FlameBorn Token.sol\":836:898  require(!_initialMintComplete, \"Minting disabled permanently\") */\ntag_34:\n    /* \"contracts/FlameBorn Token.sol\":908:936  super._mint(account, amount) */\n  tag_29\n    /* \"contracts/FlameBorn Token.sol\":920:927  account */\n  dup3\n    /* \"contracts/FlameBorn Token.sol\":929:935  amount */\n  dup3\n    /* \"contracts/FlameBorn Token.sol\":908:919  super._mint */\n  tag_38\n    /* \"contracts/FlameBorn Token.sol\":908:936  super._mint(account, amount) */\n  jump\t// in\n    /* \"@openzeppelin/contracts@4.9.3/access/AccessControl.sol\":3021:3166  function hasRole(bytes32 role, address account) public view virtual override returns (bool) {... */\ntag_28:\n    /* \"@openzeppelin/contracts@4.9.3/access/AccessControl.sol\":3107:3111  bool */\n  0x00\n    /* \"@openzeppelin/contracts@4.9.3/access/AccessControl.sol\":3130:3142  _roles[role] */\n  dup3\n  dup2\n  mstore\n    /* \"@openzeppelin/contracts@4.9.3/access/AccessControl.sol\":3130:3136  _roles */\n  0x05\n    /* \"@openzeppelin/contracts@4.9.3/access/AccessControl.sol\":3130:3142  _roles[role] */\n  0x20\n  swap1\n  dup2\n  mstore\n  0x40\n  dup1\n  dup4\n  keccak256\n  sub(shl(0xa0, 0x01), 0x01)\n    /* \"@openzeppelin/contracts@4.9.3/access/AccessControl.sol\":3130:3159  _roles[role].members[account] */\n  dup6\n  and\n  dup5\n  mstore\n  swap1\n  swap2\n  mstore\n  swap1\n  keccak256\n  sload\n  0xff\n  and\n    /* \"@openzeppelin/contracts@4.9.3/access/AccessControl.sol\":3021:3166  function hasRole(bytes32 role, address account) public view virtual override returns (bool) {... */\ntag_39:\n  swap3\n  swap2\n  pop\n  pop\n  jump\t// out\n    /* \"@openzeppelin/contracts@4.9.3/token/ERC20/ERC20.sol\":8520:9055  function _mint(address account, uint256 amount) internal virtual {... */\ntag_38:\n  sub(shl(0xa0, 0x01), 0x01)\n    /* \"@openzeppelin/contracts@4.9.3/token/ERC20/ERC20.sol\":8603:8624  account != address(0) */\n  dup3\n  and\n    /* \"@openzeppelin/contracts@4.9.3/token/ERC20/ERC20.sol\":8595:8660  require(account != address(0), \"ERC20: mint to the zero address\") */\n  tag_42\n  jumpi\n  mload(0x40)\n  shl(0xe5, 0x461bcd)\n  dup2\n  mstore\n    /* \"#utility.yul\":5590:5592   */\n  0x20\n    /* \"@openzeppelin/contracts@4.9.3/token/ERC20/ERC20.sol\":8595:8660  require(account != address(0), \"ERC20: mint to the zero address\") */\n  0x04\n  dup3\n  add\n    /* \"#utility.yul\":5572:5593   */\n  mstore\n    /* \"#utility.yul\":5629:5631   */\n  0x1f\n    /* \"#utility.yul\":5609:5627   */\n  0x24\n  dup3\n  add\n    /* \"#utility.yul\":5602:5632   */\n  mstore\n    /* \"#utility.yul\":5668:5701   */\n  0x45524332303a206d696e7420746f20746865207a65726f206164647265737300\n    /* \"#utility.yul\":5648:5666   */\n  0x44\n  dup3\n  add\n    /* \"#utility.yul\":5641:5702   */\n  mstore\n    /* \"#utility.yul\":5719:5737   */\n  0x64\n  add\n    /* \"@openzeppelin/contracts@4.9.3/token/ERC20/ERC20.sol\":8595:8660  require(account != address(0), \"ERC20: mint to the zero address\") */\n  tag_12\n    /* \"#utility.yul\":5388:5743   */\n  jump\n    /* \"@openzeppelin/contracts@4.9.3/token/ERC20/ERC20.sol\":8595:8660  require(account != address(0), \"ERC20: mint to the zero address\") */\ntag_42:\n    /* \"@openzeppelin/contracts@4.9.3/token/ERC20/ERC20.sol\":8747:8753  amount */\n  dup1\n    /* \"@openzeppelin/contracts@4.9.3/token/ERC20/ERC20.sol\":8731:8743  _totalSupply */\n  0x02\n  0x00\n    /* \"@openzeppelin/contracts@4.9.3/token/ERC20/ERC20.sol\":8731:8753  _totalSupply += amount */\n  dup3\n  dup3\n  sload\n  tag_47\n  swap2\n  swap1\n  tag_48\n  jump\t// in\ntag_47:\n  swap1\n  swap2\n  sstore\n  pop\n  pop\n  sub(shl(0xa0, 0x01), 0x01)\n    /* \"@openzeppelin/contracts@4.9.3/token/ERC20/ERC20.sol\":8899:8917  _balances[account] */\n  dup3\n  and\n    /* \"@openzeppelin/contracts@4.9.3/token/ERC20/ERC20.sol\":8899:8908  _balances */\n  0x00\n    /* \"@openzeppelin/contracts@4.9.3/token/ERC20/ERC20.sol\":8899:8917  _balances[account] */\n  dup2\n  dup2\n  mstore\n  0x20\n  dup2\n  dup2\n  mstore\n  0x40\n  dup1\n  dup4\n  keccak256\n    /* \"@openzeppelin/contracts@4.9.3/token/ERC20/ERC20.sol\":8899:8927  _balances[account] += amount */\n  dup1\n  sload\n  dup7\n  add\n  swap1\n  sstore\n    /* \"@openzeppelin/contracts@4.9.3/token/ERC20/ERC20.sol\":8952:8989  Transfer(address(0), account, amount) */\n  mload\n    /* \"#utility.yul\":6024:6049   */\n  dup5\n  dup2\n  mstore\n    /* \"@openzeppelin/contracts@4.9.3/token/ERC20/ERC20.sol\":8952:8989  Transfer(address(0), account, amount) */\n  0xddf252ad1be2c89b69c2b068fc378daa952ba7f163c4a11628f55a4df523b3ef\n  swap2\n    /* \"#utility.yul\":5997:6015   */\n  add\n    /* \"@openzeppelin/contracts@4.9.3/token/ERC20/ERC20.sol\":8952:8989  Transfer(address(0), account, amount) */\n  mload(0x40)\n  dup1\n  swap2\n  sub\n  swap1\n  log3\n    /* \"@openzeppelin/contracts@4.9.3/token/ERC20/ERC20.sol\":9000:9048  _afterTokenTransfer(address(0), account, amount) */\n  tag_29\n    /* \"@openzeppelin/contracts@4.9.3/token/ERC20/ERC20.sol\":9028:9029  0 */\n  0x00\n    /* \"@openzeppelin/contracts@4.9.3/token/ERC20/ERC20.sol\":9032:9039  account */\n  dup4\n    /* \"@openzeppelin/contracts@4.9.3/token/ERC20/ERC20.sol\":9041:9047  amount */\n  dup4\n    /* \"@openzeppelin/contracts@4.9.3/token/ERC20/ERC20.sol\":12073:12164  function _beforeTokenTransfer(address from, address to, uint256 amount) internal virtual {} */\ntag_46:\n  pop\n  pop\n  pop\n  jump\t// out\n    /* \"#utility.yul\":14:304   */\ntag_3:\n    /* \"#utility.yul\":84:90   */\n  0x00\n    /* \"#utility.yul\":137:139   */\n  0x20\n    /* \"#utility.yul\":125:134   */\n  dup3\n    /* \"#utility.yul\":116:123   */\n  dup5\n    /* \"#utility.yul\":112:135   */\n  sub\n    /* \"#utility.yul\":108:140   */\n  slt\n    /* \"#utility.yul\":105:157   */\n  iszero\n  tag_65\n  jumpi\n    /* \"#utility.yul\":153:154   */\n  0x00\n    /* \"#utility.yul\":150:151   */\n  dup1\n    /* \"#utility.yul\":143:155   */\n  revert\n    /* \"#utility.yul\":105:157   */\ntag_65:\n    /* \"#utility.yul\":179:195   */\n  dup2\n  mload\n  sub(shl(0xa0, 0x01), 0x01)\n    /* \"#utility.yul\":224:255   */\n  dup2\n  and\n    /* \"#utility.yul\":214:256   */\n  dup2\n  eq\n    /* \"#utility.yul\":204:274   */\n  tag_66\n  jumpi\n    /* \"#utility.yul\":270:271   */\n  0x00\n    /* \"#utility.yul\":267:268   */\n  dup1\n    /* \"#utility.yul\":260:272   */\n  revert\n    /* \"#utility.yul\":204:274   */\ntag_66:\n    /* \"#utility.yul\":293:298   */\n  swap4\n    /* \"#utility.yul\":14:304   */\n  swap3\n  pop\n  pop\n  pop\n  jump\t// out\n    /* \"#utility.yul\":309:436   */\ntag_55:\n    /* \"#utility.yul\":370:380   */\n  0x4e487b71\n    /* \"#utility.yul\":365:368   */\n  0xe0\n    /* \"#utility.yul\":361:381   */\n  shl\n    /* \"#utility.yul\":358:359   */\n  0x00\n    /* \"#utility.yul\":351:382   */\n  mstore\n    /* \"#utility.yul\":401:405   */\n  0x41\n    /* \"#utility.yul\":398:399   */\n  0x04\n    /* \"#utility.yul\":391:406   */\n  mstore\n    /* \"#utility.yul\":425:429   */\n  0x24\n    /* \"#utility.yul\":422:423   */\n  0x00\n    /* \"#utility.yul\":415:430   */\n  revert\n    /* \"#utility.yul\":441:821   */\ntag_56:\n    /* \"#utility.yul\":520:521   */\n  0x01\n    /* \"#utility.yul\":516:528   */\n  dup2\n  dup2\n  shr\n  swap1\n    /* \"#utility.yul\":563:575   */\n  dup3\n  and\n  dup1\n    /* \"#utility.yul\":584:645   */\n  tag_69\n  jumpi\n    /* \"#utility.yul\":638:642   */\n  0x7f\n    /* \"#utility.yul\":630:636   */\n  dup3\n    /* \"#utility.yul\":626:643   */\n  and\n    /* \"#utility.yul\":616:643   */\n  swap2\n  pop\n    /* \"#utility.yul\":584:645   */\ntag_69:\n    /* \"#utility.yul\":691:693   */\n  0x20\n    /* \"#utility.yul\":683:689   */\n  dup3\n    /* \"#utility.yul\":680:694   */\n  lt\n    /* \"#utility.yul\":660:678   */\n  dup2\n    /* \"#utility.yul\":657:695   */\n  sub\n    /* \"#utility.yul\":654:815   */\n  tag_70\n  jumpi\n    /* \"#utility.yul\":737:747   */\n  0x4e487b71\n    /* \"#utility.yul\":732:735   */\n  0xe0\n    /* \"#utility.yul\":728:748   */\n  shl\n    /* \"#utility.yul\":725:726   */\n  0x00\n    /* \"#utility.yul\":718:749   */\n  mstore\n    /* \"#utility.yul\":772:776   */\n  0x22\n    /* \"#utility.yul\":769:770   */\n  0x04\n    /* \"#utility.yul\":762:777   */\n  mstore\n    /* \"#utility.yul\":800:804   */\n  0x24\n    /* \"#utility.yul\":797:798   */\n  0x00\n    /* \"#utility.yul\":790:805   */\n  revert\n    /* \"#utility.yul\":654:815   */\ntag_70:\n  pop\n    /* \"#utility.yul\":441:821   */\n  swap2\n  swap1\n  pop\n  jump\t// out\n    /* \"#utility.yul\":952:1470   */\ntag_58:\n    /* \"#utility.yul\":1054:1056   */\n  0x1f\n    /* \"#utility.yul\":1049:1052   */\n  dup3\n    /* \"#utility.yul\":1046:1057   */\n  gt\n    /* \"#utility.yul\":1043:1464   */\n  iszero\n  tag_46\n  jumpi\n    /* \"#utility.yul\":1090:1095   */\n  dup1\n    /* \"#utility.yul\":1087:1088   */\n  0x00\n    /* \"#utility.yul\":1080:1096   */\n  mstore\n    /* \"#utility.yul\":1134:1138   */\n  0x20\n    /* \"#utility.yul\":1131:1132   */\n  0x00\n    /* \"#utility.yul\":1121:1139   */\n  keccak256\n    /* \"#utility.yul\":1204:1206   */\n  0x1f\n    /* \"#utility.yul\":1192:1202   */\n  dup5\n    /* \"#utility.yul\":1188:1207   */\n  add\n    /* \"#utility.yul\":1185:1186   */\n  0x05\n    /* \"#utility.yul\":1181:1208   */\n  shr\n    /* \"#utility.yul\":1175:1179   */\n  dup2\n    /* \"#utility.yul\":1171:1209   */\n  add\n    /* \"#utility.yul\":1240:1244   */\n  0x20\n    /* \"#utility.yul\":1228:1238   */\n  dup6\n    /* \"#utility.yul\":1225:1245   */\n  lt\n    /* \"#utility.yul\":1222:1269   */\n  iszero\n  tag_74\n  jumpi\n  pop\n    /* \"#utility.yul\":1263:1267   */\n  dup1\n    /* \"#utility.yul\":1222:1269   */\ntag_74:\n    /* \"#utility.yul\":1318:1320   */\n  0x1f\n    /* \"#utility.yul\":1313:1316   */\n  dup5\n    /* \"#utility.yul\":1309:1321   */\n  add\n    /* \"#utility.yul\":1306:1307   */\n  0x05\n    /* \"#utility.yul\":1302:1322   */\n  shr\n    /* \"#utility.yul\":1296:1300   */\n  dup3\n    /* \"#utility.yul\":1292:1323   */\n  add\n    /* \"#utility.yul\":1282:1323   */\n  swap2\n  pop\n    /* \"#utility.yul\":1373:1454   */\ntag_75:\n    /* \"#utility.yul\":1391:1393   */\n  dup2\n    /* \"#utility.yul\":1384:1389   */\n  dup2\n    /* \"#utility.yul\":1381:1394   */\n  lt\n    /* \"#utility.yul\":1373:1454   */\n  iszero\n  tag_77\n  jumpi\n    /* \"#utility.yul\":1450:1451   */\n  0x00\n    /* \"#utility.yul\":1436:1452   */\n  dup2\n  sstore\n    /* \"#utility.yul\":1417:1418   */\n  0x01\n    /* \"#utility.yul\":1406:1419   */\n  add\n    /* \"#utility.yul\":1373:1454   */\n  jump(tag_75)\ntag_77:\n    /* \"#utility.yul\":1377:1380   */\n  pop\n  pop\n    /* \"#utility.yul\":952:1470   */\n  pop\n  pop\n  pop\n  jump\t// out\n    /* \"#utility.yul\":1646:2991   */\ntag_8:\n    /* \"#utility.yul\":1766:1776   */\n  dup2\n  mload\n  sub(shl(0x40, 0x01), 0x01)\n    /* \"#utility.yul\":1788:1818   */\n  dup2\n  gt\n    /* \"#utility.yul\":1785:1841   */\n  iszero\n  tag_81\n  jumpi\n    /* \"#utility.yul\":1821:1839   */\n  tag_81\n  tag_55\n  jump\t// in\ntag_81:\n    /* \"#utility.yul\":1850:1947   */\n  tag_82\n    /* \"#utility.yul\":1940:1946   */\n  dup2\n    /* \"#utility.yul\":1900:1938   */\n  tag_83\n    /* \"#utility.yul\":1932:1936   */\n  dup5\n    /* \"#utility.yul\":1926:1937   */\n  sload\n    /* \"#utility.yul\":1900:1938   */\n  tag_56\n  jump\t// in\ntag_83:\n    /* \"#utility.yul\":1894:1898   */\n  dup5\n    /* \"#utility.yul\":1850:1947   */\n  tag_58\n  jump\t// in\ntag_82:\n    /* \"#utility.yul\":2002:2006   */\n  0x20\n  dup1\n    /* \"#utility.yul\":2059:2061   */\n  0x1f\n    /* \"#utility.yul\":2048:2062   */\n  dup4\n  gt\n    /* \"#utility.yul\":2076:2077   */\n  0x01\n    /* \"#utility.yul\":2071:2734   */\n  dup2\n  eq\n  tag_85\n  jumpi\n    /* \"#utility.yul\":2778:2779   */\n  0x00\n    /* \"#utility.yul\":2795:2801   */\n  dup5\n    /* \"#utility.yul\":2792:2881   */\n  iszero\n  tag_86\n  jumpi\n  pop\n    /* \"#utility.yul\":2847:2866   */\n  dup6\n  dup4\n  add\n    /* \"#utility.yul\":2841:2867   */\n  mload\n    /* \"#utility.yul\":2792:2881   */\ntag_86:\n  not(0x00)\n    /* \"#utility.yul\":1603:1604   */\n  0x03\n    /* \"#utility.yul\":1599:1610   */\n  dup7\n  swap1\n  shl\n    /* \"#utility.yul\":1595:1619   */\n  shr\n    /* \"#utility.yul\":1591:1620   */\n  not\n    /* \"#utility.yul\":1581:1621   */\n  and\n    /* \"#utility.yul\":1627:1628   */\n  0x01\n    /* \"#utility.yul\":1623:1634   */\n  dup6\n  swap1\n  shl\n    /* \"#utility.yul\":1578:1635   */\n  or\n    /* \"#utility.yul\":2894:2975   */\n  dup6\n  sstore\n    /* \"#utility.yul\":2041:2985   */\n  jump(tag_84)\n    /* \"#utility.yul\":2071:2734   */\ntag_85:\n    /* \"#utility.yul\":899:900   */\n  0x00\n    /* \"#utility.yul\":892:906   */\n  dup6\n  dup2\n  mstore\n    /* \"#utility.yul\":936:940   */\n  0x20\n    /* \"#utility.yul\":923:941   */\n  dup2\n  keccak256\n  not(0x1f)\n    /* \"#utility.yul\":2107:2127   */\n  dup7\n  and\n  swap2\n    /* \"#utility.yul\":2225:2461   */\ntag_89:\n    /* \"#utility.yul\":2239:2246   */\n  dup3\n    /* \"#utility.yul\":2236:2237   */\n  dup2\n    /* \"#utility.yul\":2233:2247   */\n  lt\n    /* \"#utility.yul\":2225:2461   */\n  iszero\n  tag_91\n  jumpi\n    /* \"#utility.yul\":2328:2347   */\n  dup9\n  dup7\n  add\n    /* \"#utility.yul\":2322:2348   */\n  mload\n    /* \"#utility.yul\":2307:2349   */\n  dup3\n  sstore\n    /* \"#utility.yul\":2420:2447   */\n  swap5\n  dup5\n  add\n  swap5\n    /* \"#utility.yul\":2388:2389   */\n  0x01\n    /* \"#utility.yul\":2376:2390   */\n  swap1\n  swap2\n  add\n  swap1\n    /* \"#utility.yul\":2255:2274   */\n  dup5\n  add\n    /* \"#utility.yul\":2225:2461   */\n  jump(tag_89)\ntag_91:\n    /* \"#utility.yul\":2229:2232   */\n  pop\n    /* \"#utility.yul\":2489:2495   */\n  dup6\n    /* \"#utility.yul\":2480:2487   */\n  dup3\n    /* \"#utility.yul\":2477:2496   */\n  lt\n    /* \"#utility.yul\":2474:2675   */\n  iszero\n  tag_92\n  jumpi\n    /* \"#utility.yul\":2550:2569   */\n  dup8\n  dup6\n  add\n    /* \"#utility.yul\":2544:2570   */\n  mload\n  not(0x00)\n    /* \"#utility.yul\":2633:2634   */\n  0x03\n    /* \"#utility.yul\":2629:2643   */\n  dup9\n  swap1\n  shl\n    /* \"#utility.yul\":2645:2648   */\n  0xf8\n    /* \"#utility.yul\":2625:2649   */\n  and\n    /* \"#utility.yul\":2621:2658   */\n  shr\n    /* \"#utility.yul\":2617:2659   */\n  not\n    /* \"#utility.yul\":2602:2660   */\n  and\n    /* \"#utility.yul\":2587:2661   */\n  dup2\n  sstore\n    /* \"#utility.yul\":2474:2675   */\ntag_92:\n  pop\n  pop\n    /* \"#utility.yul\":2721:2722   */\n  0x01\n    /* \"#utility.yul\":2712:2718   */\n  dup5\n    /* \"#utility.yul\":2709:2710   */\n  0x01\n    /* \"#utility.yul\":2705:2719   */\n  shl\n    /* \"#utility.yul\":2701:2723   */\n  add\n    /* \"#utility.yul\":2695:2699   */\n  dup6\n    /* \"#utility.yul\":2688:2724   */\n  sstore\n    /* \"#utility.yul\":2041:2985   */\ntag_84:\n  pop\n  pop\n  pop\n  pop\n    /* \"#utility.yul\":1646:2991   */\n  pop\n  pop\n  jump\t// out\n    /* \"#utility.yul\":3349:3476   */\ntag_60:\n    /* \"#utility.yul\":3410:3420   */\n  0x4e487b71\n    /* \"#utility.yul\":3405:3408   */\n  0xe0\n    /* \"#utility.yul\":3401:3421   */\n  shl\n    /* \"#utility.yul\":3398:3399   */\n  0x00\n    /* \"#utility.yul\":3391:3422   */\n  mstore\n    /* \"#utility.yul\":3441:3445   */\n  0x11\n    /* \"#utility.yul\":3438:3439   */\n  0x04\n    /* \"#utility.yul\":3431:3446   */\n  mstore\n    /* \"#utility.yul\":3465:3469   */\n  0x24\n    /* \"#utility.yul\":3462:3463   */\n  0x00\n    /* \"#utility.yul\":3455:3470   */\n  revert\n    /* \"#utility.yul\":3481:3897   */\ntag_61:\n    /* \"#utility.yul\":3570:3571   */\n  0x01\n    /* \"#utility.yul\":3607:3612   */\n  dup2\n    /* \"#utility.yul\":3570:3571   */\n  dup2\n    /* \"#utility.yul\":3621:3891   */\ntag_96:\n    /* \"#utility.yul\":3642:3649   */\n  dup1\n    /* \"#utility.yul\":3632:3640   */\n  dup6\n    /* \"#utility.yul\":3629:3650   */\n  gt\n    /* \"#utility.yul\":3621:3891   */\n  iszero\n  tag_98\n  jumpi\n    /* \"#utility.yul\":3701:3705   */\n  dup2\n    /* \"#utility.yul\":3697:3698   */\n  0x00\n    /* \"#utility.yul\":3693:3699   */\n  not\n    /* \"#utility.yul\":3689:3706   */\n  div\n    /* \"#utility.yul\":3683:3687   */\n  dup3\n    /* \"#utility.yul\":3680:3707   */\n  gt\n    /* \"#utility.yul\":3677:3730   */\n  iszero\n  tag_100\n  jumpi\n    /* \"#utility.yul\":3710:3728   */\n  tag_100\n  tag_60\n  jump\t// in\ntag_100:\n    /* \"#utility.yul\":3760:3767   */\n  dup1\n    /* \"#utility.yul\":3750:3758   */\n  dup6\n    /* \"#utility.yul\":3746:3768   */\n  and\n    /* \"#utility.yul\":3743:3798   */\n  iszero\n  tag_101\n  jumpi\n    /* \"#utility.yul\":3780:3796   */\n  swap2\n  dup2\n  mul\n  swap2\n    /* \"#utility.yul\":3743:3798   */\ntag_101:\n    /* \"#utility.yul\":3859:3881   */\n  swap4\n  dup5\n  shr\n  swap4\n    /* \"#utility.yul\":3819:3834   */\n  swap1\n  dup1\n  mul\n  swap1\n    /* \"#utility.yul\":3621:3891   */\n  jump(tag_96)\ntag_98:\n    /* \"#utility.yul\":3625:3628   */\n  pop\n    /* \"#utility.yul\":3481:3897   */\n  swap3\n  pop\n  swap3\n  swap1\n  pop\n  jump\t// out\n    /* \"#utility.yul\":3902:4708   */\ntag_62:\n    /* \"#utility.yul\":3951:3956   */\n  0x00\n    /* \"#utility.yul\":3981:3989   */\n  dup3\n    /* \"#utility.yul\":3971:4051   */\n  tag_103\n  jumpi\n  pop\n    /* \"#utility.yul\":4022:4023   */\n  0x01\n    /* \"#utility.yul\":4036:4041   */\n  jump(tag_39)\n    /* \"#utility.yul\":3971:4051   */\ntag_103:\n    /* \"#utility.yul\":4070:4074   */\n  dup2\n    /* \"#utility.yul\":4060:4136   */\n  tag_104\n  jumpi\n  pop\n    /* \"#utility.yul\":4107:4108   */\n  0x00\n    /* \"#utility.yul\":4121:4126   */\n  jump(tag_39)\n    /* \"#utility.yul\":4060:4136   */\ntag_104:\n    /* \"#utility.yul\":4152:4156   */\n  dup2\n    /* \"#utility.yul\":4170:4171   */\n  0x01\n    /* \"#utility.yul\":4165:4224   */\n  dup2\n  eq\n  tag_106\n  jumpi\n    /* \"#utility.yul\":4238:4239   */\n  0x02\n    /* \"#utility.yul\":4233:4363   */\n  dup2\n  eq\n  tag_107\n  jumpi\n    /* \"#utility.yul\":4145:4363   */\n  jump(tag_105)\n    /* \"#utility.yul\":4165:4224   */\ntag_106:\n    /* \"#utility.yul\":4195:4196   */\n  0x01\n    /* \"#utility.yul\":4186:4196   */\n  swap2\n  pop\n    /* \"#utility.yul\":4209:4214   */\n  pop\n  jump(tag_39)\n    /* \"#utility.yul\":4233:4363   */\ntag_107:\n    /* \"#utility.yul\":4270:4273   */\n  0xff\n    /* \"#utility.yul\":4260:4268   */\n  dup5\n    /* \"#utility.yul\":4257:4274   */\n  gt\n    /* \"#utility.yul\":4254:4297   */\n  iszero\n  tag_109\n  jumpi\n    /* \"#utility.yul\":4277:4295   */\n  tag_109\n  tag_60\n  jump\t// in\ntag_109:\n  pop\n  pop\n    /* \"#utility.yul\":4333:4334   */\n  0x01\n    /* \"#utility.yul\":4319:4335   */\n  dup3\n  shl\n    /* \"#utility.yul\":4348:4353   */\n  jump(tag_39)\n    /* \"#utility.yul\":4145:4363   */\ntag_105:\n  pop\n    /* \"#utility.yul\":4447:4449   */\n  0x20\n    /* \"#utility.yul\":4437:4445   */\n  dup4\n    /* \"#utility.yul\":4434:4450   */\n  lt\n    /* \"#utility.yul\":4428:4431   */\n  0x0133\n    /* \"#utility.yul\":4422:4426   */\n  dup4\n    /* \"#utility.yul\":4419:4432   */\n  lt\n    /* \"#utility.yul\":4415:4451   */\n  and\n    /* \"#utility.yul\":4409:4411   */\n  0x4e\n    /* \"#utility.yul\":4399:4407   */\n  dup5\n    /* \"#utility.yul\":4396:4412   */\n  lt\n    /* \"#utility.yul\":4391:4393   */\n  0x0b\n    /* \"#utility.yul\":4385:4389   */\n  dup5\n    /* \"#utility.yul\":4382:4394   */\n  lt\n    /* \"#utility.yul\":4378:4413   */\n  and\n    /* \"#utility.yul\":4375:4452   */\n  or\n    /* \"#utility.yul\":4372:4531   */\n  iszero\n  tag_110\n  jumpi\n  pop\n    /* \"#utility.yul\":4484:4503   */\n  dup2\n  dup2\n  exp\n    /* \"#utility.yul\":4516:4521   */\n  jump(tag_39)\n    /* \"#utility.yul\":4372:4531   */\ntag_110:\n    /* \"#utility.yul\":4563:4597   */\n  tag_111\n    /* \"#utility.yul\":4588:4596   */\n  dup4\n    /* \"#utility.yul\":4582:4586   */\n  dup4\n    /* \"#utility.yul\":4563:4597   */\n  tag_61\n  jump\t// in\ntag_111:\n    /* \"#utility.yul\":4633:4639   */\n  dup1\n    /* \"#utility.yul\":4629:4630   */\n  0x00\n    /* \"#utility.yul\":4625:4631   */\n  not\n    /* \"#utility.yul\":4621:4640   */\n  div\n    /* \"#utility.yul\":4612:4619   */\n  dup3\n    /* \"#utility.yul\":4609:4641   */\n  gt\n    /* \"#utility.yul\":4606:4664   */\n  iszero\n  tag_113\n  jumpi\n    /* \"#utility.yul\":4644:4662   */\n  tag_113\n  tag_60\n  jump\t// in\ntag_113:\n    /* \"#utility.yul\":4682:4702   */\n  mul\n  swap4\n    /* \"#utility.yul\":3902:4708   */\n  swap3\n  pop\n  pop\n  pop\n  jump\t// out\n    /* \"#utility.yul\":4713:4853   */\ntag_21:\n    /* \"#utility.yul\":4771:4776   */\n  0x00\n    /* \"#utility.yul\":4800:4847   */\n  tag_66\n    /* \"#utility.yul\":4841:4845   */\n  0xff\n    /* \"#utility.yul\":4831:4839   */\n  dup5\n    /* \"#utility.yul\":4827:4846   */\n  and\n    /* \"#utility.yul\":4821:4825   */\n  dup4\n    /* \"#utility.yul\":4800:4847   */\n  tag_62\n  jump\t// in\n    /* \"#utility.yul\":4858:5026   */\ntag_23:\n    /* \"#utility.yul\":4931:4940   */\n  dup1\n  dup3\n  mul\n    /* \"#utility.yul\":4962:4971   */\n  dup2\n  iszero\n    /* \"#utility.yul\":4979:4994   */\n  dup3\n  dup3\n  div\n    /* \"#utility.yul\":4973:4995   */\n  dup5\n  eq\n    /* \"#utility.yul\":4959:4996   */\n  or\n    /* \"#utility.yul\":4949:5020   */\n  tag_39\n  jumpi\n    /* \"#utility.yul\":5000:5018   */\n  tag_39\n  tag_60\n  jump\t// in\n    /* \"#utility.yul\":5748:5873   */\ntag_48:\n    /* \"#utility.yul\":5813:5822   */\n  dup1\n  dup3\n  add\n    /* \"#utility.yul\":5834:5844   */\n  dup1\n  dup3\n  gt\n    /* \"#utility.yul\":5831:5867   */\n  iszero\n  tag_39\n  jumpi\n    /* \"#utility.yul\":5847:5865   */\n  tag_39\n  tag_60\n  jump\t// in\n    /* \"#utility.yul\":5878:6055   */\ntag_63:\n    /* \"contracts/FlameBorn Token.sol\":186:1064  contract FlamebornToken is ERC20, AccessControl {... */\n  dataSize(sub_0)\n  dup1\n  dataOffset(sub_0)\n  0x00\n  codecopy\n  0x00\n  return\nstop\n\nsub_0: assembly {\n        /* \"contracts/FlameBorn Token.sol\":186:1064  contract FlamebornToken is ERC20, AccessControl {... */\n      mstore(0x40, 0x80)\n      callvalue\n      dup1\n      iszero\n      tag_1\n      jumpi\n      0x00\n      dup1\n      revert\n    tag_1:\n      pop\n      jumpi(tag_2, lt(calldatasize, 0x04))\n      shr(0xe0, calldataload(0x00))\n      dup1\n      0x70a08231\n      gt\n      tag_23\n      jumpi\n      dup1\n      0xa457c2d7\n      gt\n      tag_24\n      jumpi\n      dup1\n      0xa457c2d7\n      eq\n      tag_18\n      jumpi\n      dup1\n      0xa9059cbb\n      eq\n      tag_19\n      jumpi\n      dup1\n      0xd547741f\n      eq\n      tag_20\n      jumpi\n      dup1\n      0xdd62ed3e\n      eq\n      tag_21\n      jumpi\n      dup1\n      0xe328400c\n      eq\n      tag_22\n      jumpi\n      0x00\n      dup1\n      revert\n    tag_24:\n      dup1\n      0x70a08231\n      eq\n      tag_13\n      jumpi\n      dup1\n      0x91d14854\n      eq\n      tag_14\n      jumpi\n      dup1\n      0x95d89b41\n      eq\n      tag_15\n      jumpi\n      dup1\n      0x9dc29fac\n      eq\n      tag_16\n      jumpi\n      dup1\n      0xa217fddf\n      eq\n      tag_17\n      jumpi\n      0x00\n      dup1\n      revert\n    tag_23:\n      dup1\n      0x248a9ca3\n      gt\n      tag_25\n      jumpi\n      dup1\n      0x248a9ca3\n      eq\n      tag_8\n      jumpi\n      dup1\n      0x2f2ff15d\n      eq\n      tag_9\n      jumpi\n      dup1\n      0x313ce567\n      eq\n      tag_10\n      jumpi\n      dup1\n      0x36568abe\n      eq\n      tag_11\n      jumpi\n      dup1\n      0x39509351\n      eq\n      tag_12\n      jumpi\n      0x00\n      dup1\n      revert\n    tag_25:\n      dup1\n      0x01ffc9a7\n      eq\n      tag_3\n      jumpi\n      dup1\n      0x06fdde03\n      eq\n      tag_4\n      jumpi\n      dup1\n      0x095ea7b3\n      eq\n      tag_5\n      jumpi\n      dup1\n      0x18160ddd\n      eq\n      tag_6\n      jumpi\n      dup1\n      0x23b872dd\n      eq\n      tag_7\n      jumpi\n    tag_2:\n      0x00\n      dup1\n      revert\n        /* \"@openzeppelin/contracts@4.9.3/access/AccessControl.sol\":2732:2934  function supportsInterface(bytes4 interfaceId) public view virtual override returns (bool) {... */\n    tag_3:\n      tag_26\n      tag_27\n      calldatasize\n      0x04\n      tag_28\n      jump\t// in\n    tag_27:\n      tag_29\n      jump\t// in\n    tag_26:\n      mload(0x40)\n        /* \"#utility.yul\":470:484   */\n      swap1\n      iszero\n        /* \"#utility.yul\":463:485   */\n      iszero\n        /* \"#utility.yul\":445:486   */\n      dup2\n      mstore\n        /* \"#utility.yul\":433:435   */\n      0x20\n        /* \"#utility.yul\":418:436   */\n      add\n        /* \"@openzeppelin/contracts@4.9.3/access/AccessControl.sol\":2732:2934  function supportsInterface(bytes4 interfaceId) public view virtual override returns (bool) {... */\n    tag_30:\n      mload(0x40)\n      dup1\n      swap2\n      sub\n      swap1\n      return\n        /* \"@openzeppelin/contracts@4.9.3/token/ERC20/ERC20.sol\":2158:2256  function name() public view virtual override returns (string memory) {... */\n    tag_4:\n      tag_32\n      tag_33\n      jump\t// in\n    tag_32:\n      mload(0x40)\n      tag_30\n      swap2\n      swap1\n      tag_35\n      jump\t// in\n        /* \"@openzeppelin/contracts@4.9.3/token/ERC20/ERC20.sol\":4444:4641  function approve(address spender, uint256 amount) public virtual override returns (bool) {... */\n    tag_5:\n      tag_26\n      tag_37\n      calldatasize\n      0x04\n      tag_38\n      jump\t// in\n    tag_37:\n      tag_39\n      jump\t// in\n        /* \"@openzeppelin/contracts@4.9.3/token/ERC20/ERC20.sol\":3255:3361  function totalSupply() public view virtual override returns (uint256) {... */\n    tag_6:\n        /* \"@openzeppelin/contracts@4.9.3/token/ERC20/ERC20.sol\":3342:3354  _totalSupply */\n      sload(0x02)\n        /* \"@openzeppelin/contracts@4.9.3/token/ERC20/ERC20.sol\":3255:3361  function totalSupply() public view virtual override returns (uint256) {... */\n    tag_41:\n      mload(0x40)\n        /* \"#utility.yul\":1736:1761   */\n      swap1\n      dup2\n      mstore\n        /* \"#utility.yul\":1724:1726   */\n      0x20\n        /* \"#utility.yul\":1709:1727   */\n      add\n        /* \"@openzeppelin/contracts@4.9.3/token/ERC20/ERC20.sol\":3255:3361  function totalSupply() public view virtual override returns (uint256) {... */\n      tag_30\n        /* \"#utility.yul\":1590:1767   */\n      jump\n        /* \"@openzeppelin/contracts@4.9.3/token/ERC20/ERC20.sol\":5203:5459  function transferFrom(address from, address to, uint256 amount) public virtual override returns (bool) {... */\n    tag_7:\n      tag_26\n      tag_46\n      calldatasize\n      0x04\n      tag_47\n      jump\t// in\n    tag_46:\n      tag_48\n      jump\t// in\n        /* \"@openzeppelin/contracts@4.9.3/access/AccessControl.sol\":4504:4633  function getRoleAdmin(bytes32 role) public view virtual override returns (bytes32) {... */\n    tag_8:\n      tag_41\n      tag_51\n      calldatasize\n      0x04\n      tag_52\n      jump\t// in\n    tag_51:\n        /* \"@openzeppelin/contracts@4.9.3/access/AccessControl.sol\":4578:4585  bytes32 */\n      0x00\n        /* \"@openzeppelin/contracts@4.9.3/access/AccessControl.sol\":4604:4616  _roles[role] */\n      swap1\n      dup2\n      mstore\n        /* \"@openzeppelin/contracts@4.9.3/access/AccessControl.sol\":4604:4610  _roles */\n      0x05\n        /* \"@openzeppelin/contracts@4.9.3/access/AccessControl.sol\":4604:4616  _roles[role] */\n      0x20\n      mstore\n      0x40\n      swap1\n      keccak256\n        /* \"@openzeppelin/contracts@4.9.3/access/AccessControl.sol\":4604:4626  _roles[role].adminRole */\n      0x01\n      add\n      sload\n      swap1\n        /* \"@openzeppelin/contracts@4.9.3/access/AccessControl.sol\":4504:4633  function getRoleAdmin(bytes32 role) public view virtual override returns (bytes32) {... */\n      jump\n        /* \"@openzeppelin/contracts@4.9.3/access/AccessControl.sol\":4929:5074  function grantRole(bytes32 role, address account) public virtual override onlyRole(getRoleAdmin(role)) {... */\n    tag_9:\n      tag_56\n      tag_57\n      calldatasize\n      0x04\n      tag_58\n      jump\t// in\n    tag_57:\n      tag_59\n      jump\t// in\n    tag_56:\n      stop\n        /* \"@openzeppelin/contracts@4.9.3/token/ERC20/ERC20.sol\":3104:3195  function decimals() public view virtual override returns (uint8) {... */\n    tag_10:\n      mload(0x40)\n        /* \"@openzeppelin/contracts@4.9.3/token/ERC20/ERC20.sol\":3186:3188  18 */\n      0x12\n        /* \"#utility.yul\":2873:2909   */\n      dup2\n      mstore\n        /* \"#utility.yul\":2861:2863   */\n      0x20\n        /* \"#utility.yul\":2846:2864   */\n      add\n        /* \"@openzeppelin/contracts@4.9.3/token/ERC20/ERC20.sol\":3104:3195  function decimals() public view virtual override returns (uint8) {... */\n      tag_30\n        /* \"#utility.yul\":2731:2915   */\n      jump\n        /* \"@openzeppelin/contracts@4.9.3/access/AccessControl.sol\":6038:6252  function renounceRole(bytes32 role, address account) public virtual override {... */\n    tag_11:\n      tag_56\n      tag_65\n      calldatasize\n      0x04\n      tag_58\n      jump\t// in\n    tag_65:\n      tag_66\n      jump\t// in\n        /* \"@openzeppelin/contracts@4.9.3/token/ERC20/ERC20.sol\":5854:6088  function increaseAllowance(address spender, uint256 addedValue) public virtual returns (bool) {... */\n    tag_12:\n      tag_26\n      tag_68\n      calldatasize\n      0x04\n      tag_38\n      jump\t// in\n    tag_68:\n      tag_69\n      jump\t// in\n        /* \"@openzeppelin/contracts@4.9.3/token/ERC20/ERC20.sol\":3419:3544  function balanceOf(address account) public view virtual override returns (uint256) {... */\n    tag_13:\n      tag_41\n      tag_72\n      calldatasize\n      0x04\n      tag_73\n      jump\t// in\n    tag_72:\n      sub(shl(0xa0, 0x01), 0x01)\n        /* \"@openzeppelin/contracts@4.9.3/token/ERC20/ERC20.sol\":3519:3537  _balances[account] */\n      and\n        /* \"@openzeppelin/contracts@4.9.3/token/ERC20/ERC20.sol\":3493:3500  uint256 */\n      0x00\n        /* \"@openzeppelin/contracts@4.9.3/token/ERC20/ERC20.sol\":3519:3537  _balances[account] */\n      swap1\n      dup2\n      mstore\n      0x20\n      dup2\n      swap1\n      mstore\n      0x40\n      swap1\n      keccak256\n      sload\n      swap1\n        /* \"@openzeppelin/contracts@4.9.3/token/ERC20/ERC20.sol\":3419:3544  function balanceOf(address account) public view virtual override returns (uint256) {... */\n      jump\n        /* \"@openzeppelin/contracts@4.9.3/access/AccessControl.sol\":3021:3166  function hasRole(bytes32 role, address account) public view virtual override returns (bool) {... */\n    tag_14:\n      tag_26\n      tag_77\n      calldatasize\n      0x04\n      tag_58\n      jump\t// in\n    tag_77:\n      tag_78\n      jump\t// in\n        /* \"@openzeppelin/contracts@4.9.3/token/ERC20/ERC20.sol\":2369:2471  function symbol() public view virtual override returns (string memory) {... */\n    tag_15:\n      tag_32\n      tag_81\n      jump\t// in\n        /* \"contracts/FlameBorn Token.sol\":949:1062  function burn(address from, uint256 amount) external onlyRole(MULTISIG_ROLE) {... */\n    tag_16:\n      tag_56\n      tag_84\n      calldatasize\n      0x04\n      tag_38\n      jump\t// in\n    tag_84:\n      tag_85\n      jump\t// in\n        /* \"@openzeppelin/contracts@4.9.3/access/AccessControl.sol\":2153:2202  bytes32 public constant DEFAULT_ADMIN_ROLE = 0x00 */\n    tag_17:\n      tag_41\n        /* \"@openzeppelin/contracts@4.9.3/access/AccessControl.sol\":2198:2202  0x00 */\n      0x00\n        /* \"@openzeppelin/contracts@4.9.3/access/AccessControl.sol\":2153:2202  bytes32 public constant DEFAULT_ADMIN_ROLE = 0x00 */\n      dup2\n      jump\n        /* \"@openzeppelin/contracts@4.9.3/token/ERC20/ERC20.sol\":6575:7002  function decreaseAllowance(address spender, uint256 subtractedValue) public virtual returns (bool) {... */\n    tag_18:\n      tag_26\n      tag_90\n      calldatasize\n      0x04\n      tag_38\n      jump\t// in\n    tag_90:\n      tag_91\n      jump\t// in\n        /* \"@openzeppelin/contracts@4.9.3/token/ERC20/ERC20.sol\":3740:3929  function transfer(address to, uint256 amount) public virtual override returns (bool) {... */\n    tag_19:\n      tag_26\n      tag_94\n      calldatasize\n      0x04\n      tag_38\n      jump\t// in\n    tag_94:\n      tag_95\n      jump\t// in\n        /* \"@openzeppelin/contracts@4.9.3/access/AccessControl.sol\":5354:5501  function revokeRole(bytes32 role, address account) public virtual override onlyRole(getRoleAdmin(role)) {... */\n    tag_20:\n      tag_56\n      tag_98\n      calldatasize\n      0x04\n      tag_58\n      jump\t// in\n    tag_98:\n      tag_99\n      jump\t// in\n        /* \"@openzeppelin/contracts@4.9.3/token/ERC20/ERC20.sol\":3987:4136  function allowance(address owner, address spender) public view virtual override returns (uint256) {... */\n    tag_21:\n      tag_41\n      tag_101\n      calldatasize\n      0x04\n      tag_102\n      jump\t// in\n    tag_101:\n      tag_103\n      jump\t// in\n        /* \"contracts/FlameBorn Token.sol\":240:306  bytes32 public constant MULTISIG_ROLE = keccak256(\"MULTISIG_ROLE\") */\n    tag_22:\n      tag_41\n        /* \"contracts/FlameBorn Token.sol\":280:306  keccak256(\"MULTISIG_ROLE\") */\n      0xa5a0b70b385ff7611cd3840916bd08b10829e5bf9e6637cf79dd9a427fc0e2ab\n        /* \"contracts/FlameBorn Token.sol\":240:306  bytes32 public constant MULTISIG_ROLE = keccak256(\"MULTISIG_ROLE\") */\n      dup2\n      jump\n        /* \"@openzeppelin/contracts@4.9.3/access/AccessControl.sol\":2732:2934  function supportsInterface(bytes4 interfaceId) public view virtual override returns (bool) {... */\n    tag_29:\n        /* \"@openzeppelin/contracts@4.9.3/access/AccessControl.sol\":2817:2821  bool */\n      0x00\n      not(sub(shl(0xe0, 0x01), 0x01))\n        /* \"@openzeppelin/contracts@4.9.3/access/AccessControl.sol\":2840:2887  interfaceId == type(IAccessControl).interfaceId */\n      dup3\n      and\n      shl(0xe0, 0x7965db0b)\n      eq\n      dup1\n        /* \"@openzeppelin/contracts@4.9.3/access/AccessControl.sol\":2840:2927  interfaceId == type(IAccessControl).interfaceId || super.supportsInterface(interfaceId) */\n      tag_110\n      jumpi\n      pop\n      shl(0xe0, 0x01ffc9a7)\n      not(sub(shl(0xe0, 0x01), 0x01))\n        /* \"@openzeppelin/contracts@4.9.3/utils/introspection/ERC165.sol\":937:977  interfaceId == type(IERC165).interfaceId */\n      dup4\n      and\n      eq\n        /* \"@openzeppelin/contracts@4.9.3/access/AccessControl.sol\":2891:2927  super.supportsInterface(interfaceId) */\n    tag_110:\n        /* \"@openzeppelin/contracts@4.9.3/access/AccessControl.sol\":2833:2927  return interfaceId == type(IAccessControl).interfaceId || super.supportsInterface(interfaceId) */\n      swap3\n        /* \"@openzeppelin/contracts@4.9.3/access/AccessControl.sol\":2732:2934  function supportsInterface(bytes4 interfaceId) public view virtual override returns (bool) {... */\n      swap2\n      pop\n      pop\n      jump\t// out\n        /* \"@openzeppelin/contracts@4.9.3/token/ERC20/ERC20.sol\":2158:2256  function name() public view virtual override returns (string memory) {... */\n    tag_33:\n        /* \"@openzeppelin/contracts@4.9.3/token/ERC20/ERC20.sol\":2212:2225  string memory */\n      0x60\n        /* \"@openzeppelin/contracts@4.9.3/token/ERC20/ERC20.sol\":2244:2249  _name */\n      0x03\n        /* \"@openzeppelin/contracts@4.9.3/token/ERC20/ERC20.sol\":2237:2249  return _name */\n      dup1\n      sload\n      tag_113\n      swap1\n      tag_114\n      jump\t// in\n    tag_113:\n      dup1\n      0x1f\n      add\n      0x20\n      dup1\n      swap2\n      div\n      mul\n      0x20\n      add\n      mload(0x40)\n      swap1\n      dup2\n      add\n      0x40\n      mstore\n      dup1\n      swap3\n      swap2\n      swap1\n      dup2\n      dup2\n      mstore\n      0x20\n      add\n      dup3\n      dup1\n      sload\n      tag_115\n      swap1\n      tag_114\n      jump\t// in\n    tag_115:\n      dup1\n      iszero\n      tag_116\n      jumpi\n      dup1\n      0x1f\n      lt\n      tag_117\n      jumpi\n      0x0100\n      dup1\n      dup4\n      sload\n      div\n      mul\n      dup4\n      mstore\n      swap2\n      0x20\n      add\n      swap2\n      jump(tag_116)\n    tag_117:\n      dup3\n      add\n      swap2\n      swap1\n      0x00\n      mstore\n      keccak256(0x00, 0x20)\n      swap1\n    tag_118:\n      dup2\n      sload\n      dup2\n      mstore\n      swap1\n      0x01\n      add\n      swap1\n      0x20\n      add\n      dup1\n      dup4\n      gt\n      tag_118\n      jumpi\n      dup3\n      swap1\n      sub\n      0x1f\n      and\n      dup3\n      add\n      swap2\n    tag_116:\n      pop\n      pop\n      pop\n      pop\n      pop\n      swap1\n      pop\n        /* \"@openzeppelin/contracts@4.9.3/token/ERC20/ERC20.sol\":2158:2256  function name() public view virtual override returns (string memory) {... */\n      swap1\n      jump\t// out\n        /* \"@openzeppelin/contracts@4.9.3/token/ERC20/ERC20.sol\":4444:4641  function approve(address spender, uint256 amount) public virtual override returns (bool) {... */\n    tag_39:\n        /* \"@openzeppelin/contracts@4.9.3/token/ERC20/ERC20.sol\":4527:4531  bool */\n      0x00\n        /* \"@openzeppelin/contracts@4.9.3/utils/Context.sol\":719:729  msg.sender */\n      caller\n        /* \"@openzeppelin/contracts@4.9.3/token/ERC20/ERC20.sol\":4581:4613  _approve(owner, spender, amount) */\n      tag_122\n        /* \"@openzeppelin/contracts@4.9.3/utils/Context.sol\":719:729  msg.sender */\n      dup2\n        /* \"@openzeppelin/contracts@4.9.3/token/ERC20/ERC20.sol\":4597:4604  spender */\n      dup6\n        /* \"@openzeppelin/contracts@4.9.3/token/ERC20/ERC20.sol\":4606:4612  amount */\n      dup6\n        /* \"@openzeppelin/contracts@4.9.3/token/ERC20/ERC20.sol\":4581:4589  _approve */\n      tag_123\n        /* \"@openzeppelin/contracts@4.9.3/token/ERC20/ERC20.sol\":4581:4613  _approve(owner, spender, amount) */\n      jump\t// in\n    tag_122:\n      pop\n        /* \"@openzeppelin/contracts@4.9.3/token/ERC20/ERC20.sol\":4630:4634  true */\n      0x01\n      swap4\n        /* \"@openzeppelin/contracts@4.9.3/token/ERC20/ERC20.sol\":4444:4641  function approve(address spender, uint256 amount) public virtual override returns (bool) {... */\n      swap3\n      pop\n      pop\n      pop\n      jump\t// out\n        /* \"@openzeppelin/contracts@4.9.3/token/ERC20/ERC20.sol\":5203:5459  function transferFrom(address from, address to, uint256 amount) public virtual override returns (bool) {... */\n    tag_48:\n        /* \"@openzeppelin/contracts@4.9.3/token/ERC20/ERC20.sol\":5300:5304  bool */\n      0x00\n        /* \"@openzeppelin/contracts@4.9.3/utils/Context.sol\":719:729  msg.sender */\n      caller\n        /* \"@openzeppelin/contracts@4.9.3/token/ERC20/ERC20.sol\":5356:5394  _spendAllowance(from, spender, amount) */\n      tag_127\n        /* \"@openzeppelin/contracts@4.9.3/token/ERC20/ERC20.sol\":5372:5376  from */\n      dup6\n        /* \"@openzeppelin/contracts@4.9.3/utils/Context.sol\":719:729  msg.sender */\n      dup3\n        /* \"@openzeppelin/contracts@4.9.3/token/ERC20/ERC20.sol\":5387:5393  amount */\n      dup6\n        /* \"@openzeppelin/contracts@4.9.3/token/ERC20/ERC20.sol\":5356:5371  _spendAllowance */\n      tag_128\n        /* \"@openzeppelin/contracts@4.9.3/token/ERC20/ERC20.sol\":5356:5394  _spendAllowance(from, spender, amount) */\n      jump\t// in\n    tag_127:\n        /* \"@openzeppelin/contracts@4.9.3/token/ERC20/ERC20.sol\":5404:5431  _transfer(from, to, amount) */\n      tag_129\n        /* \"@openzeppelin/contracts@4.9.3/token/ERC20/ERC20.sol\":5414:5418  from */\n      dup6\n        /* \"@openzeppelin/contracts@4.9.3/token/ERC20/ERC20.sol\":5420:5422  to */\n      dup6\n        /* \"@openzeppelin/contracts@4.9.3/token/ERC20/ERC20.sol\":5424:5430  amount */\n      dup6\n        /* \"@openzeppelin/contracts@4.9.3/token/ERC20/ERC20.sol\":5404:5413  _transfer */\n      tag_130\n        /* \"@openzeppelin/contracts@4.9.3/token/ERC20/ERC20.sol\":5404:5431  _transfer(from, to, amount) */\n      jump\t// in\n    tag_129:\n      pop\n        /* \"@openzeppelin/contracts@4.9.3/token/ERC20/ERC20.sol\":5448:5452  true */\n      0x01\n      swap5\n        /* \"@openzeppelin/contracts@4.9.3/token/ERC20/ERC20.sol\":5203:5459  function transferFrom(address from, address to, uint256 amount) public virtual override returns (bool) {... */\n      swap4\n      pop\n      pop\n      pop\n      pop\n      jump\t// out\n        /* \"@openzeppelin/contracts@4.9.3/access/AccessControl.sol\":4929:5074  function grantRole(bytes32 role, address account) public virtual override onlyRole(getRoleAdmin(role)) {... */\n    tag_59:\n        /* \"@openzeppelin/contracts@4.9.3/access/AccessControl.sol\":4578:4585  bytes32 */\n      0x00\n        /* \"@openzeppelin/contracts@4.9.3/access/AccessControl.sol\":4604:4616  _roles[role] */\n      dup3\n      dup2\n      mstore\n        /* \"@openzeppelin/contracts@4.9.3/access/AccessControl.sol\":4604:4610  _roles */\n      0x05\n        /* \"@openzeppelin/contracts@4.9.3/access/AccessControl.sol\":4604:4616  _roles[role] */\n      0x20\n      mstore\n      0x40\n      swap1\n      keccak256\n        /* \"@openzeppelin/contracts@4.9.3/access/AccessControl.sol\":4604:4626  _roles[role].adminRole */\n      0x01\n      add\n      sload\n        /* \"@openzeppelin/contracts@4.9.3/access/AccessControl.sol\":2631:2647  _checkRole(role) */\n      tag_134\n        /* \"@openzeppelin/contracts@4.9.3/access/AccessControl.sol\":2642:2646  role */\n      dup2\n        /* \"@openzeppelin/contracts@4.9.3/access/AccessControl.sol\":2631:2641  _checkRole */\n      tag_135\n        /* \"@openzeppelin/contracts@4.9.3/access/AccessControl.sol\":2631:2647  _checkRole(role) */\n      jump\t// in\n    tag_134:\n        /* \"@openzeppelin/contracts@4.9.3/access/AccessControl.sol\":5042:5067  _grantRole(role, account) */\n      tag_137\n        /* \"@openzeppelin/contracts@4.9.3/access/AccessControl.sol\":5053:5057  role */\n      dup4\n        /* \"@openzeppelin/contracts@4.9.3/access/AccessControl.sol\":5059:5066  account */\n      dup4\n        /* \"@openzeppelin/contracts@4.9.3/access/AccessControl.sol\":5042:5052  _grantRole */\n      tag_138\n        /* \"@openzeppelin/contracts@4.9.3/access/AccessControl.sol\":5042:5067  _grantRole(role, account) */\n      jump\t// in\n    tag_137:\n        /* \"@openzeppelin/contracts@4.9.3/access/AccessControl.sol\":4929:5074  function grantRole(bytes32 role, address account) public virtual override onlyRole(getRoleAdmin(role)) {... */\n      pop\n      pop\n      pop\n      jump\t// out\n        /* \"@openzeppelin/contracts@4.9.3/access/AccessControl.sol\":6038:6252  function renounceRole(bytes32 role, address account) public virtual override {... */\n    tag_66:\n      sub(shl(0xa0, 0x01), 0x01)\n        /* \"@openzeppelin/contracts@4.9.3/access/AccessControl.sol\":6133:6156  account == _msgSender() */\n      dup2\n      and\n        /* \"@openzeppelin/contracts@4.9.3/utils/Context.sol\":719:729  msg.sender */\n      caller\n        /* \"@openzeppelin/contracts@4.9.3/access/AccessControl.sol\":6133:6156  account == _msgSender() */\n      eq\n        /* \"@openzeppelin/contracts@4.9.3/access/AccessControl.sol\":6125:6208  require(account == _msgSender(), \"AccessControl: can only renounce roles for self\") */\n      tag_142\n      jumpi\n      mload(0x40)\n      shl(0xe5, 0x461bcd)\n      dup2\n      mstore\n        /* \"#utility.yul\":3963:3965   */\n      0x20\n        /* \"@openzeppelin/contracts@4.9.3/access/AccessControl.sol\":6125:6208  require(account == _msgSender(), \"AccessControl: can only renounce roles for self\") */\n      0x04\n      dup3\n      add\n        /* \"#utility.yul\":3945:3966   */\n      mstore\n        /* \"#utility.yul\":4002:4004   */\n      0x2f\n        /* \"#utility.yul\":3982:4000   */\n      0x24\n      dup3\n      add\n        /* \"#utility.yul\":3975:4005   */\n      mstore\n        /* \"#utility.yul\":4041:4075   */\n      0x416363657373436f6e74726f6c3a2063616e206f6e6c792072656e6f756e6365\n        /* \"#utility.yul\":4021:4039   */\n      0x44\n      dup3\n      add\n        /* \"#utility.yul\":4014:4076   */\n      mstore\n      shl(0x89, 0x103937b632b9903337b91039b2b633)\n        /* \"#utility.yul\":4092:4110   */\n      0x64\n      dup3\n      add\n        /* \"#utility.yul\":4085:4130   */\n      mstore\n        /* \"#utility.yul\":4147:4166   */\n      0x84\n      add\n        /* \"@openzeppelin/contracts@4.9.3/access/AccessControl.sol\":6125:6208  require(account == _msgSender(), \"AccessControl: can only renounce roles for self\") */\n    tag_143:\n      mload(0x40)\n      dup1\n      swap2\n      sub\n      swap1\n      revert\n    tag_142:\n        /* \"@openzeppelin/contracts@4.9.3/access/AccessControl.sol\":6219:6245  _revokeRole(role, account) */\n      tag_145\n        /* \"@openzeppelin/contracts@4.9.3/access/AccessControl.sol\":6231:6235  role */\n      dup3\n        /* \"@openzeppelin/contracts@4.9.3/access/AccessControl.sol\":6237:6244  account */\n      dup3\n        /* \"@openzeppelin/contracts@4.9.3/access/AccessControl.sol\":6219:6230  _revokeRole */\n      tag_146\n        /* \"@openzeppelin/contracts@4.9.3/access/AccessControl.sol\":6219:6245  _revokeRole(role, account) */\n      jump\t// in\n    tag_145:\n        /* \"@openzeppelin/contracts@4.9.3/access/AccessControl.sol\":6038:6252  function renounceRole(bytes32 role, address account) public virtual override {... */\n      pop\n      pop\n      jump\t// out\n        /* \"@openzeppelin/contracts@4.9.3/token/ERC20/ERC20.sol\":5854:6088  function increaseAllowance(address spender, uint256 addedValue) public virtual returns (bool) {... */\n    tag_69:\n        /* \"@openzeppelin/contracts@4.9.3/token/ERC20/ERC20.sol\":5942:5946  bool */\n      0x00\n        /* \"@openzeppelin/contracts@4.9.3/utils/Context.sol\":719:729  msg.sender */\n      caller\n        /* \"@openzeppelin/contracts@4.9.3/token/ERC20/ERC20.sol\":5996:6060  _approve(owner, spender, allowance(owner, spender) + addedValue) */\n      tag_122\n        /* \"@openzeppelin/contracts@4.9.3/utils/Context.sol\":719:729  msg.sender */\n      dup2\n        /* \"@openzeppelin/contracts@4.9.3/token/ERC20/ERC20.sol\":6012:6019  spender */\n      dup6\n        /* \"@openzeppelin/contracts@4.9.3/token/ERC20/ERC20.sol\":6049:6059  addedValue */\n      dup6\n        /* \"@openzeppelin/contracts@4.9.3/token/ERC20/ERC20.sol\":6021:6046  allowance(owner, spender) */\n      tag_150\n        /* \"@openzeppelin/contracts@4.9.3/utils/Context.sol\":719:729  msg.sender */\n      dup4\n        /* \"@openzeppelin/contracts@4.9.3/token/ERC20/ERC20.sol\":6012:6019  spender */\n      dup4\n        /* \"@openzeppelin/contracts@4.9.3/token/ERC20/ERC20.sol\":6021:6030  allowance */\n      tag_103\n        /* \"@openzeppelin/contracts@4.9.3/token/ERC20/ERC20.sol\":6021:6046  allowance(owner, spender) */\n      jump\t// in\n    tag_150:\n        /* \"@openzeppelin/contracts@4.9.3/token/ERC20/ERC20.sol\":6021:6059  allowance(owner, spender) + addedValue */\n      tag_151\n      swap2\n      swap1\n      tag_152\n      jump\t// in\n    tag_151:\n        /* \"@openzeppelin/contracts@4.9.3/token/ERC20/ERC20.sol\":5996:6004  _approve */\n      tag_123\n        /* \"@openzeppelin/contracts@4.9.3/token/ERC20/ERC20.sol\":5996:6060  _approve(owner, spender, allowance(owner, spender) + addedValue) */\n      jump\t// in\n        /* \"@openzeppelin/contracts@4.9.3/access/AccessControl.sol\":3021:3166  function hasRole(bytes32 role, address account) public view virtual override returns (bool) {... */\n    tag_78:\n        /* \"@openzeppelin/contracts@4.9.3/access/AccessControl.sol\":3107:3111  bool */\n      0x00\n        /* \"@openzeppelin/contracts@4.9.3/access/AccessControl.sol\":3130:3142  _roles[role] */\n      swap2\n      dup3\n      mstore\n        /* \"@openzeppelin/contracts@4.9.3/access/AccessControl.sol\":3130:3136  _roles */\n      0x05\n        /* \"@openzeppelin/contracts@4.9.3/access/AccessControl.sol\":3130:3142  _roles[role] */\n      0x20\n      swap1\n      dup2\n      mstore\n      0x40\n      dup1\n      dup5\n      keccak256\n      sub(shl(0xa0, 0x01), 0x01)\n        /* \"@openzeppelin/contracts@4.9.3/access/AccessControl.sol\":3130:3159  _roles[role].members[account] */\n      swap4\n      swap1\n      swap4\n      and\n      dup5\n      mstore\n      swap2\n      swap1\n      mstore\n      swap1\n      keccak256\n      sload\n      0xff\n      and\n      swap1\n        /* \"@openzeppelin/contracts@4.9.3/access/AccessControl.sol\":3021:3166  function hasRole(bytes32 role, address account) public view virtual override returns (bool) {... */\n      jump\t// out\n        /* \"@openzeppelin/contracts@4.9.3/token/ERC20/ERC20.sol\":2369:2471  function symbol() public view virtual override returns (string memory) {... */\n    tag_81:\n        /* \"@openzeppelin/contracts@4.9.3/token/ERC20/ERC20.sol\":2425:2438  string memory */\n      0x60\n        /* \"@openzeppelin/contracts@4.9.3/token/ERC20/ERC20.sol\":2457:2464  _symbol */\n      0x04\n        /* \"@openzeppelin/contracts@4.9.3/token/ERC20/ERC20.sol\":2450:2464  return _symbol */\n      dup1\n      sload\n      tag_113\n      swap1\n      tag_114\n      jump\t// in\n        /* \"contracts/FlameBorn Token.sol\":949:1062  function burn(address from, uint256 amount) external onlyRole(MULTISIG_ROLE) {... */\n    tag_85:\n        /* \"contracts/FlameBorn Token.sol\":280:306  keccak256(\"MULTISIG_ROLE\") */\n      0xa5a0b70b385ff7611cd3840916bd08b10829e5bf9e6637cf79dd9a427fc0e2ab\n        /* \"@openzeppelin/contracts@4.9.3/access/AccessControl.sol\":2631:2647  _checkRole(role) */\n      tag_162\n        /* \"@openzeppelin/contracts@4.9.3/access/AccessControl.sol\":2642:2646  role */\n      dup2\n        /* \"@openzeppelin/contracts@4.9.3/access/AccessControl.sol\":2631:2641  _checkRole */\n      tag_135\n        /* \"@openzeppelin/contracts@4.9.3/access/AccessControl.sol\":2631:2647  _checkRole(role) */\n      jump\t// in\n    tag_162:\n        /* \"contracts/FlameBorn Token.sol\":1036:1055  _burn(from, amount) */\n      tag_137\n        /* \"contracts/FlameBorn Token.sol\":1042:1046  from */\n      dup4\n        /* \"contracts/FlameBorn Token.sol\":1048:1054  amount */\n      dup4\n        /* \"contracts/FlameBorn Token.sol\":1036:1041  _burn */\n      tag_165\n        /* \"contracts/FlameBorn Token.sol\":1036:1055  _burn(from, amount) */\n      jump\t// in\n        /* \"@openzeppelin/contracts@4.9.3/token/ERC20/ERC20.sol\":6575:7002  function decreaseAllowance(address spender, uint256 subtractedValue) public virtual returns (bool) {... */\n    tag_91:\n        /* \"@openzeppelin/contracts@4.9.3/token/ERC20/ERC20.sol\":6668:6672  bool */\n      0x00\n        /* \"@openzeppelin/contracts@4.9.3/utils/Context.sol\":719:729  msg.sender */\n      caller\n        /* \"@openzeppelin/contracts@4.9.3/token/ERC20/ERC20.sol\":6668:6672  bool */\n      dup2\n        /* \"@openzeppelin/contracts@4.9.3/token/ERC20/ERC20.sol\":6749:6774  allowance(owner, spender) */\n      tag_168\n        /* \"@openzeppelin/contracts@4.9.3/utils/Context.sol\":719:729  msg.sender */\n      dup3\n        /* \"@openzeppelin/contracts@4.9.3/token/ERC20/ERC20.sol\":6766:6773  spender */\n      dup7\n        /* \"@openzeppelin/contracts@4.9.3/token/ERC20/ERC20.sol\":6749:6758  allowance */\n      tag_103\n        /* \"@openzeppelin/contracts@4.9.3/token/ERC20/ERC20.sol\":6749:6774  allowance(owner, spender) */\n      jump\t// in\n    tag_168:\n        /* \"@openzeppelin/contracts@4.9.3/token/ERC20/ERC20.sol\":6722:6774  uint256 currentAllowance = allowance(owner, spender) */\n      swap1\n      pop\n        /* \"@openzeppelin/contracts@4.9.3/token/ERC20/ERC20.sol\":6812:6827  subtractedValue */\n      dup4\n        /* \"@openzeppelin/contracts@4.9.3/token/ERC20/ERC20.sol\":6792:6808  currentAllowance */\n      dup2\n        /* \"@openzeppelin/contracts@4.9.3/token/ERC20/ERC20.sol\":6792:6827  currentAllowance >= subtractedValue */\n      lt\n      iszero\n        /* \"@openzeppelin/contracts@4.9.3/token/ERC20/ERC20.sol\":6784:6869  require(currentAllowance >= subtractedValue, \"ERC20: decreased allowance below zero\") */\n      tag_169\n      jumpi\n      mload(0x40)\n      shl(0xe5, 0x461bcd)\n      dup2\n      mstore\n        /* \"#utility.yul\":4641:4643   */\n      0x20\n        /* \"@openzeppelin/contracts@4.9.3/token/ERC20/ERC20.sol\":6784:6869  require(currentAllowance >= subtractedValue, \"ERC20: decreased allowance below zero\") */\n      0x04\n      dup3\n      add\n        /* \"#utility.yul\":4623:4644   */\n      mstore\n        /* \"#utility.yul\":4680:4682   */\n      0x25\n        /* \"#utility.yul\":4660:4678   */\n      0x24\n      dup3\n      add\n        /* \"#utility.yul\":4653:4683   */\n      mstore\n        /* \"#utility.yul\":4719:4753   */\n      0x45524332303a2064656372656173656420616c6c6f77616e63652062656c6f77\n        /* \"#utility.yul\":4699:4717   */\n      0x44\n      dup3\n      add\n        /* \"#utility.yul\":4692:4754   */\n      mstore\n      shl(0xd8, 0x207a65726f)\n        /* \"#utility.yul\":4770:4788   */\n      0x64\n      dup3\n      add\n        /* \"#utility.yul\":4763:4798   */\n      mstore\n        /* \"#utility.yul\":4815:4834   */\n      0x84\n      add\n        /* \"@openzeppelin/contracts@4.9.3/token/ERC20/ERC20.sol\":6784:6869  require(currentAllowance >= subtractedValue, \"ERC20: decreased allowance below zero\") */\n      tag_143\n        /* \"#utility.yul\":4439:4840   */\n      jump\n        /* \"@openzeppelin/contracts@4.9.3/token/ERC20/ERC20.sol\":6784:6869  require(currentAllowance >= subtractedValue, \"ERC20: decreased allowance below zero\") */\n    tag_169:\n        /* \"@openzeppelin/contracts@4.9.3/token/ERC20/ERC20.sol\":6903:6963  _approve(owner, spender, currentAllowance - subtractedValue) */\n      tag_129\n        /* \"@openzeppelin/contracts@4.9.3/token/ERC20/ERC20.sol\":6912:6917  owner */\n      dup3\n        /* \"@openzeppelin/contracts@4.9.3/token/ERC20/ERC20.sol\":6919:6926  spender */\n      dup7\n        /* \"@openzeppelin/contracts@4.9.3/token/ERC20/ERC20.sol\":6947:6962  subtractedValue */\n      dup7\n        /* \"@openzeppelin/contracts@4.9.3/token/ERC20/ERC20.sol\":6928:6944  currentAllowance */\n      dup5\n        /* \"@openzeppelin/contracts@4.9.3/token/ERC20/ERC20.sol\":6928:6962  currentAllowance - subtractedValue */\n      sub\n        /* \"@openzeppelin/contracts@4.9.3/token/ERC20/ERC20.sol\":6903:6911  _approve */\n      tag_123\n        /* \"@openzeppelin/contracts@4.9.3/token/ERC20/ERC20.sol\":6903:6963  _approve(owner, spender, currentAllowance - subtractedValue) */\n      jump\t// in\n        /* \"@openzeppelin/contracts@4.9.3/token/ERC20/ERC20.sol\":3740:3929  function transfer(address to, uint256 amount) public virtual override returns (bool) {... */\n    tag_95:\n        /* \"@openzeppelin/contracts@4.9.3/token/ERC20/ERC20.sol\":3819:3823  bool */\n      0x00\n        /* \"@openzeppelin/contracts@4.9.3/utils/Context.sol\":719:729  msg.sender */\n      caller\n        /* \"@openzeppelin/contracts@4.9.3/token/ERC20/ERC20.sol\":3873:3901  _transfer(owner, to, amount) */\n      tag_122\n        /* \"@openzeppelin/contracts@4.9.3/utils/Context.sol\":719:729  msg.sender */\n      dup2\n        /* \"@openzeppelin/contracts@4.9.3/token/ERC20/ERC20.sol\":3890:3892  to */\n      dup6\n        /* \"@openzeppelin/contracts@4.9.3/token/ERC20/ERC20.sol\":3894:3900  amount */\n      dup6\n        /* \"@openzeppelin/contracts@4.9.3/token/ERC20/ERC20.sol\":3873:3882  _transfer */\n      tag_130\n        /* \"@openzeppelin/contracts@4.9.3/token/ERC20/ERC20.sol\":3873:3901  _transfer(owner, to, amount) */\n      jump\t// in\n        /* \"@openzeppelin/contracts@4.9.3/access/AccessControl.sol\":5354:5501  function revokeRole(bytes32 role, address account) public virtual override onlyRole(getRoleAdmin(role)) {... */\n    tag_99:\n        /* \"@openzeppelin/contracts@4.9.3/access/AccessControl.sol\":4578:4585  bytes32 */\n      0x00\n        /* \"@openzeppelin/contracts@4.9.3/access/AccessControl.sol\":4604:4616  _roles[role] */\n      dup3\n      dup2\n      mstore\n        /* \"@openzeppelin/contracts@4.9.3/access/AccessControl.sol\":4604:4610  _roles */\n      0x05\n        /* \"@openzeppelin/contracts@4.9.3/access/AccessControl.sol\":4604:4616  _roles[role] */\n      0x20\n      mstore\n      0x40\n      swap1\n      keccak256\n        /* \"@openzeppelin/contracts@4.9.3/access/AccessControl.sol\":4604:4626  _roles[role].adminRole */\n      0x01\n      add\n      sload\n        /* \"@openzeppelin/contracts@4.9.3/access/AccessControl.sol\":2631:2647  _checkRole(role) */\n      tag_178\n        /* \"@openzeppelin/contracts@4.9.3/access/AccessControl.sol\":2642:2646  role */\n      dup2\n        /* \"@openzeppelin/contracts@4.9.3/access/AccessControl.sol\":2631:2641  _checkRole */\n      tag_135\n        /* \"@openzeppelin/contracts@4.9.3/access/AccessControl.sol\":2631:2647  _checkRole(role) */\n      jump\t// in\n    tag_178:\n        /* \"@openzeppelin/contracts@4.9.3/access/AccessControl.sol\":5468:5494  _revokeRole(role, account) */\n      tag_137\n        /* \"@openzeppelin/contracts@4.9.3/access/AccessControl.sol\":5480:5484  role */\n      dup4\n        /* \"@openzeppelin/contracts@4.9.3/access/AccessControl.sol\":5486:5493  account */\n      dup4\n        /* \"@openzeppelin/contracts@4.9.3/access/AccessControl.sol\":5468:5479  _revokeRole */\n      tag_146\n        /* \"@openzeppelin/contracts@4.9.3/access/AccessControl.sol\":5468:5494  _revokeRole(role, account) */\n      jump\t// in\n        /* \"@openzeppelin/contracts@4.9.3/token/ERC20/ERC20.sol\":3987:4136  function allowance(address owner, address spender) public view virtual override returns (uint256) {... */\n    tag_103:\n      sub(shl(0xa0, 0x01), 0x01)\n        /* \"@openzeppelin/contracts@4.9.3/token/ERC20/ERC20.sol\":4102:4120  _allowances[owner] */\n      swap2\n      dup3\n      and\n        /* \"@openzeppelin/contracts@4.9.3/token/ERC20/ERC20.sol\":4076:4083  uint256 */\n      0x00\n        /* \"@openzeppelin/contracts@4.9.3/token/ERC20/ERC20.sol\":4102:4120  _allowances[owner] */\n      swap1\n      dup2\n      mstore\n        /* \"@openzeppelin/contracts@4.9.3/token/ERC20/ERC20.sol\":4102:4113  _allowances */\n      0x01\n        /* \"@openzeppelin/contracts@4.9.3/token/ERC20/ERC20.sol\":4102:4120  _allowances[owner] */\n      0x20\n      swap1\n      dup2\n      mstore\n      0x40\n      dup1\n      dup4\n      keccak256\n        /* \"@openzeppelin/contracts@4.9.3/token/ERC20/ERC20.sol\":4102:4129  _allowances[owner][spender] */\n      swap4\n      swap1\n      swap5\n      and\n      dup3\n      mstore\n      swap2\n      swap1\n      swap2\n      mstore\n      keccak256\n      sload\n      swap1\n        /* \"@openzeppelin/contracts@4.9.3/token/ERC20/ERC20.sol\":3987:4136  function allowance(address owner, address spender) public view virtual override returns (uint256) {... */\n      jump\t// out\n        /* \"@openzeppelin/contracts@4.9.3/token/ERC20/ERC20.sol\":10457:10797  function _approve(address owner, address spender, uint256 amount) internal virtual {... */\n    tag_123:\n      sub(shl(0xa0, 0x01), 0x01)\n        /* \"@openzeppelin/contracts@4.9.3/token/ERC20/ERC20.sol\":10558:10577  owner != address(0) */\n      dup4\n      and\n        /* \"@openzeppelin/contracts@4.9.3/token/ERC20/ERC20.sol\":10550:10618  require(owner != address(0), \"ERC20: approve from the zero address\") */\n      tag_185\n      jumpi\n      mload(0x40)\n      shl(0xe5, 0x461bcd)\n      dup2\n      mstore\n        /* \"#utility.yul\":5047:5049   */\n      0x20\n        /* \"@openzeppelin/contracts@4.9.3/token/ERC20/ERC20.sol\":10550:10618  require(owner != address(0), \"ERC20: approve from the zero address\") */\n      0x04\n      dup3\n      add\n        /* \"#utility.yul\":5029:5050   */\n      mstore\n        /* \"#utility.yul\":5086:5088   */\n      0x24\n        /* \"#utility.yul\":5066:5084   */\n      dup1\n      dup3\n      add\n        /* \"#utility.yul\":5059:5089   */\n      mstore\n        /* \"#utility.yul\":5125:5159   */\n      0x45524332303a20617070726f76652066726f6d20746865207a65726f20616464\n        /* \"#utility.yul\":5105:5123   */\n      0x44\n      dup3\n      add\n        /* \"#utility.yul\":5098:5160   */\n      mstore\n      shl(0xe0, 0x72657373)\n        /* \"#utility.yul\":5176:5194   */\n      0x64\n      dup3\n      add\n        /* \"#utility.yul\":5169:5203   */\n      mstore\n        /* \"#utility.yul\":5220:5239   */\n      0x84\n      add\n        /* \"@openzeppelin/contracts@4.9.3/token/ERC20/ERC20.sol\":10550:10618  require(owner != address(0), \"ERC20: approve from the zero address\") */\n      tag_143\n        /* \"#utility.yul\":4845:5245   */\n      jump\n        /* \"@openzeppelin/contracts@4.9.3/token/ERC20/ERC20.sol\":10550:10618  require(owner != address(0), \"ERC20: approve from the zero address\") */\n    tag_185:\n      sub(shl(0xa0, 0x01), 0x01)\n        /* \"@openzeppelin/contracts@4.9.3/token/ERC20/ERC20.sol\":10636:10657  spender != address(0) */\n      dup3\n      and\n        /* \"@openzeppelin/contracts@4.9.3/token/ERC20/ERC20.sol\":10628:10696  require(spender != address(0), \"ERC20: approve to the zero address\") */\n      tag_188\n      jumpi\n      mload(0x40)\n      shl(0xe5, 0x461bcd)\n      dup2\n      mstore\n        /* \"#utility.yul\":5452:5454   */\n      0x20\n        /* \"@openzeppelin/contracts@4.9.3/token/ERC20/ERC20.sol\":10628:10696  require(spender != address(0), \"ERC20: approve to the zero address\") */\n      0x04\n      dup3\n      add\n        /* \"#utility.yul\":5434:5455   */\n      mstore\n        /* \"#utility.yul\":5491:5493   */\n      0x22\n        /* \"#utility.yul\":5471:5489   */\n      0x24\n      dup3\n      add\n        /* \"#utility.yul\":5464:5494   */\n      mstore\n        /* \"#utility.yul\":5530:5564   */\n      0x45524332303a20617070726f766520746f20746865207a65726f206164647265\n        /* \"#utility.yul\":5510:5528   */\n      0x44\n      dup3\n      add\n        /* \"#utility.yul\":5503:5565   */\n      mstore\n      shl(0xf0, 0x7373)\n        /* \"#utility.yul\":5581:5599   */\n      0x64\n      dup3\n      add\n        /* \"#utility.yul\":5574:5606   */\n      mstore\n        /* \"#utility.yul\":5623:5642   */\n      0x84\n      add\n        /* \"@openzeppelin/contracts@4.9.3/token/ERC20/ERC20.sol\":10628:10696  require(spender != address(0), \"ERC20: approve to the zero address\") */\n      tag_143\n        /* \"#utility.yul\":5250:5648   */\n      jump\n        /* \"@openzeppelin/contracts@4.9.3/token/ERC20/ERC20.sol\":10628:10696  require(spender != address(0), \"ERC20: approve to the zero address\") */\n    tag_188:\n      sub(shl(0xa0, 0x01), 0x01)\n        /* \"@openzeppelin/contracts@4.9.3/token/ERC20/ERC20.sol\":10707:10725  _allowances[owner] */\n      dup4\n      dup2\n      and\n      0x00\n      dup2\n      dup2\n      mstore\n        /* \"@openzeppelin/contracts@4.9.3/token/ERC20/ERC20.sol\":10707:10718  _allowances */\n      0x01\n        /* \"@openzeppelin/contracts@4.9.3/token/ERC20/ERC20.sol\":10707:10725  _allowances[owner] */\n      0x20\n      swap1\n      dup2\n      mstore\n      0x40\n      dup1\n      dup4\n      keccak256\n        /* \"@openzeppelin/contracts@4.9.3/token/ERC20/ERC20.sol\":10707:10734  _allowances[owner][spender] */\n      swap5\n      dup8\n      and\n      dup1\n      dup5\n      mstore\n      swap5\n      dup3\n      mstore\n      swap2\n      dup3\n      swap1\n      keccak256\n        /* \"@openzeppelin/contracts@4.9.3/token/ERC20/ERC20.sol\":10707:10743  _allowances[owner][spender] = amount */\n      dup6\n      swap1\n      sstore\n        /* \"@openzeppelin/contracts@4.9.3/token/ERC20/ERC20.sol\":10758:10790  Approval(owner, spender, amount) */\n      swap1\n      mload\n        /* \"#utility.yul\":1736:1761   */\n      dup5\n      dup2\n      mstore\n        /* \"@openzeppelin/contracts@4.9.3/token/ERC20/ERC20.sol\":10758:10790  Approval(owner, spender, amount) */\n      0x8c5be1e5ebec7d5bd14f71427d1e84f3dd0314c0f7b2291e5b200ac8c7c3b925\n      swap2\n        /* \"#utility.yul\":1709:1727   */\n      add\n        /* \"@openzeppelin/contracts@4.9.3/token/ERC20/ERC20.sol\":10758:10790  Approval(owner, spender, amount) */\n      mload(0x40)\n      dup1\n      swap2\n      sub\n      swap1\n      log3\n        /* \"@openzeppelin/contracts@4.9.3/token/ERC20/ERC20.sol\":10457:10797  function _approve(address owner, address spender, uint256 amount) internal virtual {... */\n      pop\n      pop\n      pop\n      jump\t// out\n        /* \"@openzeppelin/contracts@4.9.3/token/ERC20/ERC20.sol\":11078:11489  function _spendAllowance(address owner, address spender, uint256 amount) internal virtual {... */\n    tag_128:\n        /* \"@openzeppelin/contracts@4.9.3/token/ERC20/ERC20.sol\":11178:11202  uint256 currentAllowance */\n      0x00\n        /* \"@openzeppelin/contracts@4.9.3/token/ERC20/ERC20.sol\":11205:11230  allowance(owner, spender) */\n      tag_193\n        /* \"@openzeppelin/contracts@4.9.3/token/ERC20/ERC20.sol\":11215:11220  owner */\n      dup5\n        /* \"@openzeppelin/contracts@4.9.3/token/ERC20/ERC20.sol\":11222:11229  spender */\n      dup5\n        /* \"@openzeppelin/contracts@4.9.3/token/ERC20/ERC20.sol\":11205:11214  allowance */\n      tag_103\n        /* \"@openzeppelin/contracts@4.9.3/token/ERC20/ERC20.sol\":11205:11230  allowance(owner, spender) */\n      jump\t// in\n    tag_193:\n        /* \"@openzeppelin/contracts@4.9.3/token/ERC20/ERC20.sol\":11178:11230  uint256 currentAllowance = allowance(owner, spender) */\n      swap1\n      pop\n      not(0x00)\n        /* \"@openzeppelin/contracts@4.9.3/token/ERC20/ERC20.sol\":11244:11260  currentAllowance */\n      dup2\n        /* \"@openzeppelin/contracts@4.9.3/token/ERC20/ERC20.sol\":11244:11281  currentAllowance != type(uint256).max */\n      eq\n        /* \"@openzeppelin/contracts@4.9.3/token/ERC20/ERC20.sol\":11240:11483  if (currentAllowance != type(uint256).max) {... */\n      tag_198\n      jumpi\n        /* \"@openzeppelin/contracts@4.9.3/token/ERC20/ERC20.sol\":11325:11331  amount */\n      dup2\n        /* \"@openzeppelin/contracts@4.9.3/token/ERC20/ERC20.sol\":11305:11321  currentAllowance */\n      dup2\n        /* \"@openzeppelin/contracts@4.9.3/token/ERC20/ERC20.sol\":11305:11331  currentAllowance >= amount */\n      lt\n      iszero\n        /* \"@openzeppelin/contracts@4.9.3/token/ERC20/ERC20.sol\":11297:11365  require(currentAllowance >= amount, \"ERC20: insufficient allowance\") */\n      tag_195\n      jumpi\n      mload(0x40)\n      shl(0xe5, 0x461bcd)\n      dup2\n      mstore\n        /* \"#utility.yul\":5855:5857   */\n      0x20\n        /* \"@openzeppelin/contracts@4.9.3/token/ERC20/ERC20.sol\":11297:11365  require(currentAllowance >= amount, \"ERC20: insufficient allowance\") */\n      0x04\n      dup3\n      add\n        /* \"#utility.yul\":5837:5858   */\n      mstore\n        /* \"#utility.yul\":5894:5896   */\n      0x1d\n        /* \"#utility.yul\":5874:5892   */\n      0x24\n      dup3\n      add\n        /* \"#utility.yul\":5867:5897   */\n      mstore\n        /* \"#utility.yul\":5933:5964   */\n      0x45524332303a20696e73756666696369656e7420616c6c6f77616e6365000000\n        /* \"#utility.yul\":5913:5931   */\n      0x44\n      dup3\n      add\n        /* \"#utility.yul\":5906:5965   */\n      mstore\n        /* \"#utility.yul\":5982:6000   */\n      0x64\n      add\n        /* \"@openzeppelin/contracts@4.9.3/token/ERC20/ERC20.sol\":11297:11365  require(currentAllowance >= amount, \"ERC20: insufficient allowance\") */\n      tag_143\n        /* \"#utility.yul\":5653:6006   */\n      jump\n        /* \"@openzeppelin/contracts@4.9.3/token/ERC20/ERC20.sol\":11297:11365  require(currentAllowance >= amount, \"ERC20: insufficient allowance\") */\n    tag_195:\n        /* \"@openzeppelin/contracts@4.9.3/token/ERC20/ERC20.sol\":11407:11458  _approve(owner, spender, currentAllowance - amount) */\n      tag_198\n        /* \"@openzeppelin/contracts@4.9.3/token/ERC20/ERC20.sol\":11416:11421  owner */\n      dup5\n        /* \"@openzeppelin/contracts@4.9.3/token/ERC20/ERC20.sol\":11423:11430  spender */\n      dup5\n        /* \"@openzeppelin/contracts@4.9.3/token/ERC20/ERC20.sol\":11451:11457  amount */\n      dup5\n        /* \"@openzeppelin/contracts@4.9.3/token/ERC20/ERC20.sol\":11432:11448  currentAllowance */\n      dup5\n        /* \"@openzeppelin/contracts@4.9.3/token/ERC20/ERC20.sol\":11432:11457  currentAllowance - amount */\n      sub\n        /* \"@openzeppelin/contracts@4.9.3/token/ERC20/ERC20.sol\":11407:11415  _approve */\n      tag_123\n        /* \"@openzeppelin/contracts@4.9.3/token/ERC20/ERC20.sol\":11407:11458  _approve(owner, spender, currentAllowance - amount) */\n      jump\t// in\n    tag_198:\n        /* \"@openzeppelin/contracts@4.9.3/token/ERC20/ERC20.sol\":11168:11489  {... */\n      pop\n        /* \"@openzeppelin/contracts@4.9.3/token/ERC20/ERC20.sol\":11078:11489  function _spendAllowance(address owner, address spender, uint256 amount) internal virtual {... */\n      pop\n      pop\n      pop\n      jump\t// out\n        /* \"@openzeppelin/contracts@4.9.3/token/ERC20/ERC20.sol\":7456:8244  function _transfer(address from, address to, uint256 amount) internal virtual {... */\n    tag_130:\n      sub(shl(0xa0, 0x01), 0x01)\n        /* \"@openzeppelin/contracts@4.9.3/token/ERC20/ERC20.sol\":7552:7570  from != address(0) */\n      dup4\n      and\n        /* \"@openzeppelin/contracts@4.9.3/token/ERC20/ERC20.sol\":7544:7612  require(from != address(0), \"ERC20: transfer from the zero address\") */\n      tag_200\n      jumpi\n      mload(0x40)\n      shl(0xe5, 0x461bcd)\n      dup2\n      mstore\n        /* \"#utility.yul\":6213:6215   */\n      0x20\n        /* \"@openzeppelin/contracts@4.9.3/token/ERC20/ERC20.sol\":7544:7612  require(from != address(0), \"ERC20: transfer from the zero address\") */\n      0x04\n      dup3\n      add\n        /* \"#utility.yul\":6195:6216   */\n      mstore\n        /* \"#utility.yul\":6252:6254   */\n      0x25\n        /* \"#utility.yul\":6232:6250   */\n      0x24\n      dup3\n      add\n        /* \"#utility.yul\":6225:6255   */\n      mstore\n        /* \"#utility.yul\":6291:6325   */\n      0x45524332303a207472616e736665722066726f6d20746865207a65726f206164\n        /* \"#utility.yul\":6271:6289   */\n      0x44\n      dup3\n      add\n        /* \"#utility.yul\":6264:6326   */\n      mstore\n      shl(0xd8, 0x6472657373)\n        /* \"#utility.yul\":6342:6360   */\n      0x64\n      dup3\n      add\n        /* \"#utility.yul\":6335:6370   */\n      mstore\n        /* \"#utility.yul\":6387:6406   */\n      0x84\n      add\n        /* \"@openzeppelin/contracts@4.9.3/token/ERC20/ERC20.sol\":7544:7612  require(from != address(0), \"ERC20: transfer from the zero address\") */\n      tag_143\n        /* \"#utility.yul\":6011:6412   */\n      jump\n        /* \"@openzeppelin/contracts@4.9.3/token/ERC20/ERC20.sol\":7544:7612  require(from != address(0), \"ERC20: transfer from the zero address\") */\n    tag_200:\n      sub(shl(0xa0, 0x01), 0x01)\n        /* \"@openzeppelin/contracts@4.9.3/token/ERC20/ERC20.sol\":7630:7646  to != address(0) */\n      dup3\n      and\n        /* \"@openzeppelin/contracts@4.9.3/token/ERC20/ERC20.sol\":7622:7686  require(to != address(0), \"ERC20: transfer to the zero address\") */\n      tag_203\n      jumpi\n      mload(0x40)\n      shl(0xe5, 0x461bcd)\n      dup2\n      mstore\n        /* \"#utility.yul\":6619:6621   */\n      0x20\n        /* \"@openzeppelin/contracts@4.9.3/token/ERC20/ERC20.sol\":7622:7686  require(to != address(0), \"ERC20: transfer to the zero address\") */\n      0x04\n      dup3\n      add\n        /* \"#utility.yul\":6601:6622   */\n      mstore\n        /* \"#utility.yul\":6658:6660   */\n      0x23\n        /* \"#utility.yul\":6638:6656   */\n      0x24\n      dup3\n      add\n        /* \"#utility.yul\":6631:6661   */\n      mstore\n        /* \"#utility.yul\":6697:6731   */\n      0x45524332303a207472616e7366657220746f20746865207a65726f2061646472\n        /* \"#utility.yul\":6677:6695   */\n      0x44\n      dup3\n      add\n        /* \"#utility.yul\":6670:6732   */\n      mstore\n      shl(0xe8, 0x657373)\n        /* \"#utility.yul\":6748:6766   */\n      0x64\n      dup3\n      add\n        /* \"#utility.yul\":6741:6774   */\n      mstore\n        /* \"#utility.yul\":6791:6810   */\n      0x84\n      add\n        /* \"@openzeppelin/contracts@4.9.3/token/ERC20/ERC20.sol\":7622:7686  require(to != address(0), \"ERC20: transfer to the zero address\") */\n      tag_143\n        /* \"#utility.yul\":6417:6816   */\n      jump\n        /* \"@openzeppelin/contracts@4.9.3/token/ERC20/ERC20.sol\":7622:7686  require(to != address(0), \"ERC20: transfer to the zero address\") */\n    tag_203:\n      sub(shl(0xa0, 0x01), 0x01)\n        /* \"@openzeppelin/contracts@4.9.3/token/ERC20/ERC20.sol\":7768:7783  _balances[from] */\n      dup4\n      and\n        /* \"@openzeppelin/contracts@4.9.3/token/ERC20/ERC20.sol\":7746:7765  uint256 fromBalance */\n      0x00\n        /* \"@openzeppelin/contracts@4.9.3/token/ERC20/ERC20.sol\":7768:7783  _balances[from] */\n      swap1\n      dup2\n      mstore\n      0x20\n      dup2\n      swap1\n      mstore\n      0x40\n      swap1\n      keccak256\n      sload\n        /* \"@openzeppelin/contracts@4.9.3/token/ERC20/ERC20.sol\":7801:7822  fromBalance >= amount */\n      dup2\n      dup2\n      lt\n      iszero\n        /* \"@openzeppelin/contracts@4.9.3/token/ERC20/ERC20.sol\":7793:7865  require(fromBalance >= amount, \"ERC20: transfer amount exceeds balance\") */\n      tag_208\n      jumpi\n      mload(0x40)\n      shl(0xe5, 0x461bcd)\n      dup2\n      mstore\n        /* \"#utility.yul\":7023:7025   */\n      0x20\n        /* \"@openzeppelin/contracts@4.9.3/token/ERC20/ERC20.sol\":7793:7865  require(fromBalance >= amount, \"ERC20: transfer amount exceeds balance\") */\n      0x04\n      dup3\n      add\n        /* \"#utility.yul\":7005:7026   */\n      mstore\n        /* \"#utility.yul\":7062:7064   */\n      0x26\n        /* \"#utility.yul\":7042:7060   */\n      0x24\n      dup3\n      add\n        /* \"#utility.yul\":7035:7065   */\n      mstore\n        /* \"#utility.yul\":7101:7135   */\n      0x45524332303a207472616e7366657220616d6f756e7420657863656564732062\n        /* \"#utility.yul\":7081:7099   */\n      0x44\n      dup3\n      add\n        /* \"#utility.yul\":7074:7136   */\n      mstore\n      shl(0xd0, 0x616c616e6365)\n        /* \"#utility.yul\":7152:7170   */\n      0x64\n      dup3\n      add\n        /* \"#utility.yul\":7145:7181   */\n      mstore\n        /* \"#utility.yul\":7198:7217   */\n      0x84\n      add\n        /* \"@openzeppelin/contracts@4.9.3/token/ERC20/ERC20.sol\":7793:7865  require(fromBalance >= amount, \"ERC20: transfer amount exceeds balance\") */\n      tag_143\n        /* \"#utility.yul\":6821:7223   */\n      jump\n        /* \"@openzeppelin/contracts@4.9.3/token/ERC20/ERC20.sol\":7793:7865  require(fromBalance >= amount, \"ERC20: transfer amount exceeds balance\") */\n    tag_208:\n      sub(shl(0xa0, 0x01), 0x01)\n        /* \"@openzeppelin/contracts@4.9.3/token/ERC20/ERC20.sol\":7899:7914  _balances[from] */\n      dup5\n      dup2\n      and\n        /* \"@openzeppelin/contracts@4.9.3/token/ERC20/ERC20.sol\":7899:7908  _balances */\n      0x00\n        /* \"@openzeppelin/contracts@4.9.3/token/ERC20/ERC20.sol\":7899:7914  _balances[from] */\n      dup2\n      dup2\n      mstore\n      0x20\n      dup2\n      dup2\n      mstore\n      0x40\n      dup1\n      dup4\n      keccak256\n        /* \"@openzeppelin/contracts@4.9.3/token/ERC20/ERC20.sol\":7917:7937  fromBalance - amount */\n      dup8\n      dup8\n      sub\n        /* \"@openzeppelin/contracts@4.9.3/token/ERC20/ERC20.sol\":7899:7937  _balances[from] = fromBalance - amount */\n      swap1\n      sstore\n        /* \"@openzeppelin/contracts@4.9.3/token/ERC20/ERC20.sol\":8114:8127  _balances[to] */\n      swap4\n      dup8\n      and\n      dup1\n      dup4\n      mstore\n      swap2\n      dup5\n      swap1\n      keccak256\n        /* \"@openzeppelin/contracts@4.9.3/token/ERC20/ERC20.sol\":8114:8137  _balances[to] += amount */\n      dup1\n      sload\n      dup8\n      add\n      swap1\n      sstore\n        /* \"@openzeppelin/contracts@4.9.3/token/ERC20/ERC20.sol\":8163:8189  Transfer(from, to, amount) */\n      swap3\n      mload\n        /* \"#utility.yul\":1736:1761   */\n      dup6\n      dup2\n      mstore\n        /* \"@openzeppelin/contracts@4.9.3/token/ERC20/ERC20.sol\":8114:8127  _balances[to] */\n      swap1\n      swap3\n        /* \"@openzeppelin/contracts@4.9.3/token/ERC20/ERC20.sol\":8163:8189  Transfer(from, to, amount) */\n      0xddf252ad1be2c89b69c2b068fc378daa952ba7f163c4a11628f55a4df523b3ef\n      swap2\n        /* \"#utility.yul\":1709:1727   */\n      add\n        /* \"@openzeppelin/contracts@4.9.3/token/ERC20/ERC20.sol\":8163:8189  Transfer(from, to, amount) */\n      mload(0x40)\n      dup1\n      swap2\n      sub\n      swap1\n      log3\n        /* \"@openzeppelin/contracts@4.9.3/token/ERC20/ERC20.sol\":8200:8237  _afterTokenTransfer(from, to, amount) */\n      tag_198\n        /* \"@openzeppelin/contracts@4.9.3/access/AccessControl.sol\":4929:5074  function grantRole(bytes32 role, address account) public virtual override onlyRole(getRoleAdmin(role)) {... */\n      jump\n        /* \"@openzeppelin/contracts@4.9.3/access/AccessControl.sol\":3460:3563  function _checkRole(bytes32 role) internal view virtual {... */\n    tag_135:\n        /* \"@openzeppelin/contracts@4.9.3/access/AccessControl.sol\":3526:3556  _checkRole(role, _msgSender()) */\n      tag_215\n        /* \"@openzeppelin/contracts@4.9.3/access/AccessControl.sol\":3537:3541  role */\n      dup2\n        /* \"@openzeppelin/contracts@4.9.3/utils/Context.sol\":719:729  msg.sender */\n      caller\n        /* \"@openzeppelin/contracts@4.9.3/access/AccessControl.sol\":3526:3536  _checkRole */\n      tag_217\n        /* \"@openzeppelin/contracts@4.9.3/access/AccessControl.sol\":3526:3556  _checkRole(role, _msgSender()) */\n      jump\t// in\n    tag_215:\n        /* \"@openzeppelin/contracts@4.9.3/access/AccessControl.sol\":3460:3563  function _checkRole(bytes32 role) internal view virtual {... */\n      pop\n      jump\t// out\n        /* \"@openzeppelin/contracts@4.9.3/access/AccessControl.sol\":7587:7820  function _grantRole(bytes32 role, address account) internal virtual {... */\n    tag_138:\n        /* \"@openzeppelin/contracts@4.9.3/access/AccessControl.sol\":7670:7692  hasRole(role, account) */\n      tag_219\n        /* \"@openzeppelin/contracts@4.9.3/access/AccessControl.sol\":7678:7682  role */\n      dup3\n        /* \"@openzeppelin/contracts@4.9.3/access/AccessControl.sol\":7684:7691  account */\n      dup3\n        /* \"@openzeppelin/contracts@4.9.3/access/AccessControl.sol\":7670:7677  hasRole */\n      tag_78\n        /* \"@openzeppelin/contracts@4.9.3/access/AccessControl.sol\":7670:7692  hasRole(role, account) */\n      jump\t// in\n    tag_219:\n        /* \"@openzeppelin/contracts@4.9.3/access/AccessControl.sol\":7665:7814  if (!hasRole(role, account)) {... */\n      tag_145\n      jumpi\n        /* \"@openzeppelin/contracts@4.9.3/access/AccessControl.sol\":7708:7720  _roles[role] */\n      0x00\n      dup3\n      dup2\n      mstore\n        /* \"@openzeppelin/contracts@4.9.3/access/AccessControl.sol\":7708:7714  _roles */\n      0x05\n        /* \"@openzeppelin/contracts@4.9.3/access/AccessControl.sol\":7708:7720  _roles[role] */\n      0x20\n      swap1\n      dup2\n      mstore\n      0x40\n      dup1\n      dup4\n      keccak256\n      sub(shl(0xa0, 0x01), 0x01)\n        /* \"@openzeppelin/contracts@4.9.3/access/AccessControl.sol\":7708:7737  _roles[role].members[account] */\n      dup6\n      and\n      dup5\n      mstore\n      swap1\n      swap2\n      mstore\n      swap1\n      keccak256\n        /* \"@openzeppelin/contracts@4.9.3/access/AccessControl.sol\":7708:7744  _roles[role].members[account] = true */\n      dup1\n      sload\n      not(0xff)\n      and\n        /* \"@openzeppelin/contracts@4.9.3/access/AccessControl.sol\":7740:7744  true */\n      0x01\n        /* \"@openzeppelin/contracts@4.9.3/access/AccessControl.sol\":7708:7744  _roles[role].members[account] = true */\n      or\n      swap1\n      sstore\n        /* \"@openzeppelin/contracts@4.9.3/access/AccessControl.sol\":7790:7802  _msgSender() */\n      tag_221\n        /* \"@openzeppelin/contracts@4.9.3/utils/Context.sol\":719:729  msg.sender */\n      caller\n      swap1\n        /* \"@openzeppelin/contracts@4.9.3/utils/Context.sol\":640:736  function _msgSender() internal view virtual returns (address) {... */\n      jump\n        /* \"@openzeppelin/contracts@4.9.3/access/AccessControl.sol\":7790:7802  _msgSender() */\n    tag_221:\n      sub(shl(0xa0, 0x01), 0x01)\n        /* \"@openzeppelin/contracts@4.9.3/access/AccessControl.sol\":7763:7803  RoleGranted(role, account, _msgSender()) */\n      and\n        /* \"@openzeppelin/contracts@4.9.3/access/AccessControl.sol\":7781:7788  account */\n      dup2\n      sub(shl(0xa0, 0x01), 0x01)\n        /* \"@openzeppelin/contracts@4.9.3/access/AccessControl.sol\":7763:7803  RoleGranted(role, account, _msgSender()) */\n      and\n        /* \"@openzeppelin/contracts@4.9.3/access/AccessControl.sol\":7775:7779  role */\n      dup4\n        /* \"@openzeppelin/contracts@4.9.3/access/AccessControl.sol\":7763:7803  RoleGranted(role, account, _msgSender()) */\n      0x2f8788117e7eff1d82e926ec794901d17c78024a50270940304540a733656f0d\n      mload(0x40)\n      mload(0x40)\n      dup1\n      swap2\n      sub\n      swap1\n      log4\n        /* \"@openzeppelin/contracts@4.9.3/access/AccessControl.sol\":7587:7820  function _grantRole(bytes32 role, address account) internal virtual {... */\n      pop\n      pop\n      jump\t// out\n        /* \"@openzeppelin/contracts@4.9.3/access/AccessControl.sol\":7991:8225  function _revokeRole(bytes32 role, address account) internal virtual {... */\n    tag_146:\n        /* \"@openzeppelin/contracts@4.9.3/access/AccessControl.sol\":8074:8096  hasRole(role, account) */\n      tag_223\n        /* \"@openzeppelin/contracts@4.9.3/access/AccessControl.sol\":8082:8086  role */\n      dup3\n        /* \"@openzeppelin/contracts@4.9.3/access/AccessControl.sol\":8088:8095  account */\n      dup3\n        /* \"@openzeppelin/contracts@4.9.3/access/AccessControl.sol\":8074:8081  hasRole */\n      tag_78\n        /* \"@openzeppelin/contracts@4.9.3/access/AccessControl.sol\":8074:8096  hasRole(role, account) */\n      jump\t// in\n    tag_223:\n        /* \"@openzeppelin/contracts@4.9.3/access/AccessControl.sol\":8070:8219  if (hasRole(role, account)) {... */\n      iszero\n      tag_145\n      jumpi\n        /* \"@openzeppelin/contracts@4.9.3/access/AccessControl.sol\":8144:8149  false */\n      0x00\n        /* \"@openzeppelin/contracts@4.9.3/access/AccessControl.sol\":8112:8124  _roles[role] */\n      dup3\n      dup2\n      mstore\n        /* \"@openzeppelin/contracts@4.9.3/access/AccessControl.sol\":8112:8118  _roles */\n      0x05\n        /* \"@openzeppelin/contracts@4.9.3/access/AccessControl.sol\":8112:8124  _roles[role] */\n      0x20\n      swap1\n      dup2\n      mstore\n      0x40\n      dup1\n      dup4\n      keccak256\n      sub(shl(0xa0, 0x01), 0x01)\n        /* \"@openzeppelin/contracts@4.9.3/access/AccessControl.sol\":8112:8141  _roles[role].members[account] */\n      dup6\n      and\n      dup1\n      dup6\n      mstore\n      swap3\n      mstore\n      dup1\n      dup4\n      keccak256\n        /* \"@openzeppelin/contracts@4.9.3/access/AccessControl.sol\":8112:8149  _roles[role].members[account] = false */\n      dup1\n      sload\n      not(0xff)\n      and\n      swap1\n      sstore\n        /* \"@openzeppelin/contracts@4.9.3/access/AccessControl.sol\":8168:8208  RoleRevoked(role, account, _msgSender()) */\n      mload\n        /* \"@openzeppelin/contracts@4.9.3/utils/Context.sol\":719:729  msg.sender */\n      caller\n      swap3\n        /* \"@openzeppelin/contracts@4.9.3/access/AccessControl.sol\":8112:8124  _roles[role] */\n      dup6\n      swap2\n        /* \"@openzeppelin/contracts@4.9.3/access/AccessControl.sol\":8168:8208  RoleRevoked(role, account, _msgSender()) */\n      0xf6391f5c32d9c69d2a47ea670b442974b53935d1edc7fd64eb21e047a839171b\n      swap2\n        /* \"@openzeppelin/contracts@4.9.3/access/AccessControl.sol\":8144:8149  false */\n      swap1\n        /* \"@openzeppelin/contracts@4.9.3/access/AccessControl.sol\":8168:8208  RoleRevoked(role, account, _msgSender()) */\n      log4\n        /* \"@openzeppelin/contracts@4.9.3/access/AccessControl.sol\":7991:8225  function _revokeRole(bytes32 role, address account) internal virtual {... */\n      pop\n      pop\n      jump\t// out\n        /* \"@openzeppelin/contracts@4.9.3/token/ERC20/ERC20.sol\":9375:10034  function _burn(address account, uint256 amount) internal virtual {... */\n    tag_165:\n      sub(shl(0xa0, 0x01), 0x01)\n        /* \"@openzeppelin/contracts@4.9.3/token/ERC20/ERC20.sol\":9458:9479  account != address(0) */\n      dup3\n      and\n        /* \"@openzeppelin/contracts@4.9.3/token/ERC20/ERC20.sol\":9450:9517  require(account != address(0), \"ERC20: burn from the zero address\") */\n      tag_227\n      jumpi\n      mload(0x40)\n      shl(0xe5, 0x461bcd)\n      dup2\n      mstore\n        /* \"#utility.yul\":7430:7432   */\n      0x20\n        /* \"@openzeppelin/contracts@4.9.3/token/ERC20/ERC20.sol\":9450:9517  require(account != address(0), \"ERC20: burn from the zero address\") */\n      0x04\n      dup3\n      add\n        /* \"#utility.yul\":7412:7433   */\n      mstore\n        /* \"#utility.yul\":7469:7471   */\n      0x21\n        /* \"#utility.yul\":7449:7467   */\n      0x24\n      dup3\n      add\n        /* \"#utility.yul\":7442:7472   */\n      mstore\n        /* \"#utility.yul\":7508:7542   */\n      0x45524332303a206275726e2066726f6d20746865207a65726f20616464726573\n        /* \"#utility.yul\":7488:7506   */\n      0x44\n      dup3\n      add\n        /* \"#utility.yul\":7481:7543   */\n      mstore\n      shl(0xf8, 0x73)\n        /* \"#utility.yul\":7559:7577   */\n      0x64\n      dup3\n      add\n        /* \"#utility.yul\":7552:7583   */\n      mstore\n        /* \"#utility.yul\":7600:7619   */\n      0x84\n      add\n        /* \"@openzeppelin/contracts@4.9.3/token/ERC20/ERC20.sol\":9450:9517  require(account != address(0), \"ERC20: burn from the zero address\") */\n      tag_143\n        /* \"#utility.yul\":7228:7625   */\n      jump\n        /* \"@openzeppelin/contracts@4.9.3/token/ERC20/ERC20.sol\":9450:9517  require(account != address(0), \"ERC20: burn from the zero address\") */\n    tag_227:\n      sub(shl(0xa0, 0x01), 0x01)\n        /* \"@openzeppelin/contracts@4.9.3/token/ERC20/ERC20.sol\":9613:9631  _balances[account] */\n      dup3\n      and\n        /* \"@openzeppelin/contracts@4.9.3/token/ERC20/ERC20.sol\":9588:9610  uint256 accountBalance */\n      0x00\n        /* \"@openzeppelin/contracts@4.9.3/token/ERC20/ERC20.sol\":9613:9631  _balances[account] */\n      swap1\n      dup2\n      mstore\n      0x20\n      dup2\n      swap1\n      mstore\n      0x40\n      swap1\n      keccak256\n      sload\n        /* \"@openzeppelin/contracts@4.9.3/token/ERC20/ERC20.sol\":9649:9673  accountBalance >= amount */\n      dup2\n      dup2\n      lt\n      iszero\n        /* \"@openzeppelin/contracts@4.9.3/token/ERC20/ERC20.sol\":9641:9712  require(accountBalance >= amount, \"ERC20: burn amount exceeds balance\") */\n      tag_231\n      jumpi\n      mload(0x40)\n      shl(0xe5, 0x461bcd)\n      dup2\n      mstore\n        /* \"#utility.yul\":7832:7834   */\n      0x20\n        /* \"@openzeppelin/contracts@4.9.3/token/ERC20/ERC20.sol\":9641:9712  require(accountBalance >= amount, \"ERC20: burn amount exceeds balance\") */\n      0x04\n      dup3\n      add\n        /* \"#utility.yul\":7814:7835   */\n      mstore\n        /* \"#utility.yul\":7871:7873   */\n      0x22\n        /* \"#utility.yul\":7851:7869   */\n      0x24\n      dup3\n      add\n        /* \"#utility.yul\":7844:7874   */\n      mstore\n        /* \"#utility.yul\":7910:7944   */\n      0x45524332303a206275726e20616d6f756e7420657863656564732062616c616e\n        /* \"#utility.yul\":7890:7908   */\n      0x44\n      dup3\n      add\n        /* \"#utility.yul\":7883:7945   */\n      mstore\n      shl(0xf0, 0x6365)\n        /* \"#utility.yul\":7961:7979   */\n      0x64\n      dup3\n      add\n        /* \"#utility.yul\":7954:7986   */\n      mstore\n        /* \"#utility.yul\":8003:8022   */\n      0x84\n      add\n        /* \"@openzeppelin/contracts@4.9.3/token/ERC20/ERC20.sol\":9641:9712  require(accountBalance >= amount, \"ERC20: burn amount exceeds balance\") */\n      tag_143\n        /* \"#utility.yul\":7630:8028   */\n      jump\n        /* \"@openzeppelin/contracts@4.9.3/token/ERC20/ERC20.sol\":9641:9712  require(accountBalance >= amount, \"ERC20: burn amount exceeds balance\") */\n    tag_231:\n      sub(shl(0xa0, 0x01), 0x01)\n        /* \"@openzeppelin/contracts@4.9.3/token/ERC20/ERC20.sol\":9746:9764  _balances[account] */\n      dup4\n      and\n        /* \"@openzeppelin/contracts@4.9.3/token/ERC20/ERC20.sol\":9746:9755  _balances */\n      0x00\n        /* \"@openzeppelin/contracts@4.9.3/token/ERC20/ERC20.sol\":9746:9764  _balances[account] */\n      dup2\n      dup2\n      mstore\n      0x20\n      dup2\n      dup2\n      mstore\n      0x40\n      dup1\n      dup4\n      keccak256\n        /* \"@openzeppelin/contracts@4.9.3/token/ERC20/ERC20.sol\":9767:9790  accountBalance - amount */\n      dup7\n      dup7\n      sub\n        /* \"@openzeppelin/contracts@4.9.3/token/ERC20/ERC20.sol\":9746:9790  _balances[account] = accountBalance - amount */\n      swap1\n      sstore\n        /* \"@openzeppelin/contracts@4.9.3/token/ERC20/ERC20.sol\":9883:9895  _totalSupply */\n      0x02\n        /* \"@openzeppelin/contracts@4.9.3/token/ERC20/ERC20.sol\":9883:9905  _totalSupply -= amount */\n      dup1\n      sload\n      dup8\n      swap1\n      sub\n      swap1\n      sstore\n        /* \"@openzeppelin/contracts@4.9.3/token/ERC20/ERC20.sol\":9931:9968  Transfer(account, address(0), amount) */\n      mload\n        /* \"#utility.yul\":1736:1761   */\n      dup6\n      dup2\n      mstore\n        /* \"@openzeppelin/contracts@4.9.3/token/ERC20/ERC20.sol\":9746:9755  _balances */\n      swap2\n      swap3\n        /* \"@openzeppelin/contracts@4.9.3/token/ERC20/ERC20.sol\":9746:9764  _balances[account] */\n      swap2\n        /* \"@openzeppelin/contracts@4.9.3/token/ERC20/ERC20.sol\":9931:9968  Transfer(account, address(0), amount) */\n      0xddf252ad1be2c89b69c2b068fc378daa952ba7f163c4a11628f55a4df523b3ef\n      swap2\n        /* \"#utility.yul\":1709:1727   */\n      add\n        /* \"@openzeppelin/contracts@4.9.3/token/ERC20/ERC20.sol\":9931:9968  Transfer(account, address(0), amount) */\n      mload(0x40)\n      dup1\n      swap2\n      sub\n      swap1\n      log3\n        /* \"@openzeppelin/contracts@4.9.3/access/AccessControl.sol\":4929:5074  function grantRole(bytes32 role, address account) public virtual override onlyRole(getRoleAdmin(role)) {... */\n      pop\n      pop\n      pop\n      jump\t// out\n        /* \"@openzeppelin/contracts@4.9.3/access/AccessControl.sol\":3844:4323  function _checkRole(bytes32 role, address account) internal view virtual {... */\n    tag_217:\n        /* \"@openzeppelin/contracts@4.9.3/access/AccessControl.sol\":3932:3954  hasRole(role, account) */\n      tag_239\n        /* \"@openzeppelin/contracts@4.9.3/access/AccessControl.sol\":3940:3944  role */\n      dup3\n        /* \"@openzeppelin/contracts@4.9.3/access/AccessControl.sol\":3946:3953  account */\n      dup3\n        /* \"@openzeppelin/contracts@4.9.3/access/AccessControl.sol\":3932:3939  hasRole */\n      tag_78\n        /* \"@openzeppelin/contracts@4.9.3/access/AccessControl.sol\":3932:3954  hasRole(role, account) */\n      jump\t// in\n    tag_239:\n        /* \"@openzeppelin/contracts@4.9.3/access/AccessControl.sol\":3927:4317  if (!hasRole(role, account)) {... */\n      tag_145\n      jumpi\n        /* \"@openzeppelin/contracts@4.9.3/access/AccessControl.sol\":4115:4143  Strings.toHexString(account) */\n      tag_241\n        /* \"@openzeppelin/contracts@4.9.3/access/AccessControl.sol\":4135:4142  account */\n      dup2\n        /* \"@openzeppelin/contracts@4.9.3/access/AccessControl.sol\":4115:4134  Strings.toHexString */\n      tag_242\n        /* \"@openzeppelin/contracts@4.9.3/access/AccessControl.sol\":4115:4143  Strings.toHexString(account) */\n      jump\t// in\n    tag_241:\n        /* \"@openzeppelin/contracts@4.9.3/access/AccessControl.sol\":4214:4252  Strings.toHexString(uint256(role), 32) */\n      tag_243\n        /* \"@openzeppelin/contracts@4.9.3/access/AccessControl.sol\":4242:4246  role */\n      dup4\n        /* \"@openzeppelin/contracts@4.9.3/access/AccessControl.sol\":4249:4251  32 */\n      0x20\n        /* \"@openzeppelin/contracts@4.9.3/access/AccessControl.sol\":4214:4233  Strings.toHexString */\n      tag_244\n        /* \"@openzeppelin/contracts@4.9.3/access/AccessControl.sol\":4214:4252  Strings.toHexString(uint256(role), 32) */\n      jump\t// in\n    tag_243:\n        /* \"@openzeppelin/contracts@4.9.3/access/AccessControl.sol\":4022:4274  abi.encodePacked(... */\n      add(0x20, mload(0x40))\n      tag_245\n      swap3\n      swap2\n      swap1\n      tag_246\n      jump\t// in\n    tag_245:\n      0x40\n      dup1\n      mload\n      not(0x1f)\n      dup2\n      dup5\n      sub\n      add\n      dup2\n      mstore\n      swap1\n      dup3\n      swap1\n      mstore\n      shl(0xe5, 0x461bcd)\n        /* \"@openzeppelin/contracts@4.9.3/access/AccessControl.sol\":3970:4306  revert(... */\n      dup3\n      mstore\n      tag_143\n      swap2\n      0x04\n      add\n      tag_35\n      jump\t// in\n        /* \"@openzeppelin/contracts@4.9.3/utils/Strings.sol\":2407:2556  function toHexString(address addr) internal pure returns (string memory) {... */\n    tag_242:\n        /* \"@openzeppelin/contracts@4.9.3/utils/Strings.sol\":2465:2478  string memory */\n      0x60\n        /* \"@openzeppelin/contracts@4.9.3/utils/Strings.sol\":2497:2549  toHexString(uint256(uint160(addr)), _ADDRESS_LENGTH) */\n      tag_110\n      sub(shl(0xa0, 0x01), 0x01)\n        /* \"@openzeppelin/contracts@4.9.3/utils/Strings.sol\":2509:2531  uint256(uint160(addr)) */\n      dup4\n      and\n        /* \"@openzeppelin/contracts@4.9.3/utils/Strings.sol\":343:345  20 */\n      0x14\n        /* \"@openzeppelin/contracts@4.9.3/utils/Strings.sol\":1818:2255  function toHexString(uint256 value, uint256 length) internal pure returns (string memory) {... */\n    tag_244:\n        /* \"@openzeppelin/contracts@4.9.3/utils/Strings.sol\":1893:1906  string memory */\n      0x60\n        /* \"@openzeppelin/contracts@4.9.3/utils/Strings.sol\":1918:1937  bytes memory buffer */\n      0x00\n        /* \"@openzeppelin/contracts@4.9.3/utils/Strings.sol\":1950:1960  2 * length */\n      tag_251\n        /* \"@openzeppelin/contracts@4.9.3/utils/Strings.sol\":1954:1960  length */\n      dup4\n        /* \"@openzeppelin/contracts@4.9.3/utils/Strings.sol\":1950:1951  2 */\n      0x02\n        /* \"@openzeppelin/contracts@4.9.3/utils/Strings.sol\":1950:1960  2 * length */\n      tag_252\n      jump\t// in\n    tag_251:\n        /* \"@openzeppelin/contracts@4.9.3/utils/Strings.sol\":1950:1964  2 * length + 2 */\n      tag_253\n      swap1\n        /* \"@openzeppelin/contracts@4.9.3/utils/Strings.sol\":1963:1964  2 */\n      0x02\n        /* \"@openzeppelin/contracts@4.9.3/utils/Strings.sol\":1950:1964  2 * length + 2 */\n      tag_152\n      jump\t// in\n    tag_253:\n        /* \"@openzeppelin/contracts@4.9.3/utils/Strings.sol\":1940:1965  new bytes(2 * length + 2) */\n      0xffffffffffffffff\n      dup2\n      gt\n      iszero\n      tag_255\n      jumpi\n      tag_255\n      tag_256\n      jump\t// in\n    tag_255:\n      mload(0x40)\n      swap1\n      dup1\n      dup3\n      mstore\n      dup1\n      0x1f\n      add\n      not(0x1f)\n      and\n      0x20\n      add\n      dup3\n      add\n      0x40\n      mstore\n      dup1\n      iszero\n      tag_257\n      jumpi\n      0x20\n      dup3\n      add\n      dup2\n      dup1\n      calldatasize\n      dup4\n      calldatacopy\n      add\n      swap1\n      pop\n    tag_257:\n      pop\n        /* \"@openzeppelin/contracts@4.9.3/utils/Strings.sol\":1918:1965  bytes memory buffer = new bytes(2 * length + 2) */\n      swap1\n      pop\n      shl(0xfc, 0x03)\n        /* \"@openzeppelin/contracts@4.9.3/utils/Strings.sol\":1975:1981  buffer */\n      dup2\n        /* \"@openzeppelin/contracts@4.9.3/utils/Strings.sol\":1982:1983  0 */\n      0x00\n        /* \"@openzeppelin/contracts@4.9.3/utils/Strings.sol\":1975:1984  buffer[0] */\n      dup2\n      mload\n      dup2\n      lt\n      tag_259\n      jumpi\n      tag_259\n      tag_260\n      jump\t// in\n    tag_259:\n      0x20\n      add\n      add\n        /* \"@openzeppelin/contracts@4.9.3/utils/Strings.sol\":1975:1990  buffer[0] = \"0\" */\n      swap1\n      not(sub(shl(0xf8, 0x01), 0x01))\n      and\n      swap1\n      dup2\n      0x00\n      byte\n      swap1\n      mstore8\n      pop\n      shl(0xfb, 0x0f)\n        /* \"@openzeppelin/contracts@4.9.3/utils/Strings.sol\":2000:2006  buffer */\n      dup2\n        /* \"@openzeppelin/contracts@4.9.3/utils/Strings.sol\":2007:2008  1 */\n      0x01\n        /* \"@openzeppelin/contracts@4.9.3/utils/Strings.sol\":2000:2009  buffer[1] */\n      dup2\n      mload\n      dup2\n      lt\n      tag_262\n      jumpi\n      tag_262\n      tag_260\n      jump\t// in\n    tag_262:\n      0x20\n      add\n      add\n        /* \"@openzeppelin/contracts@4.9.3/utils/Strings.sol\":2000:2015  buffer[1] = \"x\" */\n      swap1\n      not(sub(shl(0xf8, 0x01), 0x01))\n      and\n      swap1\n      dup2\n      0x00\n      byte\n      swap1\n      mstore8\n      pop\n        /* \"@openzeppelin/contracts@4.9.3/utils/Strings.sol\":2030:2039  uint256 i */\n      0x00\n        /* \"@openzeppelin/contracts@4.9.3/utils/Strings.sol\":2042:2052  2 * length */\n      tag_266\n        /* \"@openzeppelin/contracts@4.9.3/utils/Strings.sol\":2046:2052  length */\n      dup5\n        /* \"@openzeppelin/contracts@4.9.3/utils/Strings.sol\":2042:2043  2 */\n      0x02\n        /* \"@openzeppelin/contracts@4.9.3/utils/Strings.sol\":2042:2052  2 * length */\n      tag_252\n      jump\t// in\n    tag_266:\n        /* \"@openzeppelin/contracts@4.9.3/utils/Strings.sol\":2042:2056  2 * length + 1 */\n      tag_267\n      swap1\n        /* \"@openzeppelin/contracts@4.9.3/utils/Strings.sol\":2055:2056  1 */\n      0x01\n        /* \"@openzeppelin/contracts@4.9.3/utils/Strings.sol\":2042:2056  2 * length + 1 */\n      tag_152\n      jump\t// in\n    tag_267:\n        /* \"@openzeppelin/contracts@4.9.3/utils/Strings.sol\":2030:2056  uint256 i = 2 * length + 1 */\n      swap1\n      pop\n        /* \"@openzeppelin/contracts@4.9.3/utils/Strings.sol\":2025:2153  for (uint256 i = 2 * length + 1; i > 1; --i) {... */\n    tag_263:\n        /* \"@openzeppelin/contracts@4.9.3/utils/Strings.sol\":2062:2063  1 */\n      0x01\n        /* \"@openzeppelin/contracts@4.9.3/utils/Strings.sol\":2058:2059  i */\n      dup2\n        /* \"@openzeppelin/contracts@4.9.3/utils/Strings.sol\":2058:2063  i > 1 */\n      gt\n        /* \"@openzeppelin/contracts@4.9.3/utils/Strings.sol\":2025:2153  for (uint256 i = 2 * length + 1; i > 1; --i) {... */\n      iszero\n      tag_264\n      jumpi\n      shl(0x81, 0x181899199a1a9b1b9c1cb0b131b232b3)\n        /* \"@openzeppelin/contracts@4.9.3/utils/Strings.sol\":2105:2110  value */\n      dup6\n        /* \"@openzeppelin/contracts@4.9.3/utils/Strings.sol\":2113:2116  0xf */\n      0x0f\n        /* \"@openzeppelin/contracts@4.9.3/utils/Strings.sol\":2105:2116  value & 0xf */\n      and\n        /* \"@openzeppelin/contracts@4.9.3/utils/Strings.sol\":2096:2117  _SYMBOLS[value & 0xf] */\n      0x10\n      dup2\n      lt\n      tag_269\n      jumpi\n      tag_269\n      tag_260\n      jump\t// in\n    tag_269:\n      byte\n      0xf8\n      shl\n        /* \"@openzeppelin/contracts@4.9.3/utils/Strings.sol\":2084:2090  buffer */\n      dup3\n        /* \"@openzeppelin/contracts@4.9.3/utils/Strings.sol\":2091:2092  i */\n      dup3\n        /* \"@openzeppelin/contracts@4.9.3/utils/Strings.sol\":2084:2093  buffer[i] */\n      dup2\n      mload\n      dup2\n      lt\n      tag_271\n      jumpi\n      tag_271\n      tag_260\n      jump\t// in\n    tag_271:\n      0x20\n      add\n      add\n        /* \"@openzeppelin/contracts@4.9.3/utils/Strings.sol\":2084:2117  buffer[i] = _SYMBOLS[value & 0xf] */\n      swap1\n      not(sub(shl(0xf8, 0x01), 0x01))\n      and\n      swap1\n      dup2\n      0x00\n      byte\n      swap1\n      mstore8\n      pop\n        /* \"@openzeppelin/contracts@4.9.3/utils/Strings.sol\":2141:2142  4 */\n      0x04\n        /* \"@openzeppelin/contracts@4.9.3/utils/Strings.sol\":2131:2142  value >>= 4 */\n      swap5\n      swap1\n      swap5\n      shr\n      swap4\n        /* \"@openzeppelin/contracts@4.9.3/utils/Strings.sol\":2065:2068  --i */\n      tag_272\n      dup2\n      tag_273\n      jump\t// in\n    tag_272:\n      swap1\n      pop\n        /* \"@openzeppelin/contracts@4.9.3/utils/Strings.sol\":2025:2153  for (uint256 i = 2 * length + 1; i > 1; --i) {... */\n      jump(tag_263)\n    tag_264:\n      pop\n        /* \"@openzeppelin/contracts@4.9.3/utils/Strings.sol\":2170:2180  value == 0 */\n      dup4\n      iszero\n        /* \"@openzeppelin/contracts@4.9.3/utils/Strings.sol\":2162:2217  require(value == 0, \"Strings: hex length insufficient\") */\n      tag_274\n      jumpi\n      mload(0x40)\n      shl(0xe5, 0x461bcd)\n      dup2\n      mstore\n        /* \"#utility.yul\":9630:9632   */\n      0x20\n        /* \"@openzeppelin/contracts@4.9.3/utils/Strings.sol\":2162:2217  require(value == 0, \"Strings: hex length insufficient\") */\n      0x04\n      dup3\n      add\n        /* \"#utility.yul\":9612:9633   */\n      dup2\n      swap1\n      mstore\n        /* \"#utility.yul\":9649:9667   */\n      0x24\n      dup3\n      add\n        /* \"#utility.yul\":9642:9672   */\n      mstore\n        /* \"#utility.yul\":9708:9742   */\n      0x537472696e67733a20686578206c656e67746820696e73756666696369656e74\n        /* \"#utility.yul\":9688:9706   */\n      0x44\n      dup3\n      add\n        /* \"#utility.yul\":9681:9743   */\n      mstore\n        /* \"#utility.yul\":9760:9778   */\n      0x64\n      add\n        /* \"@openzeppelin/contracts@4.9.3/utils/Strings.sol\":2162:2217  require(value == 0, \"Strings: hex length insufficient\") */\n      tag_143\n        /* \"#utility.yul\":9428:9784   */\n      jump\n        /* \"@openzeppelin/contracts@4.9.3/utils/Strings.sol\":2162:2217  require(value == 0, \"Strings: hex length insufficient\") */\n    tag_274:\n        /* \"@openzeppelin/contracts@4.9.3/utils/Strings.sol\":2241:2247  buffer */\n      swap4\n        /* \"@openzeppelin/contracts@4.9.3/utils/Strings.sol\":1818:2255  function toHexString(uint256 value, uint256 length) internal pure returns (string memory) {... */\n      swap3\n      pop\n      pop\n      pop\n      jump\t// out\n        /* \"#utility.yul\":14:300   */\n    tag_28:\n        /* \"#utility.yul\":72:78   */\n      0x00\n        /* \"#utility.yul\":125:127   */\n      0x20\n        /* \"#utility.yul\":113:122   */\n      dup3\n        /* \"#utility.yul\":104:111   */\n      dup5\n        /* \"#utility.yul\":100:123   */\n      sub\n        /* \"#utility.yul\":96:128   */\n      slt\n        /* \"#utility.yul\":93:145   */\n      iszero\n      tag_282\n      jumpi\n        /* \"#utility.yul\":141:142   */\n      0x00\n        /* \"#utility.yul\":138:139   */\n      dup1\n        /* \"#utility.yul\":131:143   */\n      revert\n        /* \"#utility.yul\":93:145   */\n    tag_282:\n        /* \"#utility.yul\":167:190   */\n      dup2\n      calldataload\n      not(sub(shl(0xe0, 0x01), 0x01))\n        /* \"#utility.yul\":219:251   */\n      dup2\n      and\n        /* \"#utility.yul\":209:252   */\n      dup2\n      eq\n        /* \"#utility.yul\":199:270   */\n      tag_274\n      jumpi\n        /* \"#utility.yul\":266:267   */\n      0x00\n        /* \"#utility.yul\":263:264   */\n      dup1\n        /* \"#utility.yul\":256:268   */\n      revert\n        /* \"#utility.yul\":497:747   */\n    tag_277:\n        /* \"#utility.yul\":582:583   */\n      0x00\n        /* \"#utility.yul\":592:705   */\n    tag_286:\n        /* \"#utility.yul\":606:612   */\n      dup4\n        /* \"#utility.yul\":603:604   */\n      dup2\n        /* \"#utility.yul\":600:613   */\n      lt\n        /* \"#utility.yul\":592:705   */\n      iszero\n      tag_288\n      jumpi\n        /* \"#utility.yul\":682:693   */\n      dup2\n      dup2\n      add\n        /* \"#utility.yul\":676:694   */\n      mload\n        /* \"#utility.yul\":663:674   */\n      dup4\n      dup3\n      add\n        /* \"#utility.yul\":656:695   */\n      mstore\n        /* \"#utility.yul\":628:630   */\n      0x20\n        /* \"#utility.yul\":621:631   */\n      add\n        /* \"#utility.yul\":592:705   */\n      jump(tag_286)\n    tag_288:\n      pop\n      pop\n        /* \"#utility.yul\":739:740   */\n      0x00\n        /* \"#utility.yul\":721:737   */\n      swap2\n      add\n        /* \"#utility.yul\":714:741   */\n      mstore\n        /* \"#utility.yul\":497:747   */\n      jump\t// out\n        /* \"#utility.yul\":752:1148   */\n    tag_35:\n        /* \"#utility.yul\":901:903   */\n      0x20\n        /* \"#utility.yul\":890:899   */\n      dup2\n        /* \"#utility.yul\":883:904   */\n      mstore\n        /* \"#utility.yul\":864:868   */\n      0x00\n        /* \"#utility.yul\":933:939   */\n      dup3\n        /* \"#utility.yul\":927:940   */\n      mload\n        /* \"#utility.yul\":976:982   */\n      dup1\n        /* \"#utility.yul\":971:973   */\n      0x20\n        /* \"#utility.yul\":960:969   */\n      dup5\n        /* \"#utility.yul\":956:974   */\n      add\n        /* \"#utility.yul\":949:983   */\n      mstore\n        /* \"#utility.yul\":992:1071   */\n      tag_290\n        /* \"#utility.yul\":1064:1070   */\n      dup2\n        /* \"#utility.yul\":1059:1061   */\n      0x40\n        /* \"#utility.yul\":1048:1057   */\n      dup6\n        /* \"#utility.yul\":1044:1062   */\n      add\n        /* \"#utility.yul\":1039:1041   */\n      0x20\n        /* \"#utility.yul\":1031:1037   */\n      dup8\n        /* \"#utility.yul\":1027:1042   */\n      add\n        /* \"#utility.yul\":992:1071   */\n      tag_277\n      jump\t// in\n    tag_290:\n        /* \"#utility.yul\":1132:1134   */\n      0x1f\n        /* \"#utility.yul\":1111:1126   */\n      add\n      not(0x1f)\n        /* \"#utility.yul\":1107:1136   */\n      and\n        /* \"#utility.yul\":1092:1137   */\n      swap2\n      swap1\n      swap2\n      add\n        /* \"#utility.yul\":1139:1141   */\n      0x40\n        /* \"#utility.yul\":1088:1142   */\n      add\n      swap3\n        /* \"#utility.yul\":752:1148   */\n      swap2\n      pop\n      pop\n      jump\t// out\n        /* \"#utility.yul\":1153:1326   */\n    tag_278:\n        /* \"#utility.yul\":1221:1241   */\n      dup1\n      calldataload\n      sub(shl(0xa0, 0x01), 0x01)\n        /* \"#utility.yul\":1270:1301   */\n      dup2\n      and\n        /* \"#utility.yul\":1260:1302   */\n      dup2\n      eq\n        /* \"#utility.yul\":1250:1320   */\n      tag_292\n      jumpi\n        /* \"#utility.yul\":1316:1317   */\n      0x00\n        /* \"#utility.yul\":1313:1314   */\n      dup1\n        /* \"#utility.yul\":1306:1318   */\n      revert\n        /* \"#utility.yul\":1250:1320   */\n    tag_292:\n        /* \"#utility.yul\":1153:1326   */\n      swap2\n      swap1\n      pop\n      jump\t// out\n        /* \"#utility.yul\":1331:1585   */\n    tag_38:\n        /* \"#utility.yul\":1399:1405   */\n      0x00\n        /* \"#utility.yul\":1407:1413   */\n      dup1\n        /* \"#utility.yul\":1460:1462   */\n      0x40\n        /* \"#utility.yul\":1448:1457   */\n      dup4\n        /* \"#utility.yul\":1439:1446   */\n      dup6\n        /* \"#utility.yul\":1435:1458   */\n      sub\n        /* \"#utility.yul\":1431:1463   */\n      slt\n        /* \"#utility.yul\":1428:1480   */\n      iszero\n      tag_294\n      jumpi\n        /* \"#utility.yul\":1476:1477   */\n      0x00\n        /* \"#utility.yul\":1473:1474   */\n      dup1\n        /* \"#utility.yul\":1466:1478   */\n      revert\n        /* \"#utility.yul\":1428:1480   */\n    tag_294:\n        /* \"#utility.yul\":1499:1528   */\n      tag_295\n        /* \"#utility.yul\":1518:1527   */\n      dup4\n        /* \"#utility.yul\":1499:1528   */\n      tag_278\n      jump\t// in\n    tag_295:\n        /* \"#utility.yul\":1489:1528   */\n      swap5\n        /* \"#utility.yul\":1575:1577   */\n      0x20\n        /* \"#utility.yul\":1560:1578   */\n      swap4\n      swap1\n      swap4\n      add\n        /* \"#utility.yul\":1547:1579   */\n      calldataload\n      swap4\n      pop\n      pop\n      pop\n        /* \"#utility.yul\":1331:1585   */\n      jump\t// out\n        /* \"#utility.yul\":1772:2100   */\n    tag_47:\n        /* \"#utility.yul\":1849:1855   */\n      0x00\n        /* \"#utility.yul\":1857:1863   */\n      dup1\n        /* \"#utility.yul\":1865:1871   */\n      0x00\n        /* \"#utility.yul\":1918:1920   */\n      0x60\n        /* \"#utility.yul\":1906:1915   */\n      dup5\n        /* \"#utility.yul\":1897:1904   */\n      dup7\n        /* \"#utility.yul\":1893:1916   */\n      sub\n        /* \"#utility.yul\":1889:1921   */\n      slt\n        /* \"#utility.yul\":1886:1938   */\n      iszero\n      tag_298\n      jumpi\n        /* \"#utility.yul\":1934:1935   */\n      0x00\n        /* \"#utility.yul\":1931:1932   */\n      dup1\n        /* \"#utility.yul\":1924:1936   */\n      revert\n        /* \"#utility.yul\":1886:1938   */\n    tag_298:\n        /* \"#utility.yul\":1957:1986   */\n      tag_299\n        /* \"#utility.yul\":1976:1985   */\n      dup5\n        /* \"#utility.yul\":1957:1986   */\n      tag_278\n      jump\t// in\n    tag_299:\n        /* \"#utility.yul\":1947:1986   */\n      swap3\n      pop\n        /* \"#utility.yul\":2005:2043   */\n      tag_300\n        /* \"#utility.yul\":2039:2041   */\n      0x20\n        /* \"#utility.yul\":2028:2037   */\n      dup6\n        /* \"#utility.yul\":2024:2042   */\n      add\n        /* \"#utility.yul\":2005:2043   */\n      tag_278\n      jump\t// in\n    tag_300:\n        /* \"#utility.yul\":1995:2043   */\n      swap2\n      pop\n        /* \"#utility.yul\":2090:2092   */\n      0x40\n        /* \"#utility.yul\":2079:2088   */\n      dup5\n        /* \"#utility.yul\":2075:2093   */\n      add\n        /* \"#utility.yul\":2062:2094   */\n      calldataload\n        /* \"#utility.yul\":2052:2094   */\n      swap1\n      pop\n        /* \"#utility.yul\":1772:2100   */\n      swap3\n      pop\n      swap3\n      pop\n      swap3\n      jump\t// out\n        /* \"#utility.yul\":2105:2285   */\n    tag_52:\n        /* \"#utility.yul\":2164:2170   */\n      0x00\n        /* \"#utility.yul\":2217:2219   */\n      0x20\n        /* \"#utility.yul\":2205:2214   */\n      dup3\n        /* \"#utility.yul\":2196:2203   */\n      dup5\n        /* \"#utility.yul\":2192:2215   */\n      sub\n        /* \"#utility.yul\":2188:2220   */\n      slt\n        /* \"#utility.yul\":2185:2237   */\n      iszero\n      tag_302\n      jumpi\n        /* \"#utility.yul\":2233:2234   */\n      0x00\n        /* \"#utility.yul\":2230:2231   */\n      dup1\n        /* \"#utility.yul\":2223:2235   */\n      revert\n        /* \"#utility.yul\":2185:2237   */\n    tag_302:\n      pop\n        /* \"#utility.yul\":2256:2279   */\n      calldataload\n      swap2\n        /* \"#utility.yul\":2105:2285   */\n      swap1\n      pop\n      jump\t// out\n        /* \"#utility.yul\":2472:2726   */\n    tag_58:\n        /* \"#utility.yul\":2540:2546   */\n      0x00\n        /* \"#utility.yul\":2548:2554   */\n      dup1\n        /* \"#utility.yul\":2601:2603   */\n      0x40\n        /* \"#utility.yul\":2589:2598   */\n      dup4\n        /* \"#utility.yul\":2580:2587   */\n      dup6\n        /* \"#utility.yul\":2576:2599   */\n      sub\n        /* \"#utility.yul\":2572:2604   */\n      slt\n        /* \"#utility.yul\":2569:2621   */\n      iszero\n      tag_305\n      jumpi\n        /* \"#utility.yul\":2617:2618   */\n      0x00\n        /* \"#utility.yul\":2614:2615   */\n      dup1\n        /* \"#utility.yul\":2607:2619   */\n      revert\n        /* \"#utility.yul\":2569:2621   */\n    tag_305:\n        /* \"#utility.yul\":2653:2662   */\n      dup3\n        /* \"#utility.yul\":2640:2663   */\n      calldataload\n        /* \"#utility.yul\":2630:2663   */\n      swap2\n      pop\n        /* \"#utility.yul\":2682:2720   */\n      tag_306\n        /* \"#utility.yul\":2716:2718   */\n      0x20\n        /* \"#utility.yul\":2705:2714   */\n      dup5\n        /* \"#utility.yul\":2701:2719   */\n      add\n        /* \"#utility.yul\":2682:2720   */\n      tag_278\n      jump\t// in\n    tag_306:\n        /* \"#utility.yul\":2672:2720   */\n      swap1\n      pop\n        /* \"#utility.yul\":2472:2726   */\n      swap3\n      pop\n      swap3\n      swap1\n      pop\n      jump\t// out\n        /* \"#utility.yul\":2920:3106   */\n    tag_73:\n        /* \"#utility.yul\":2979:2985   */\n      0x00\n        /* \"#utility.yul\":3032:3034   */\n      0x20\n        /* \"#utility.yul\":3020:3029   */\n      dup3\n        /* \"#utility.yul\":3011:3018   */\n      dup5\n        /* \"#utility.yul\":3007:3030   */\n      sub\n        /* \"#utility.yul\":3003:3035   */\n      slt\n        /* \"#utility.yul\":3000:3052   */\n      iszero\n      tag_309\n      jumpi\n        /* \"#utility.yul\":3048:3049   */\n      0x00\n        /* \"#utility.yul\":3045:3046   */\n      dup1\n        /* \"#utility.yul\":3038:3050   */\n      revert\n        /* \"#utility.yul\":3000:3052   */\n    tag_309:\n        /* \"#utility.yul\":3071:3100   */\n      tag_274\n        /* \"#utility.yul\":3090:3099   */\n      dup3\n        /* \"#utility.yul\":3071:3100   */\n      tag_278\n      jump\t// in\n        /* \"#utility.yul\":3111:3371   */\n    tag_102:\n        /* \"#utility.yul\":3179:3185   */\n      0x00\n        /* \"#utility.yul\":3187:3193   */\n      dup1\n        /* \"#utility.yul\":3240:3242   */\n      0x40\n        /* \"#utility.yul\":3228:3237   */\n      dup4\n        /* \"#utility.yul\":3219:3226   */\n      dup6\n        /* \"#utility.yul\":3215:3238   */\n      sub\n        /* \"#utility.yul\":3211:3243   */\n      slt\n        /* \"#utility.yul\":3208:3260   */\n      iszero\n      tag_312\n      jumpi\n        /* \"#utility.yul\":3256:3257   */\n      0x00\n        /* \"#utility.yul\":3253:3254   */\n      dup1\n        /* \"#utility.yul\":3246:3258   */\n      revert\n        /* \"#utility.yul\":3208:3260   */\n    tag_312:\n        /* \"#utility.yul\":3279:3308   */\n      tag_313\n        /* \"#utility.yul\":3298:3307   */\n      dup4\n        /* \"#utility.yul\":3279:3308   */\n      tag_278\n      jump\t// in\n    tag_313:\n        /* \"#utility.yul\":3269:3308   */\n      swap2\n      pop\n        /* \"#utility.yul\":3327:3365   */\n      tag_306\n        /* \"#utility.yul\":3361:3363   */\n      0x20\n        /* \"#utility.yul\":3350:3359   */\n      dup5\n        /* \"#utility.yul\":3346:3364   */\n      add\n        /* \"#utility.yul\":3327:3365   */\n      tag_278\n      jump\t// in\n        /* \"#utility.yul\":3376:3756   */\n    tag_114:\n        /* \"#utility.yul\":3455:3456   */\n      0x01\n        /* \"#utility.yul\":3451:3463   */\n      dup2\n      dup2\n      shr\n      swap1\n        /* \"#utility.yul\":3498:3510   */\n      dup3\n      and\n      dup1\n        /* \"#utility.yul\":3519:3580   */\n      tag_316\n      jumpi\n        /* \"#utility.yul\":3573:3577   */\n      0x7f\n        /* \"#utility.yul\":3565:3571   */\n      dup3\n        /* \"#utility.yul\":3561:3578   */\n      and\n        /* \"#utility.yul\":3551:3578   */\n      swap2\n      pop\n        /* \"#utility.yul\":3519:3580   */\n    tag_316:\n        /* \"#utility.yul\":3626:3628   */\n      0x20\n        /* \"#utility.yul\":3618:3624   */\n      dup3\n        /* \"#utility.yul\":3615:3629   */\n      lt\n        /* \"#utility.yul\":3595:3613   */\n      dup2\n        /* \"#utility.yul\":3592:3630   */\n      sub\n        /* \"#utility.yul\":3589:3750   */\n      tag_317\n      jumpi\n        /* \"#utility.yul\":3672:3682   */\n      0x4e487b71\n        /* \"#utility.yul\":3667:3670   */\n      0xe0\n        /* \"#utility.yul\":3663:3683   */\n      shl\n        /* \"#utility.yul\":3660:3661   */\n      0x00\n        /* \"#utility.yul\":3653:3684   */\n      mstore\n        /* \"#utility.yul\":3707:3711   */\n      0x22\n        /* \"#utility.yul\":3704:3705   */\n      0x04\n        /* \"#utility.yul\":3697:3712   */\n      mstore\n        /* \"#utility.yul\":3735:3739   */\n      0x24\n        /* \"#utility.yul\":3732:3733   */\n      0x00\n        /* \"#utility.yul\":3725:3740   */\n      revert\n        /* \"#utility.yul\":3589:3750   */\n    tag_317:\n      pop\n        /* \"#utility.yul\":3376:3756   */\n      swap2\n      swap1\n      pop\n      jump\t// out\n        /* \"#utility.yul\":4177:4304   */\n    tag_279:\n        /* \"#utility.yul\":4238:4248   */\n      0x4e487b71\n        /* \"#utility.yul\":4233:4236   */\n      0xe0\n        /* \"#utility.yul\":4229:4249   */\n      shl\n        /* \"#utility.yul\":4226:4227   */\n      0x00\n        /* \"#utility.yul\":4219:4250   */\n      mstore\n        /* \"#utility.yul\":4269:4273   */\n      0x11\n        /* \"#utility.yul\":4266:4267   */\n      0x04\n        /* \"#utility.yul\":4259:4274   */\n      mstore\n        /* \"#utility.yul\":4293:4297   */\n      0x24\n        /* \"#utility.yul\":4290:4291   */\n      0x00\n        /* \"#utility.yul\":4283:4298   */\n      revert\n        /* \"#utility.yul\":4309:4434   */\n    tag_152:\n        /* \"#utility.yul\":4374:4383   */\n      dup1\n      dup3\n      add\n        /* \"#utility.yul\":4395:4405   */\n      dup1\n      dup3\n      gt\n        /* \"#utility.yul\":4392:4428   */\n      iszero\n      tag_110\n      jumpi\n        /* \"#utility.yul\":4408:4426   */\n      tag_110\n      tag_279\n      jump\t// in\n        /* \"#utility.yul\":8033:8845   */\n    tag_246:\n        /* \"#utility.yul\":8444:8469   */\n      0x416363657373436f6e74726f6c3a206163636f756e7420000000000000000000\n        /* \"#utility.yul\":8439:8442   */\n      dup2\n        /* \"#utility.yul\":8432:8470   */\n      mstore\n        /* \"#utility.yul\":8414:8417   */\n      0x00\n        /* \"#utility.yul\":8499:8505   */\n      dup4\n        /* \"#utility.yul\":8493:8506   */\n      mload\n        /* \"#utility.yul\":8515:8590   */\n      tag_333\n        /* \"#utility.yul\":8583:8589   */\n      dup2\n        /* \"#utility.yul\":8578:8580   */\n      0x17\n        /* \"#utility.yul\":8573:8576   */\n      dup6\n        /* \"#utility.yul\":8569:8581   */\n      add\n        /* \"#utility.yul\":8562:8566   */\n      0x20\n        /* \"#utility.yul\":8554:8560   */\n      dup9\n        /* \"#utility.yul\":8550:8567   */\n      add\n        /* \"#utility.yul\":8515:8590   */\n      tag_277\n      jump\t// in\n    tag_333:\n      shl(0x7d, 0x01034b99036b4b9b9b4b733903937b6329)\n        /* \"#utility.yul\":8649:8651   */\n      0x17\n        /* \"#utility.yul\":8609:8625   */\n      swap2\n      dup5\n      add\n        /* \"#utility.yul\":8641:8652   */\n      swap2\n      dup3\n      add\n        /* \"#utility.yul\":8634:8674   */\n      mstore\n        /* \"#utility.yul\":8699:8712   */\n      dup4\n      mload\n        /* \"#utility.yul\":8721:8797   */\n      tag_334\n        /* \"#utility.yul\":8699:8712   */\n      dup2\n        /* \"#utility.yul\":8783:8785   */\n      0x28\n        /* \"#utility.yul\":8775:8786   */\n      dup5\n      add\n        /* \"#utility.yul\":8768:8772   */\n      0x20\n        /* \"#utility.yul\":8756:8773   */\n      dup9\n      add\n        /* \"#utility.yul\":8721:8797   */\n      tag_277\n      jump\t// in\n    tag_334:\n        /* \"#utility.yul\":8817:8834   */\n      add\n        /* \"#utility.yul\":8836:8838   */\n      0x28\n        /* \"#utility.yul\":8813:8839   */\n      add\n      swap5\n        /* \"#utility.yul\":8033:8845   */\n      swap4\n      pop\n      pop\n      pop\n      pop\n      jump\t// out\n        /* \"#utility.yul\":8850:9018   */\n    tag_252:\n        /* \"#utility.yul\":8923:8932   */\n      dup1\n      dup3\n      mul\n        /* \"#utility.yul\":8954:8963   */\n      dup2\n      iszero\n        /* \"#utility.yul\":8971:8986   */\n      dup3\n      dup3\n      div\n        /* \"#utility.yul\":8965:8987   */\n      dup5\n      eq\n        /* \"#utility.yul\":8951:8988   */\n      or\n        /* \"#utility.yul\":8941:9012   */\n      tag_110\n      jumpi\n        /* \"#utility.yul\":8992:9010   */\n      tag_110\n      tag_279\n      jump\t// in\n        /* \"#utility.yul\":9023:9150   */\n    tag_256:\n        /* \"#utility.yul\":9084:9094   */\n      0x4e487b71\n        /* \"#utility.yul\":9079:9082   */\n      0xe0\n        /* \"#utility.yul\":9075:9095   */\n      shl\n        /* \"#utility.yul\":9072:9073   */\n      0x00\n        /* \"#utility.yul\":9065:9096   */\n      mstore\n        /* \"#utility.yul\":9115:9119   */\n      0x41\n        /* \"#utility.yul\":9112:9113   */\n      0x04\n        /* \"#utility.yul\":9105:9120   */\n      mstore\n        /* \"#utility.yul\":9139:9143   */\n      0x24\n        /* \"#utility.yul\":9136:9137   */\n      0x00\n        /* \"#utility.yul\":9129:9144   */\n      revert\n        /* \"#utility.yul\":9155:9282   */\n    tag_260:\n        /* \"#utility.yul\":9216:9226   */\n      0x4e487b71\n        /* \"#utility.yul\":9211:9214   */\n      0xe0\n        /* \"#utility.yul\":9207:9227   */\n      shl\n        /* \"#utility.yul\":9204:9205   */\n      0x00\n        /* \"#utility.yul\":9197:9228   */\n      mstore\n        /* \"#utility.yul\":9247:9251   */\n      0x32\n        /* \"#utility.yul\":9244:9245   */\n      0x04\n        /* \"#utility.yul\":9237:9252   */\n      mstore\n        /* \"#utility.yul\":9271:9275   */\n      0x24\n        /* \"#utility.yul\":9268:9269   */\n      0x00\n        /* \"#utility.yul\":9261:9276   */\n      revert\n        /* \"#utility.yul\":9287:9423   */\n    tag_273:\n        /* \"#utility.yul\":9326:9329   */\n      0x00\n        /* \"#utility.yul\":9354:9359   */\n      dup2\n        /* \"#utility.yul\":9344:9383   */\n      tag_342\n      jumpi\n        /* \"#utility.yul\":9363:9381   */\n      tag_342\n      tag_279\n      jump\t// in\n    tag_342:\n      pop\n      not(0x00)\n        /* \"#utility.yul\":9399:9417   */\n      add\n      swap1\n        /* \"#utility.yul\":9287:9423   */\n      jump\t// out\n\n    auxdata: 0xa26469706673582212202b7c5f183362e6abfe0a2896ef6358bc8a228bba9b74843a4f4ef1f33c849fe964736f6c63430008180033\n}\n",
				"bytecode": {
					"linkReferences": {},
					"object": "608060405234801562000010575f80fd5b506040516200166438038062001664833981016040819052620000339162000343565b60405180604001604052806009815260200168233630b6b2b137b93760b91b8152506040518060400160405280600381526020016223262160e91b81525081600390816200008291906200040f565b5060046200009182826200040f565b5050506001600160a01b038116620000f05760405162461bcd60e51b815260206004820152601860248201527f496e76616c6964206d756c74697369672061646472657373000000000000000060448201526064015b60405180910390fd5b620000fc5f8262000162565b620001287fa5a0b70b385ff7611cd3840916bd08b10829e5bf9e6637cf79dd9a427fc0e2ab8262000162565b6200014e816200013b6012600a620005e8565b62000148906064620005f8565b620001ec565b506006805460ff1916600117905562000628565b6200016e82826200024d565b620001e8575f8281526005602090815260408083206001600160a01b03851684529091529020805460ff19166001179055620001a73390565b6001600160a01b0316816001600160a01b0316837f2f8788117e7eff1d82e926ec794901d17c78024a50270940304540a733656f0d60405160405180910390a45b5050565b60065460ff1615620002415760405162461bcd60e51b815260206004820152601c60248201527f4d696e74696e672064697361626c6564207065726d616e656e746c79000000006044820152606401620000e7565b620001e8828262000279565b5f8281526005602090815260408083206001600160a01b038516845290915290205460ff165b92915050565b6001600160a01b038216620002d15760405162461bcd60e51b815260206004820152601f60248201527f45524332303a206d696e7420746f20746865207a65726f2061646472657373006044820152606401620000e7565b8060025f828254620002e4919062000612565b90915550506001600160a01b0382165f81815260208181526040808320805486019055518481527fddf252ad1be2c89b69c2b068fc378daa952ba7f163c4a11628f55a4df523b3ef910160405180910390a3620001e85f83835b505050565b5f6020828403121562000354575f80fd5b81516001600160a01b03811681146200036b575f80fd5b9392505050565b634e487b7160e01b5f52604160045260245ffd5b600181811c908216806200039b57607f821691505b602082108103620003ba57634e487b7160e01b5f52602260045260245ffd5b50919050565b601f8211156200033e57805f5260205f20601f840160051c81016020851015620003e75750805b601f840160051c820191505b8181101562000408575f8155600101620003f3565b5050505050565b81516001600160401b038111156200042b576200042b62000372565b62000443816200043c845462000386565b84620003c0565b602080601f83116001811462000479575f8415620004615750858301515b5f19600386901b1c1916600185901b178555620004d3565b5f85815260208120601f198616915b82811015620004a95788860151825594840194600190910190840162000488565b5085821015620004c757878501515f19600388901b60f8161c191681555b505060018460011b0185555b505050505050565b634e487b7160e01b5f52601160045260245ffd5b600181815b808511156200052f57815f1904821115620005135762000513620004db565b808516156200052157918102915b93841c9390800290620004f4565b509250929050565b5f82620005475750600162000273565b816200055557505f62000273565b81600181146200056e5760028114620005795762000599565b600191505062000273565b60ff8411156200058d576200058d620004db565b50506001821b62000273565b5060208310610133831016604e8410600b8410161715620005be575081810a62000273565b620005ca8383620004ef565b805f1904821115620005e057620005e0620004db565b029392505050565b5f6200036b60ff84168362000537565b8082028115828204841417620002735762000273620004db565b80820180821115620002735762000273620004db565b61102e80620006365f395ff3fe608060405234801561000f575f80fd5b5060043610610127575f3560e01c806370a08231116100a9578063a457c2d71161006e578063a457c2d714610269578063a9059cbb1461027c578063d547741f1461028f578063dd62ed3e146102a2578063e328400c146102b5575f80fd5b806370a082311461020c57806391d148541461023457806395d89b41146102475780639dc29fac1461024f578063a217fddf14610262575f80fd5b8063248a9ca3116100ef578063248a9ca3146101a05780632f2ff15d146101c2578063313ce567146101d757806336568abe146101e657806339509351146101f9575f80fd5b806301ffc9a71461012b57806306fdde0314610153578063095ea7b31461016857806318160ddd1461017b57806323b872dd1461018d575b5f80fd5b61013e610139366004610d58565b6102dc565b60405190151581526020015b60405180910390f35b61015b610312565b60405161014a9190610da1565b61013e610176366004610dee565b6103a2565b6002545b60405190815260200161014a565b61013e61019b366004610e16565b6103b9565b61017f6101ae366004610e4f565b5f9081526005602052604090206001015490565b6101d56101d0366004610e66565b6103dc565b005b6040516012815260200161014a565b6101d56101f4366004610e66565b610405565b61013e610207366004610dee565b610488565b61017f61021a366004610e90565b6001600160a01b03165f9081526020819052604090205490565b61013e610242366004610e66565b6104a9565b61015b6104d3565b6101d561025d366004610dee565b6104e2565b61017f5f81565b61013e610277366004610dee565b610516565b61013e61028a366004610dee565b610590565b6101d561029d366004610e66565b61059d565b61017f6102b0366004610ea9565b6105c1565b61017f7fa5a0b70b385ff7611cd3840916bd08b10829e5bf9e6637cf79dd9a427fc0e2ab81565b5f6001600160e01b03198216637965db0b60e01b148061030c57506301ffc9a760e01b6001600160e01b03198316145b92915050565b60606003805461032190610ed1565b80601f016020809104026020016040519081016040528092919081815260200182805461034d90610ed1565b80156103985780601f1061036f57610100808354040283529160200191610398565b820191905f5260205f20905b81548152906001019060200180831161037b57829003601f168201915b5050505050905090565b5f336103af8185856105eb565b5060019392505050565b5f336103c685828561070e565b6103d1858585610786565b506001949350505050565b5f828152600560205260409020600101546103f681610928565b6104008383610935565b505050565b6001600160a01b038116331461047a5760405162461bcd60e51b815260206004820152602f60248201527f416363657373436f6e74726f6c3a2063616e206f6e6c792072656e6f756e636560448201526e103937b632b9903337b91039b2b63360891b60648201526084015b60405180910390fd5b61048482826109ba565b5050565b5f336103af81858561049a83836105c1565b6104a49190610f1d565b6105eb565b5f9182526005602090815260408084206001600160a01b0393909316845291905290205460ff1690565b60606004805461032190610ed1565b7fa5a0b70b385ff7611cd3840916bd08b10829e5bf9e6637cf79dd9a427fc0e2ab61050c81610928565b6104008383610a20565b5f338161052382866105c1565b9050838110156105835760405162461bcd60e51b815260206004820152602560248201527f45524332303a2064656372656173656420616c6c6f77616e63652062656c6f77604482015264207a65726f60d81b6064820152608401610471565b6103d182868684036105eb565b5f336103af818585610786565b5f828152600560205260409020600101546105b781610928565b61040083836109ba565b6001600160a01b039182165f90815260016020908152604080832093909416825291909152205490565b6001600160a01b03831661064d5760405162461bcd60e51b8152602060048201526024808201527f45524332303a20617070726f76652066726f6d20746865207a65726f206164646044820152637265737360e01b6064820152608401610471565b6001600160a01b0382166106ae5760405162461bcd60e51b815260206004820152602260248201527f45524332303a20617070726f766520746f20746865207a65726f206164647265604482015261737360f01b6064820152608401610471565b6001600160a01b038381165f8181526001602090815260408083209487168084529482529182902085905590518481527f8c5be1e5ebec7d5bd14f71427d1e84f3dd0314c0f7b2291e5b200ac8c7c3b925910160405180910390a3505050565b5f61071984846105c1565b90505f19811461078057818110156107735760405162461bcd60e51b815260206004820152601d60248201527f45524332303a20696e73756666696369656e7420616c6c6f77616e63650000006044820152606401610471565b61078084848484036105eb565b50505050565b6001600160a01b0383166107ea5760405162461bcd60e51b815260206004820152602560248201527f45524332303a207472616e736665722066726f6d20746865207a65726f206164604482015264647265737360d81b6064820152608401610471565b6001600160a01b03821661084c5760405162461bcd60e51b815260206004820152602360248201527f45524332303a207472616e7366657220746f20746865207a65726f206164647260448201526265737360e81b6064820152608401610471565b6001600160a01b0383165f90815260208190526040902054818110156108c35760405162461bcd60e51b815260206004820152602660248201527f45524332303a207472616e7366657220616d6f756e7420657863656564732062604482015265616c616e636560d01b6064820152608401610471565b6001600160a01b038481165f81815260208181526040808320878703905593871680835291849020805487019055925185815290927fddf252ad1be2c89b69c2b068fc378daa952ba7f163c4a11628f55a4df523b3ef910160405180910390a3610780565b6109328133610b50565b50565b61093f82826104a9565b610484575f8281526005602090815260408083206001600160a01b03851684529091529020805460ff191660011790556109763390565b6001600160a01b0316816001600160a01b0316837f2f8788117e7eff1d82e926ec794901d17c78024a50270940304540a733656f0d60405160405180910390a45050565b6109c482826104a9565b15610484575f8281526005602090815260408083206001600160a01b0385168085529252808320805460ff1916905551339285917ff6391f5c32d9c69d2a47ea670b442974b53935d1edc7fd64eb21e047a839171b9190a45050565b6001600160a01b038216610a805760405162461bcd60e51b815260206004820152602160248201527f45524332303a206275726e2066726f6d20746865207a65726f206164647265736044820152607360f81b6064820152608401610471565b6001600160a01b0382165f9081526020819052604090205481811015610af35760405162461bcd60e51b815260206004820152602260248201527f45524332303a206275726e20616d6f756e7420657863656564732062616c616e604482015261636560f01b6064820152608401610471565b6001600160a01b0383165f818152602081815260408083208686039055600280548790039055518581529192917fddf252ad1be2c89b69c2b068fc378daa952ba7f163c4a11628f55a4df523b3ef910160405180910390a3505050565b610b5a82826104a9565b61048457610b6781610ba9565b610b72836020610bbb565b604051602001610b83929190610f30565b60408051601f198184030181529082905262461bcd60e51b825261047191600401610da1565b606061030c6001600160a01b03831660145b60605f610bc9836002610fa4565b610bd4906002610f1d565b67ffffffffffffffff811115610bec57610bec610fbb565b6040519080825280601f01601f191660200182016040528015610c16576020820181803683370190505b509050600360fc1b815f81518110610c3057610c30610fcf565b60200101906001600160f81b03191690815f1a905350600f60fb1b81600181518110610c5e57610c5e610fcf565b60200101906001600160f81b03191690815f1a9053505f610c80846002610fa4565b610c8b906001610f1d565b90505b6001811115610d02576f181899199a1a9b1b9c1cb0b131b232b360811b85600f1660108110610cbf57610cbf610fcf565b1a60f81b828281518110610cd557610cd5610fcf565b60200101906001600160f81b03191690815f1a90535060049490941c93610cfb81610fe3565b9050610c8e565b508315610d515760405162461bcd60e51b815260206004820181905260248201527f537472696e67733a20686578206c656e67746820696e73756666696369656e746044820152606401610471565b9392505050565b5f60208284031215610d68575f80fd5b81356001600160e01b031981168114610d51575f80fd5b5f5b83811015610d99578181015183820152602001610d81565b50505f910152565b602081525f8251806020840152610dbf816040850160208701610d7f565b601f01601f19169190910160400192915050565b80356001600160a01b0381168114610de9575f80fd5b919050565b5f8060408385031215610dff575f80fd5b610e0883610dd3565b946020939093013593505050565b5f805f60608486031215610e28575f80fd5b610e3184610dd3565b9250610e3f60208501610dd3565b9150604084013590509250925092565b5f60208284031215610e5f575f80fd5b5035919050565b5f8060408385031215610e77575f80fd5b82359150610e8760208401610dd3565b90509250929050565b5f60208284031215610ea0575f80fd5b610d5182610dd3565b5f8060408385031215610eba575f80fd5b610ec383610dd3565b9150610e8760208401610dd3565b600181811c90821680610ee557607f821691505b602082108103610f0357634e487b7160e01b5f52602260045260245ffd5b50919050565b634e487b7160e01b5f52601160045260245ffd5b8082018082111561030c5761030c610f09565b7f416363657373436f6e74726f6c3a206163636f756e742000000000000000000081525f8351610f67816017850160208801610d7f565b7001034b99036b4b9b9b4b733903937b6329607d1b6017918401918201528351610f98816028840160208801610d7f565b01602801949350505050565b808202811582820484141761030c5761030c610f09565b634e487b7160e01b5f52604160045260245ffd5b634e487b7160e01b5f52603260045260245ffd5b5f81610ff157610ff1610f09565b505f19019056fea26469706673582212202b7c5f183362e6abfe0a2896ef6358bc8a228bba9b74843a4f4ef1f33c849fe964736f6c63430008180033",
					"opcodes": "PUSH1 0x80 PUSH1 0x40 MSTORE CALLVALUE DUP1 ISZERO PUSH3 0x10 JUMPI PUSH0 DUP1 REVERT JUMPDEST POP PUSH1 0x40 MLOAD PUSH3 0x1664 CODESIZE SUB DUP1 PUSH3 0x1664 DUP4 CODECOPY DUP2 ADD PUSH1 0x40 DUP2 SWAP1 MSTORE PUSH3 0x33 SWAP2 PUSH3 0x343 JUMP JUMPDEST PUSH1 0x40 MLOAD DUP1 PUSH1 0x40 ADD PUSH1 0x40 MSTORE DUP1 PUSH1 0x9 DUP2 MSTORE PUSH1 0x20 ADD PUSH9 0x233630B6B2B137B937 PUSH1 0xB9 SHL DUP2 MSTORE POP PUSH1 0x40 MLOAD DUP1 PUSH1 0x40 ADD PUSH1 0x40 MSTORE DUP1 PUSH1 0x3 DUP2 MSTORE PUSH1 0x20 ADD PUSH3 0x232621 PUSH1 0xE9 SHL DUP2 MSTORE POP DUP2 PUSH1 0x3 SWAP1 DUP2 PUSH3 0x82 SWAP2 SWAP1 PUSH3 0x40F JUMP JUMPDEST POP PUSH1 0x4 PUSH3 0x91 DUP3 DUP3 PUSH3 0x40F JUMP JUMPDEST POP POP POP PUSH1 0x1 PUSH1 0x1 PUSH1 0xA0 SHL SUB DUP2 AND PUSH3 0xF0 JUMPI PUSH1 0x40 MLOAD PUSH3 0x461BCD PUSH1 0xE5 SHL DUP2 MSTORE PUSH1 0x20 PUSH1 0x4 DUP3 ADD MSTORE PUSH1 0x18 PUSH1 0x24 DUP3 ADD MSTORE PUSH32 0x496E76616C6964206D756C746973696720616464726573730000000000000000 PUSH1 0x44 DUP3 ADD MSTORE PUSH1 0x64 ADD JUMPDEST PUSH1 0x40 MLOAD DUP1 SWAP2 SUB SWAP1 REVERT JUMPDEST PUSH3 0xFC PUSH0 DUP3 PUSH3 0x162 JUMP JUMPDEST PUSH3 0x128 PUSH32 0xA5A0B70B385FF7611CD3840916BD08B10829E5BF9E6637CF79DD9A427FC0E2AB DUP3 PUSH3 0x162 JUMP JUMPDEST PUSH3 0x14E DUP2 PUSH3 0x13B PUSH1 0x12 PUSH1 0xA PUSH3 0x5E8 JUMP JUMPDEST PUSH3 0x148 SWAP1 PUSH1 0x64 PUSH3 0x5F8 JUMP JUMPDEST PUSH3 0x1EC JUMP JUMPDEST POP PUSH1 0x6 DUP1 SLOAD PUSH1 0xFF NOT AND PUSH1 0x1 OR SWAP1 SSTORE PUSH3 0x628 JUMP JUMPDEST PUSH3 0x16E DUP3 DUP3 PUSH3 0x24D JUMP JUMPDEST PUSH3 0x1E8 JUMPI PUSH0 DUP3 DUP2 MSTORE PUSH1 0x5 PUSH1 0x20 SWAP1 DUP2 MSTORE PUSH1 0x40 DUP1 DUP4 KECCAK256 PUSH1 0x1 PUSH1 0x1 PUSH1 0xA0 SHL SUB DUP6 AND DUP5 MSTORE SWAP1 SWAP2 MSTORE SWAP1 KECCAK256 DUP1 SLOAD PUSH1 0xFF NOT AND PUSH1 0x1 OR SWAP1 SSTORE PUSH3 0x1A7 CALLER SWAP1 JUMP JUMPDEST PUSH1 0x1 PUSH1 0x1 PUSH1 0xA0 SHL SUB AND DUP2 PUSH1 0x1 PUSH1 0x1 PUSH1 0xA0 SHL SUB AND DUP4 PUSH32 0x2F8788117E7EFF1D82E926EC794901D17C78024A50270940304540A733656F0D PUSH1 0x40 MLOAD PUSH1 0x40 MLOAD DUP1 SWAP2 SUB SWAP1 LOG4 JUMPDEST POP POP JUMP JUMPDEST PUSH1 0x6 SLOAD PUSH1 0xFF AND ISZERO PUSH3 0x241 JUMPI PUSH1 0x40 MLOAD PUSH3 0x461BCD PUSH1 0xE5 SHL DUP2 MSTORE PUSH1 0x20 PUSH1 0x4 DUP3 ADD MSTORE PUSH1 0x1C PUSH1 0x24 DUP3 ADD MSTORE PUSH32 0x4D696E74696E672064697361626C6564207065726D616E656E746C7900000000 PUSH1 0x44 DUP3 ADD MSTORE PUSH1 0x64 ADD PUSH3 0xE7 JUMP JUMPDEST PUSH3 0x1E8 DUP3 DUP3 PUSH3 0x279 JUMP JUMPDEST PUSH0 DUP3 DUP2 MSTORE PUSH1 0x5 PUSH1 0x20 SWAP1 DUP2 MSTORE PUSH1 0x40 DUP1 DUP4 KECCAK256 PUSH1 0x1 PUSH1 0x1 PUSH1 0xA0 SHL SUB DUP6 AND DUP5 MSTORE SWAP1 SWAP2 MSTORE SWAP1 KECCAK256 SLOAD PUSH1 0xFF AND JUMPDEST SWAP3 SWAP2 POP POP JUMP JUMPDEST PUSH1 0x1 PUSH1 0x1 PUSH1 0xA0 SHL SUB DUP3 AND PUSH3 0x2D1 JUMPI PUSH1 0x40 MLOAD PUSH3 0x461BCD PUSH1 0xE5 SHL DUP2 MSTORE PUSH1 0x20 PUSH1 0x4 DUP3 ADD MSTORE PUSH1 0x1F PUSH1 0x24 DUP3 ADD MSTORE PUSH32 0x45524332303A206D696E7420746F20746865207A65726F206164647265737300 PUSH1 0x44 DUP3 ADD MSTORE PUSH1 0x64 ADD PUSH3 0xE7 JUMP JUMPDEST DUP1 PUSH1 0x2 PUSH0 DUP3 DUP3 SLOAD PUSH3 0x2E4 SWAP2 SWAP1 PUSH3 0x612 JUMP JUMPDEST SWAP1 SWAP2 SSTORE POP POP PUSH1 0x1 PUSH1 0x1 PUSH1 0xA0 SHL SUB DUP3 AND PUSH0 DUP2 DUP2 MSTORE PUSH1 0x20 DUP2 DUP2 MSTORE PUSH1 0x40 DUP1 DUP4 KECCAK256 DUP1 SLOAD DUP7 ADD SWAP1 SSTORE MLOAD DUP5 DUP2 MSTORE PUSH32 0xDDF252AD1BE2C89B69C2B068FC378DAA952BA7F163C4A11628F55A4DF523B3EF SWAP2 ADD PUSH1 0x40 MLOAD DUP1 SWAP2 SUB SWAP1 LOG3 PUSH3 0x1E8 PUSH0 DUP4 DUP4 JUMPDEST POP POP POP JUMP JUMPDEST PUSH0 PUSH1 0x20 DUP3 DUP5 SUB SLT ISZERO PUSH3 0x354 JUMPI PUSH0 DUP1 REVERT JUMPDEST DUP2 MLOAD PUSH1 0x1 PUSH1 0x1 PUSH1 0xA0 SHL SUB DUP2 AND DUP2 EQ PUSH3 0x36B JUMPI PUSH0 DUP1 REVERT JUMPDEST SWAP4 SWAP3 POP POP POP JUMP JUMPDEST PUSH4 0x4E487B71 PUSH1 0xE0 SHL PUSH0 MSTORE PUSH1 0x41 PUSH1 0x4 MSTORE PUSH1 0x24 PUSH0 REVERT JUMPDEST PUSH1 0x1 DUP2 DUP2 SHR SWAP1 DUP3 AND DUP1 PUSH3 0x39B JUMPI PUSH1 0x7F DUP3 AND SWAP2 POP JUMPDEST PUSH1 0x20 DUP3 LT DUP2 SUB PUSH3 0x3BA JUMPI PUSH4 0x4E487B71 PUSH1 0xE0 SHL PUSH0 MSTORE PUSH1 0x22 PUSH1 0x4 MSTORE PUSH1 0x24 PUSH0 REVERT JUMPDEST POP SWAP2 SWAP1 POP JUMP JUMPDEST PUSH1 0x1F DUP3 GT ISZERO PUSH3 0x33E JUMPI DUP1 PUSH0 MSTORE PUSH1 0x20 PUSH0 KECCAK256 PUSH1 0x1F DUP5 ADD PUSH1 0x5 SHR DUP2 ADD PUSH1 0x20 DUP6 LT ISZERO PUSH3 0x3E7 JUMPI POP DUP1 JUMPDEST PUSH1 0x1F DUP5 ADD PUSH1 0x5 SHR DUP3 ADD SWAP2 POP JUMPDEST DUP2 DUP2 LT ISZERO PUSH3 0x408 JUMPI PUSH0 DUP2 SSTORE PUSH1 0x1 ADD PUSH3 0x3F3 JUMP JUMPDEST POP POP POP POP POP JUMP JUMPDEST DUP2 MLOAD PUSH1 0x1 PUSH1 0x1 PUSH1 0x40 SHL SUB DUP2 GT ISZERO PUSH3 0x42B JUMPI PUSH3 0x42B PUSH3 0x372 JUMP JUMPDEST PUSH3 0x443 DUP2 PUSH3 0x43C DUP5 SLOAD PUSH3 0x386 JUMP JUMPDEST DUP5 PUSH3 0x3C0 JUMP JUMPDEST PUSH1 0x20 DUP1 PUSH1 0x1F DUP4 GT PUSH1 0x1 DUP2 EQ PUSH3 0x479 JUMPI PUSH0 DUP5 ISZERO PUSH3 0x461 JUMPI POP DUP6 DUP4 ADD MLOAD JUMPDEST PUSH0 NOT PUSH1 0x3 DUP7 SWAP1 SHL SHR NOT AND PUSH1 0x1 DUP6 SWAP1 SHL OR DUP6 SSTORE PUSH3 0x4D3 JUMP JUMPDEST PUSH0 DUP6 DUP2 MSTORE PUSH1 0x20 DUP2 KECCAK256 PUSH1 0x1F NOT DUP7 AND SWAP2 JUMPDEST DUP3 DUP2 LT ISZERO PUSH3 0x4A9 JUMPI DUP9 DUP7 ADD MLOAD DUP3 SSTORE SWAP5 DUP5 ADD SWAP5 PUSH1 0x1 SWAP1 SWAP2 ADD SWAP1 DUP5 ADD PUSH3 0x488 JUMP JUMPDEST POP DUP6 DUP3 LT ISZERO PUSH3 0x4C7 JUMPI DUP8 DUP6 ADD MLOAD PUSH0 NOT PUSH1 0x3 DUP9 SWAP1 SHL PUSH1 0xF8 AND SHR NOT AND DUP2 SSTORE JUMPDEST POP POP PUSH1 0x1 DUP5 PUSH1 0x1 SHL ADD DUP6 SSTORE JUMPDEST POP POP POP POP POP POP JUMP JUMPDEST PUSH4 0x4E487B71 PUSH1 0xE0 SHL PUSH0 MSTORE PUSH1 0x11 PUSH1 0x4 MSTORE PUSH1 0x24 PUSH0 REVERT JUMPDEST PUSH1 0x1 DUP2 DUP2 JUMPDEST DUP1 DUP6 GT ISZERO PUSH3 0x52F JUMPI DUP2 PUSH0 NOT DIV DUP3 GT ISZERO PUSH3 0x513 JUMPI PUSH3 0x513 PUSH3 0x4DB JUMP JUMPDEST DUP1 DUP6 AND ISZERO PUSH3 0x521 JUMPI SWAP2 DUP2 MUL SWAP2 JUMPDEST SWAP4 DUP5 SHR SWAP4 SWAP1 DUP1 MUL SWAP1 PUSH3 0x4F4 JUMP JUMPDEST POP SWAP3 POP SWAP3 SWAP1 POP JUMP JUMPDEST PUSH0 DUP3 PUSH3 0x547 JUMPI POP PUSH1 0x1 PUSH3 0x273 JUMP JUMPDEST DUP2 PUSH3 0x555 JUMPI POP PUSH0 PUSH3 0x273 JUMP JUMPDEST DUP2 PUSH1 0x1 DUP2 EQ PUSH3 0x56E JUMPI PUSH1 0x2 DUP2 EQ PUSH3 0x579 JUMPI PUSH3 0x599 JUMP JUMPDEST PUSH1 0x1 SWAP2 POP POP PUSH3 0x273 JUMP JUMPDEST PUSH1 0xFF DUP5 GT ISZERO PUSH3 0x58D JUMPI PUSH3 0x58D PUSH3 0x4DB JUMP JUMPDEST POP POP PUSH1 0x1 DUP3 SHL PUSH3 0x273 JUMP JUMPDEST POP PUSH1 0x20 DUP4 LT PUSH2 0x133 DUP4 LT AND PUSH1 0x4E DUP5 LT PUSH1 0xB DUP5 LT AND OR ISZERO PUSH3 0x5BE JUMPI POP DUP2 DUP2 EXP PUSH3 0x273 JUMP JUMPDEST PUSH3 0x5CA DUP4 DUP4 PUSH3 0x4EF JUMP JUMPDEST DUP1 PUSH0 NOT DIV DUP3 GT ISZERO PUSH3 0x5E0 JUMPI PUSH3 0x5E0 PUSH3 0x4DB JUMP JUMPDEST MUL SWAP4 SWAP3 POP POP POP JUMP JUMPDEST PUSH0 PUSH3 0x36B PUSH1 0xFF DUP5 AND DUP4 PUSH3 0x537 JUMP JUMPDEST DUP1 DUP3 MUL DUP2 ISZERO DUP3 DUP3 DIV DUP5 EQ OR PUSH3 0x273 JUMPI PUSH3 0x273 PUSH3 0x4DB JUMP JUMPDEST DUP1 DUP3 ADD DUP1 DUP3 GT ISZERO PUSH3 0x273 JUMPI PUSH3 0x273 PUSH3 0x4DB JUMP JUMPDEST PUSH2 0x102E DUP1 PUSH3 0x636 PUSH0 CODECOPY PUSH0 RETURN INVALID PUSH1 0x80 PUSH1 0x40 MSTORE CALLVALUE DUP1 ISZERO PUSH2 0xF JUMPI PUSH0 DUP1 REVERT JUMPDEST POP PUSH1 0x4 CALLDATASIZE LT PUSH2 0x127 JUMPI PUSH0 CALLDATALOAD PUSH1 0xE0 SHR DUP1 PUSH4 0x70A08231 GT PUSH2 0xA9 JUMPI DUP1 PUSH4 0xA457C2D7 GT PUSH2 0x6E JUMPI DUP1 PUSH4 0xA457C2D7 EQ PUSH2 0x269 JUMPI DUP1 PUSH4 0xA9059CBB EQ PUSH2 0x27C JUMPI DUP1 PUSH4 0xD547741F EQ PUSH2 0x28F JUMPI DUP1 PUSH4 0xDD62ED3E EQ PUSH2 0x2A2 JUMPI DUP1 PUSH4 0xE328400C EQ PUSH2 0x2B5 JUMPI PUSH0 DUP1 REVERT JUMPDEST DUP1 PUSH4 0x70A08231 EQ PUSH2 0x20C JUMPI DUP1 PUSH4 0x91D14854 EQ PUSH2 0x234 JUMPI DUP1 PUSH4 0x95D89B41 EQ PUSH2 0x247 JUMPI DUP1 PUSH4 0x9DC29FAC EQ PUSH2 0x24F JUMPI DUP1 PUSH4 0xA217FDDF EQ PUSH2 0x262 JUMPI PUSH0 DUP1 REVERT JUMPDEST DUP1 PUSH4 0x248A9CA3 GT PUSH2 0xEF JUMPI DUP1 PUSH4 0x248A9CA3 EQ PUSH2 0x1A0 JUMPI DUP1 PUSH4 0x2F2FF15D EQ PUSH2 0x1C2 JUMPI DUP1 PUSH4 0x313CE567 EQ PUSH2 0x1D7 JUMPI DUP1 PUSH4 0x36568ABE EQ PUSH2 0x1E6 JUMPI DUP1 PUSH4 0x39509351 EQ PUSH2 0x1F9 JUMPI PUSH0 DUP1 REVERT JUMPDEST DUP1 PUSH4 0x1FFC9A7 EQ PUSH2 0x12B JUMPI DUP1 PUSH4 0x6FDDE03 EQ PUSH2 0x153 JUMPI DUP1 PUSH4 0x95EA7B3 EQ PUSH2 0x168 JUMPI DUP1 PUSH4 0x18160DDD EQ PUSH2 0x17B JUMPI DUP1 PUSH4 0x23B872DD EQ PUSH2 0x18D JUMPI JUMPDEST PUSH0 DUP1 REVERT JUMPDEST PUSH2 0x13E PUSH2 0x139 CALLDATASIZE PUSH1 0x4 PUSH2 0xD58 JUMP JUMPDEST PUSH2 0x2DC JUMP JUMPDEST PUSH1 0x40 MLOAD SWAP1 ISZERO ISZERO DUP2 MSTORE PUSH1 0x20 ADD JUMPDEST PUSH1 0x40 MLOAD DUP1 SWAP2 SUB SWAP1 RETURN JUMPDEST PUSH2 0x15B PUSH2 0x312 JUMP JUMPDEST PUSH1 0x40 MLOAD PUSH2 0x14A SWAP2 SWAP1 PUSH2 0xDA1 JUMP JUMPDEST PUSH2 0x13E PUSH2 0x176 CALLDATASIZE PUSH1 0x4 PUSH2 0xDEE JUMP JUMPDEST PUSH2 0x3A2 JUMP JUMPDEST PUSH1 0x2 SLOAD JUMPDEST PUSH1 0x40 MLOAD SWAP1 DUP2 MSTORE PUSH1 0x20 ADD PUSH2 0x14A JUMP JUMPDEST PUSH2 0x13E PUSH2 0x19B CALLDATASIZE PUSH1 0x4 PUSH2 0xE16 JUMP JUMPDEST PUSH2 0x3B9 JUMP JUMPDEST PUSH2 0x17F PUSH2 0x1AE CALLDATASIZE PUSH1 0x4 PUSH2 0xE4F JUMP JUMPDEST PUSH0 SWAP1 DUP2 MSTORE PUSH1 0x5 PUSH1 0x20 MSTORE PUSH1 0x40 SWAP1 KECCAK256 PUSH1 0x1 ADD SLOAD SWAP1 JUMP JUMPDEST PUSH2 0x1D5 PUSH2 0x1D0 CALLDATASIZE PUSH1 0x4 PUSH2 0xE66 JUMP JUMPDEST PUSH2 0x3DC JUMP JUMPDEST STOP JUMPDEST PUSH1 0x40 MLOAD PUSH1 0x12 DUP2 MSTORE PUSH1 0x20 ADD PUSH2 0x14A JUMP JUMPDEST PUSH2 0x1D5 PUSH2 0x1F4 CALLDATASIZE PUSH1 0x4 PUSH2 0xE66 JUMP JUMPDEST PUSH2 0x405 JUMP JUMPDEST PUSH2 0x13E PUSH2 0x207 CALLDATASIZE PUSH1 0x4 PUSH2 0xDEE JUMP JUMPDEST PUSH2 0x488 JUMP JUMPDEST PUSH2 0x17F PUSH2 0x21A CALLDATASIZE PUSH1 0x4 PUSH2 0xE90 JUMP JUMPDEST PUSH1 0x1 PUSH1 0x1 PUSH1 0xA0 SHL SUB AND PUSH0 SWAP1 DUP2 MSTORE PUSH1 0x20 DUP2 SWAP1 MSTORE PUSH1 0x40 SWAP1 KECCAK256 SLOAD SWAP1 JUMP JUMPDEST PUSH2 0x13E PUSH2 0x242 CALLDATASIZE PUSH1 0x4 PUSH2 0xE66 JUMP JUMPDEST PUSH2 0x4A9 JUMP JUMPDEST PUSH2 0x15B PUSH2 0x4D3 JUMP JUMPDEST PUSH2 0x1D5 PUSH2 0x25D CALLDATASIZE PUSH1 0x4 PUSH2 0xDEE JUMP JUMPDEST PUSH2 0x4E2 JUMP JUMPDEST PUSH2 0x17F PUSH0 DUP2 JUMP JUMPDEST PUSH2 0x13E PUSH2 0x277 CALLDATASIZE PUSH1 0x4 PUSH2 0xDEE JUMP JUMPDEST PUSH2 0x516 JUMP JUMPDEST PUSH2 0x13E PUSH2 0x28A CALLDATASIZE PUSH1 0x4 PUSH2 0xDEE JUMP JUMPDEST PUSH2 0x590 JUMP JUMPDEST PUSH2 0x1D5 PUSH2 0x29D CALLDATASIZE PUSH1 0x4 PUSH2 0xE66 JUMP JUMPDEST PUSH2 0x59D JUMP JUMPDEST PUSH2 0x17F PUSH2 0x2B0 CALLDATASIZE PUSH1 0x4 PUSH2 0xEA9 JUMP JUMPDEST PUSH2 0x5C1 JUMP JUMPDEST PUSH2 0x17F PUSH32 0xA5A0B70B385FF7611CD3840916BD08B10829E5BF9E6637CF79DD9A427FC0E2AB DUP2 JUMP JUMPDEST PUSH0 PUSH1 0x1 PUSH1 0x1 PUSH1 0xE0 SHL SUB NOT DUP3 AND PUSH4 0x7965DB0B PUSH1 0xE0 SHL EQ DUP1 PUSH2 0x30C JUMPI POP PUSH4 0x1FFC9A7 PUSH1 0xE0 SHL PUSH1 0x1 PUSH1 0x1 PUSH1 0xE0 SHL SUB NOT DUP4 AND EQ JUMPDEST SWAP3 SWAP2 POP POP JUMP JUMPDEST PUSH1 0x60 PUSH1 0x3 DUP1 SLOAD PUSH2 0x321 SWAP1 PUSH2 0xED1 JUMP JUMPDEST DUP1 PUSH1 0x1F ADD PUSH1 0x20 DUP1 SWAP2 DIV MUL PUSH1 0x20 ADD PUSH1 0x40 MLOAD SWAP1 DUP2 ADD PUSH1 0x40 MSTORE DUP1 SWAP3 SWAP2 SWAP1 DUP2 DUP2 MSTORE PUSH1 0x20 ADD DUP3 DUP1 SLOAD PUSH2 0x34D SWAP1 PUSH2 0xED1 JUMP JUMPDEST DUP1 ISZERO PUSH2 0x398 JUMPI DUP1 PUSH1 0x1F LT PUSH2 0x36F JUMPI PUSH2 0x100 DUP1 DUP4 SLOAD DIV MUL DUP4 MSTORE SWAP2 PUSH1 0x20 ADD SWAP2 PUSH2 0x398 JUMP JUMPDEST DUP3 ADD SWAP2 SWAP1 PUSH0 MSTORE PUSH1 0x20 PUSH0 KECCAK256 SWAP1 JUMPDEST DUP2 SLOAD DUP2 MSTORE SWAP1 PUSH1 0x1 ADD SWAP1 PUSH1 0x20 ADD DUP1 DUP4 GT PUSH2 0x37B JUMPI DUP3 SWAP1 SUB PUSH1 0x1F AND DUP3 ADD SWAP2 JUMPDEST POP POP POP POP POP SWAP1 POP SWAP1 JUMP JUMPDEST PUSH0 CALLER PUSH2 0x3AF DUP2 DUP6 DUP6 PUSH2 0x5EB JUMP JUMPDEST POP PUSH1 0x1 SWAP4 SWAP3 POP POP POP JUMP JUMPDEST PUSH0 CALLER PUSH2 0x3C6 DUP6 DUP3 DUP6 PUSH2 0x70E JUMP JUMPDEST PUSH2 0x3D1 DUP6 DUP6 DUP6 PUSH2 0x786 JUMP JUMPDEST POP PUSH1 0x1 SWAP5 SWAP4 POP POP POP POP JUMP JUMPDEST PUSH0 DUP3 DUP2 MSTORE PUSH1 0x5 PUSH1 0x20 MSTORE PUSH1 0x40 SWAP1 KECCAK256 PUSH1 0x1 ADD SLOAD PUSH2 0x3F6 DUP2 PUSH2 0x928 JUMP JUMPDEST PUSH2 0x400 DUP4 DUP4 PUSH2 0x935 JUMP JUMPDEST POP POP POP JUMP JUMPDEST PUSH1 0x1 PUSH1 0x1 PUSH1 0xA0 SHL SUB DUP2 AND CALLER EQ PUSH2 0x47A JUMPI PUSH1 0x40 MLOAD PUSH3 0x461BCD PUSH1 0xE5 SHL DUP2 MSTORE PUSH1 0x20 PUSH1 0x4 DUP3 ADD MSTORE PUSH1 0x2F PUSH1 0x24 DUP3 ADD MSTORE PUSH32 0x416363657373436F6E74726F6C3A2063616E206F6E6C792072656E6F756E6365 PUSH1 0x44 DUP3 ADD MSTORE PUSH15 0x103937B632B9903337B91039B2B633 PUSH1 0x89 SHL PUSH1 0x64 DUP3 ADD MSTORE PUSH1 0x84 ADD JUMPDEST PUSH1 0x40 MLOAD DUP1 SWAP2 SUB SWAP1 REVERT JUMPDEST PUSH2 0x484 DUP3 DUP3 PUSH2 0x9BA JUMP JUMPDEST POP POP JUMP JUMPDEST PUSH0 CALLER PUSH2 0x3AF DUP2 DUP6 DUP6 PUSH2 0x49A DUP4 DUP4 PUSH2 0x5C1 JUMP JUMPDEST PUSH2 0x4A4 SWAP2 SWAP1 PUSH2 0xF1D JUMP JUMPDEST PUSH2 0x5EB JUMP JUMPDEST PUSH0 SWAP2 DUP3 MSTORE PUSH1 0x5 PUSH1 0x20 SWAP1 DUP2 MSTORE PUSH1 0x40 DUP1 DUP5 KECCAK256 PUSH1 0x1 PUSH1 0x1 PUSH1 0xA0 SHL SUB SWAP4 SWAP1 SWAP4 AND DUP5 MSTORE SWAP2 SWAP1 MSTORE SWAP1 KECCAK256 SLOAD PUSH1 0xFF AND SWAP1 JUMP JUMPDEST PUSH1 0x60 PUSH1 0x4 DUP1 SLOAD PUSH2 0x321 SWAP1 PUSH2 0xED1 JUMP JUMPDEST PUSH32 0xA5A0B70B385FF7611CD3840916BD08B10829E5BF9E6637CF79DD9A427FC0E2AB PUSH2 0x50C DUP2 PUSH2 0x928 JUMP JUMPDEST PUSH2 0x400 DUP4 DUP4 PUSH2 0xA20 JUMP JUMPDEST PUSH0 CALLER DUP2 PUSH2 0x523 DUP3 DUP7 PUSH2 0x5C1 JUMP JUMPDEST SWAP1 POP DUP4 DUP2 LT ISZERO PUSH2 0x583 JUMPI PUSH1 0x40 MLOAD PUSH3 0x461BCD PUSH1 0xE5 SHL DUP2 MSTORE PUSH1 0x20 PUSH1 0x4 DUP3 ADD MSTORE PUSH1 0x25 PUSH1 0x24 DUP3 ADD MSTORE PUSH32 0x45524332303A2064656372656173656420616C6C6F77616E63652062656C6F77 PUSH1 0x44 DUP3 ADD MSTORE PUSH5 0x207A65726F PUSH1 0xD8 SHL PUSH1 0x64 DUP3 ADD MSTORE PUSH1 0x84 ADD PUSH2 0x471 JUMP JUMPDEST PUSH2 0x3D1 DUP3 DUP7 DUP7 DUP5 SUB PUSH2 0x5EB JUMP JUMPDEST PUSH0 CALLER PUSH2 0x3AF DUP2 DUP6 DUP6 PUSH2 0x786 JUMP JUMPDEST PUSH0 DUP3 DUP2 MSTORE PUSH1 0x5 PUSH1 0x20 MSTORE PUSH1 0x40 SWAP1 KECCAK256 PUSH1 0x1 ADD SLOAD PUSH2 0x5B7 DUP2 PUSH2 0x928 JUMP JUMPDEST PUSH2 0x400 DUP4 DUP4 PUSH2 0x9BA JUMP JUMPDEST PUSH1 0x1 PUSH1 0x1 PUSH1 0xA0 SHL SUB SWAP2 DUP3 AND PUSH0 SWAP1 DUP2 MSTORE PUSH1 0x1 PUSH1 0x20 SWAP1 DUP2 MSTORE PUSH1 0x40 DUP1 DUP4 KECCAK256 SWAP4 SWAP1 SWAP5 AND DUP3 MSTORE SWAP2 SWAP1 SWAP2 MSTORE KECCAK256 SLOAD SWAP1 JUMP JUMPDEST PUSH1 0x1 PUSH1 0x1 PUSH1 0xA0 SHL SUB DUP4 AND PUSH2 0x64D JUMPI PUSH1 0x40 MLOAD PUSH3 0x461BCD PUSH1 0xE5 SHL DUP2 MSTORE PUSH1 0x20 PUSH1 0x4 DUP3 ADD MSTORE PUSH1 0x24 DUP1 DUP3 ADD MSTORE PUSH32 0x45524332303A20617070726F76652066726F6D20746865207A65726F20616464 PUSH1 0x44 DUP3 ADD MSTORE PUSH4 0x72657373 PUSH1 0xE0 SHL PUSH1 0x64 DUP3 ADD MSTORE PUSH1 0x84 ADD PUSH2 0x471 JUMP JUMPDEST PUSH1 0x1 PUSH1 0x1 PUSH1 0xA0 SHL SUB DUP3 AND PUSH2 0x6AE JUMPI PUSH1 0x40 MLOAD PUSH3 0x461BCD PUSH1 0xE5 SHL DUP2 MSTORE PUSH1 0x20 PUSH1 0x4 DUP3 ADD MSTORE PUSH1 0x22 PUSH1 0x24 DUP3 ADD MSTORE PUSH32 0x45524332303A20617070726F766520746F20746865207A65726F206164647265 PUSH1 0x44 DUP3 ADD MSTORE PUSH2 0x7373 PUSH1 0xF0 SHL PUSH1 0x64 DUP3 ADD MSTORE PUSH1 0x84 ADD PUSH2 0x471 JUMP JUMPDEST PUSH1 0x1 PUSH1 0x1 PUSH1 0xA0 SHL SUB DUP4 DUP2 AND PUSH0 DUP2 DUP2 MSTORE PUSH1 0x1 PUSH1 0x20 SWAP1 DUP2 MSTORE PUSH1 0x40 DUP1 DUP4 KECCAK256 SWAP5 DUP8 AND DUP1 DUP5 MSTORE SWAP5 DUP3 MSTORE SWAP2 DUP3 SWAP1 KECCAK256 DUP6 SWAP1 SSTORE SWAP1 MLOAD DUP5 DUP2 MSTORE PUSH32 0x8C5BE1E5EBEC7D5BD14F71427D1E84F3DD0314C0F7B2291E5B200AC8C7C3B925 SWAP2 ADD PUSH1 0x40 MLOAD DUP1 SWAP2 SUB SWAP1 LOG3 POP POP POP JUMP JUMPDEST PUSH0 PUSH2 0x719 DUP5 DUP5 PUSH2 0x5C1 JUMP JUMPDEST SWAP1 POP PUSH0 NOT DUP2 EQ PUSH2 0x780 JUMPI DUP2 DUP2 LT ISZERO PUSH2 0x773 JUMPI PUSH1 0x40 MLOAD PUSH3 0x461BCD PUSH1 0xE5 SHL DUP2 MSTORE PUSH1 0x20 PUSH1 0x4 DUP3 ADD MSTORE PUSH1 0x1D PUSH1 0x24 DUP3 ADD MSTORE PUSH32 0x45524332303A20696E73756666696369656E7420616C6C6F77616E6365000000 PUSH1 0x44 DUP3 ADD MSTORE PUSH1 0x64 ADD PUSH2 0x471 JUMP JUMPDEST PUSH2 0x780 DUP5 DUP5 DUP5 DUP5 SUB PUSH2 0x5EB JUMP JUMPDEST POP POP POP POP JUMP JUMPDEST PUSH1 0x1 PUSH1 0x1 PUSH1 0xA0 SHL SUB DUP4 AND PUSH2 0x7EA JUMPI PUSH1 0x40 MLOAD PUSH3 0x461BCD PUSH1 0xE5 SHL DUP2 MSTORE PUSH1 0x20 PUSH1 0x4 DUP3 ADD MSTORE PUSH1 0x25 PUSH1 0x24 DUP3 ADD MSTORE PUSH32 0x45524332303A207472616E736665722066726F6D20746865207A65726F206164 PUSH1 0x44 DUP3 ADD MSTORE PUSH5 0x6472657373 PUSH1 0xD8 SHL PUSH1 0x64 DUP3 ADD MSTORE PUSH1 0x84 ADD PUSH2 0x471 JUMP JUMPDEST PUSH1 0x1 PUSH1 0x1 PUSH1 0xA0 SHL SUB DUP3 AND PUSH2 0x84C JUMPI PUSH1 0x40 MLOAD PUSH3 0x461BCD PUSH1 0xE5 SHL DUP2 MSTORE PUSH1 0x20 PUSH1 0x4 DUP3 ADD MSTORE PUSH1 0x23 PUSH1 0x24 DUP3 ADD MSTORE PUSH32 0x45524332303A207472616E7366657220746F20746865207A65726F2061646472 PUSH1 0x44 DUP3 ADD MSTORE PUSH3 0x657373 PUSH1 0xE8 SHL PUSH1 0x64 DUP3 ADD MSTORE PUSH1 0x84 ADD PUSH2 0x471 JUMP JUMPDEST PUSH1 0x1 PUSH1 0x1 PUSH1 0xA0 SHL SUB DUP4 AND PUSH0 SWAP1 DUP2 MSTORE PUSH1 0x20 DUP2 SWAP1 MSTORE PUSH1 0x40 SWAP1 KECCAK256 SLOAD DUP2 DUP2 LT ISZERO PUSH2 0x8C3 JUMPI PUSH1 0x40 MLOAD PUSH3 0x461BCD PUSH1 0xE5 SHL DUP2 MSTORE PUSH1 0x20 PUSH1 0x4 DUP3 ADD MSTORE PUSH1 0x26 PUSH1 0x24 DUP3 ADD MSTORE PUSH32 0x45524332303A207472616E7366657220616D6F756E7420657863656564732062 PUSH1 0x44 DUP3 ADD MSTORE PUSH6 0x616C616E6365 PUSH1 0xD0 SHL PUSH1 0x64 DUP3 ADD MSTORE PUSH1 0x84 ADD PUSH2 0x471 JUMP JUMPDEST PUSH1 0x1 PUSH1 0x1 PUSH1 0xA0 SHL SUB DUP5 DUP2 AND PUSH0 DUP2 DUP2 MSTORE PUSH1 0x20 DUP2 DUP2 MSTORE PUSH1 0x40 DUP1 DUP4 KECCAK256 DUP8 DUP8 SUB SWAP1 SSTORE SWAP4 DUP8 AND DUP1 DUP4 MSTORE SWAP2 DUP5 SWAP1 KECCAK256 DUP1 SLOAD DUP8 ADD SWAP1 SSTORE SWAP3 MLOAD DUP6 DUP2 MSTORE SWAP1 SWAP3 PUSH32 0xDDF252AD1BE2C89B69C2B068FC378DAA952BA7F163C4A11628F55A4DF523B3EF SWAP2 ADD PUSH1 0x40 MLOAD DUP1 SWAP2 SUB SWAP1 LOG3 PUSH2 0x780 JUMP JUMPDEST PUSH2 0x932 DUP2 CALLER PUSH2 0xB50 JUMP JUMPDEST POP JUMP JUMPDEST PUSH2 0x93F DUP3 DUP3 PUSH2 0x4A9 JUMP JUMPDEST PUSH2 0x484 JUMPI PUSH0 DUP3 DUP2 MSTORE PUSH1 0x5 PUSH1 0x20 SWAP1 DUP2 MSTORE PUSH1 0x40 DUP1 DUP4 KECCAK256 PUSH1 0x1 PUSH1 0x1 PUSH1 0xA0 SHL SUB DUP6 AND DUP5 MSTORE SWAP1 SWAP2 MSTORE SWAP1 KECCAK256 DUP1 SLOAD PUSH1 0xFF NOT AND PUSH1 0x1 OR SWAP1 SSTORE PUSH2 0x976 CALLER SWAP1 JUMP JUMPDEST PUSH1 0x1 PUSH1 0x1 PUSH1 0xA0 SHL SUB AND DUP2 PUSH1 0x1 PUSH1 0x1 PUSH1 0xA0 SHL SUB AND DUP4 PUSH32 0x2F8788117E7EFF1D82E926EC794901D17C78024A50270940304540A733656F0D PUSH1 0x40 MLOAD PUSH1 0x40 MLOAD DUP1 SWAP2 SUB SWAP1 LOG4 POP POP JUMP JUMPDEST PUSH2 0x9C4 DUP3 DUP3 PUSH2 0x4A9 JUMP JUMPDEST ISZERO PUSH2 0x484 JUMPI PUSH0 DUP3 DUP2 MSTORE PUSH1 0x5 PUSH1 0x20 SWAP1 DUP2 MSTORE PUSH1 0x40 DUP1 DUP4 KECCAK256 PUSH1 0x1 PUSH1 0x1 PUSH1 0xA0 SHL SUB DUP6 AND DUP1 DUP6 MSTORE SWAP3 MSTORE DUP1 DUP4 KECCAK256 DUP1 SLOAD PUSH1 0xFF NOT AND SWAP1 SSTORE MLOAD CALLER SWAP3 DUP6 SWAP2 PUSH32 0xF6391F5C32D9C69D2A47EA670B442974B53935D1EDC7FD64EB21E047A839171B SWAP2 SWAP1 LOG4 POP POP JUMP JUMPDEST PUSH1 0x1 PUSH1 0x1 PUSH1 0xA0 SHL SUB DUP3 AND PUSH2 0xA80 JUMPI PUSH1 0x40 MLOAD PUSH3 0x461BCD PUSH1 0xE5 SHL DUP2 MSTORE PUSH1 0x20 PUSH1 0x4 DUP3 ADD MSTORE PUSH1 0x21 PUSH1 0x24 DUP3 ADD MSTORE PUSH32 0x45524332303A206275726E2066726F6D20746865207A65726F20616464726573 PUSH1 0x44 DUP3 ADD MSTORE PUSH1 0x73 PUSH1 0xF8 SHL PUSH1 0x64 DUP3 ADD MSTORE PUSH1 0x84 ADD PUSH2 0x471 JUMP JUMPDEST PUSH1 0x1 PUSH1 0x1 PUSH1 0xA0 SHL SUB DUP3 AND PUSH0 SWAP1 DUP2 MSTORE PUSH1 0x20 DUP2 SWAP1 MSTORE PUSH1 0x40 SWAP1 KECCAK256 SLOAD DUP2 DUP2 LT ISZERO PUSH2 0xAF3 JUMPI PUSH1 0x40 MLOAD PUSH3 0x461BCD PUSH1 0xE5 SHL DUP2 MSTORE PUSH1 0x20 PUSH1 0x4 DUP3 ADD MSTORE PUSH1 0x22 PUSH1 0x24 DUP3 ADD MSTORE PUSH32 0x45524332303A206275726E20616D6F756E7420657863656564732062616C616E PUSH1 0x44 DUP3 ADD MSTORE PUSH2 0x6365 PUSH1 0xF0 SHL PUSH1 0x64 DUP3 ADD MSTORE PUSH1 0x84 ADD PUSH2 0x471 JUMP JUMPDEST PUSH1 0x1 PUSH1 0x1 PUSH1 0xA0 SHL SUB DUP4 AND PUSH0 DUP2 DUP2 MSTORE PUSH1 0x20 DUP2 DUP2 MSTORE PUSH1 0x40 DUP1 DUP4 KECCAK256 DUP7 DUP7 SUB SWAP1 SSTORE PUSH1 0x2 DUP1 SLOAD DUP8 SWAP1 SUB SWAP1 SSTORE MLOAD DUP6 DUP2 MSTORE SWAP2 SWAP3 SWAP2 PUSH32 0xDDF252AD1BE2C89B69C2B068FC378DAA952BA7F163C4A11628F55A4DF523B3EF SWAP2 ADD PUSH1 0x40 MLOAD DUP1 SWAP2 SUB SWAP1 LOG3 POP POP POP JUMP JUMPDEST PUSH2 0xB5A DUP3 DUP3 PUSH2 0x4A9 JUMP JUMPDEST PUSH2 0x484 JUMPI PUSH2 0xB67 DUP2 PUSH2 0xBA9 JUMP JUMPDEST PUSH2 0xB72 DUP4 PUSH1 0x20 PUSH2 0xBBB JUMP JUMPDEST PUSH1 0x40 MLOAD PUSH1 0x20 ADD PUSH2 0xB83 SWAP3 SWAP2 SWAP1 PUSH2 0xF30 JUMP JUMPDEST PUSH1 0x40 DUP1 MLOAD PUSH1 0x1F NOT DUP2 DUP5 SUB ADD DUP2 MSTORE SWAP1 DUP3 SWAP1 MSTORE PUSH3 0x461BCD PUSH1 0xE5 SHL DUP3 MSTORE PUSH2 0x471 SWAP2 PUSH1 0x4 ADD PUSH2 0xDA1 JUMP JUMPDEST PUSH1 0x60 PUSH2 0x30C PUSH1 0x1 PUSH1 0x1 PUSH1 0xA0 SHL SUB DUP4 AND PUSH1 0x14 JUMPDEST PUSH1 0x60 PUSH0 PUSH2 0xBC9 DUP4 PUSH1 0x2 PUSH2 0xFA4 JUMP JUMPDEST PUSH2 0xBD4 SWAP1 PUSH1 0x2 PUSH2 0xF1D JUMP JUMPDEST PUSH8 0xFFFFFFFFFFFFFFFF DUP2 GT ISZERO PUSH2 0xBEC JUMPI PUSH2 0xBEC PUSH2 0xFBB JUMP JUMPDEST PUSH1 0x40 MLOAD SWAP1 DUP1 DUP3 MSTORE DUP1 PUSH1 0x1F ADD PUSH1 0x1F NOT AND PUSH1 0x20 ADD DUP3 ADD PUSH1 0x40 MSTORE DUP1 ISZERO PUSH2 0xC16 JUMPI PUSH1 0x20 DUP3 ADD DUP2 DUP1 CALLDATASIZE DUP4 CALLDATACOPY ADD SWAP1 POP JUMPDEST POP SWAP1 POP PUSH1 0x3 PUSH1 0xFC SHL DUP2 PUSH0 DUP2 MLOAD DUP2 LT PUSH2 0xC30 JUMPI PUSH2 0xC30 PUSH2 0xFCF JUMP JUMPDEST PUSH1 0x20 ADD ADD SWAP1 PUSH1 0x1 PUSH1 0x1 PUSH1 0xF8 SHL SUB NOT AND SWAP1 DUP2 PUSH0 BYTE SWAP1 MSTORE8 POP PUSH1 0xF PUSH1 0xFB SHL DUP2 PUSH1 0x1 DUP2 MLOAD DUP2 LT PUSH2 0xC5E JUMPI PUSH2 0xC5E PUSH2 0xFCF JUMP JUMPDEST PUSH1 0x20 ADD ADD SWAP1 PUSH1 0x1 PUSH1 0x1 PUSH1 0xF8 SHL SUB NOT AND SWAP1 DUP2 PUSH0 BYTE SWAP1 MSTORE8 POP PUSH0 PUSH2 0xC80 DUP5 PUSH1 0x2 PUSH2 0xFA4 JUMP JUMPDEST PUSH2 0xC8B SWAP1 PUSH1 0x1 PUSH2 0xF1D JUMP JUMPDEST SWAP1 POP JUMPDEST PUSH1 0x1 DUP2 GT ISZERO PUSH2 0xD02 JUMPI PUSH16 0x181899199A1A9B1B9C1CB0B131B232B3 PUSH1 0x81 SHL DUP6 PUSH1 0xF AND PUSH1 0x10 DUP2 LT PUSH2 0xCBF JUMPI PUSH2 0xCBF PUSH2 0xFCF JUMP JUMPDEST BYTE PUSH1 0xF8 SHL DUP3 DUP3 DUP2 MLOAD DUP2 LT PUSH2 0xCD5 JUMPI PUSH2 0xCD5 PUSH2 0xFCF JUMP JUMPDEST PUSH1 0x20 ADD ADD SWAP1 PUSH1 0x1 PUSH1 0x1 PUSH1 0xF8 SHL SUB NOT AND SWAP1 DUP2 PUSH0 BYTE SWAP1 MSTORE8 POP PUSH1 0x4 SWAP5 SWAP1 SWAP5 SHR SWAP4 PUSH2 0xCFB DUP2 PUSH2 0xFE3 JUMP JUMPDEST SWAP1 POP PUSH2 0xC8E JUMP JUMPDEST POP DUP4 ISZERO PUSH2 0xD51 JUMPI PUSH1 0x40 MLOAD PUSH3 0x461BCD PUSH1 0xE5 SHL DUP2 MSTORE PUSH1 0x20 PUSH1 0x4 DUP3 ADD DUP2 SWAP1 MSTORE PUSH1 0x24 DUP3 ADD MSTORE PUSH32 0x537472696E67733A20686578206C656E67746820696E73756666696369656E74 PUSH1 0x44 DUP3 ADD MSTORE PUSH1 0x64 ADD PUSH2 0x471 JUMP JUMPDEST SWAP4 SWAP3 POP POP POP JUMP JUMPDEST PUSH0 PUSH1 0x20 DUP3 DUP5 SUB SLT ISZERO PUSH2 0xD68 JUMPI PUSH0 DUP1 REVERT JUMPDEST DUP2 CALLDATALOAD PUSH1 0x1 PUSH1 0x1 PUSH1 0xE0 SHL SUB NOT DUP2 AND DUP2 EQ PUSH2 0xD51 JUMPI PUSH0 DUP1 REVERT JUMPDEST PUSH0 JUMPDEST DUP4 DUP2 LT ISZERO PUSH2 0xD99 JUMPI DUP2 DUP2 ADD MLOAD DUP4 DUP3 ADD MSTORE PUSH1 0x20 ADD PUSH2 0xD81 JUMP JUMPDEST POP POP PUSH0 SWAP2 ADD MSTORE JUMP JUMPDEST PUSH1 0x20 DUP2 MSTORE PUSH0 DUP3 MLOAD DUP1 PUSH1 0x20 DUP5 ADD MSTORE PUSH2 0xDBF DUP2 PUSH1 0x40 DUP6 ADD PUSH1 0x20 DUP8 ADD PUSH2 0xD7F JUMP JUMPDEST PUSH1 0x1F ADD PUSH1 0x1F NOT AND SWAP2 SWAP1 SWAP2 ADD PUSH1 0x40 ADD SWAP3 SWAP2 POP POP JUMP JUMPDEST DUP1 CALLDATALOAD PUSH1 0x1 PUSH1 0x1 PUSH1 0xA0 SHL SUB DUP2 AND DUP2 EQ PUSH2 0xDE9 JUMPI PUSH0 DUP1 REVERT JUMPDEST SWAP2 SWAP1 POP JUMP JUMPDEST PUSH0 DUP1 PUSH1 0x40 DUP4 DUP6 SUB SLT ISZERO PUSH2 0xDFF JUMPI PUSH0 DUP1 REVERT JUMPDEST PUSH2 0xE08 DUP4 PUSH2 0xDD3 JUMP JUMPDEST SWAP5 PUSH1 0x20 SWAP4 SWAP1 SWAP4 ADD CALLDATALOAD SWAP4 POP POP POP JUMP JUMPDEST PUSH0 DUP1 PUSH0 PUSH1 0x60 DUP5 DUP7 SUB SLT ISZERO PUSH2 0xE28 JUMPI PUSH0 DUP1 REVERT JUMPDEST PUSH2 0xE31 DUP5 PUSH2 0xDD3 JUMP JUMPDEST SWAP3 POP PUSH2 0xE3F PUSH1 0x20 DUP6 ADD PUSH2 0xDD3 JUMP JUMPDEST SWAP2 POP PUSH1 0x40 DUP5 ADD CALLDATALOAD SWAP1 POP SWAP3 POP SWAP3 POP SWAP3 JUMP JUMPDEST PUSH0 PUSH1 0x20 DUP3 DUP5 SUB SLT ISZERO PUSH2 0xE5F JUMPI PUSH0 DUP1 REVERT JUMPDEST POP CALLDATALOAD SWAP2 SWAP1 POP JUMP JUMPDEST PUSH0 DUP1 PUSH1 0x40 DUP4 DUP6 SUB SLT ISZERO PUSH2 0xE77 JUMPI PUSH0 DUP1 REVERT JUMPDEST DUP3 CALLDATALOAD SWAP2 POP PUSH2 0xE87 PUSH1 0x20 DUP5 ADD PUSH2 0xDD3 JUMP JUMPDEST SWAP1 POP SWAP3 POP SWAP3 SWAP1 POP JUMP JUMPDEST PUSH0 PUSH1 0x20 DUP3 DUP5 SUB SLT ISZERO PUSH2 0xEA0 JUMPI PUSH0 DUP1 REVERT JUMPDEST PUSH2 0xD51 DUP3 PUSH2 0xDD3 JUMP JUMPDEST PUSH0 DUP1 PUSH1 0x40 DUP4 DUP6 SUB SLT ISZERO PUSH2 0xEBA JUMPI PUSH0 DUP1 REVERT JUMPDEST PUSH2 0xEC3 DUP4 PUSH2 0xDD3 JUMP JUMPDEST SWAP2 POP PUSH2 0xE87 PUSH1 0x20 DUP5 ADD PUSH2 0xDD3 JUMP JUMPDEST PUSH1 0x1 DUP2 DUP2 SHR SWAP1 DUP3 AND DUP1 PUSH2 0xEE5 JUMPI PUSH1 0x7F DUP3 AND SWAP2 POP JUMPDEST PUSH1 0x20 DUP3 LT DUP2 SUB PUSH2 0xF03 JUMPI PUSH4 0x4E487B71 PUSH1 0xE0 SHL PUSH0 MSTORE PUSH1 0x22 PUSH1 0x4 MSTORE PUSH1 0x24 PUSH0 REVERT JUMPDEST POP SWAP2 SWAP1 POP JUMP JUMPDEST PUSH4 0x4E487B71 PUSH1 0xE0 SHL PUSH0 MSTORE PUSH1 0x11 PUSH1 0x4 MSTORE PUSH1 0x24 PUSH0 REVERT JUMPDEST DUP1 DUP3 ADD DUP1 DUP3 GT ISZERO PUSH2 0x30C JUMPI PUSH2 0x30C PUSH2 0xF09 JUMP JUMPDEST PUSH32 0x416363657373436F6E74726F6C3A206163636F756E7420000000000000000000 DUP2 MSTORE PUSH0 DUP4 MLOAD PUSH2 0xF67 DUP2 PUSH1 0x17 DUP6 ADD PUSH1 0x20 DUP9 ADD PUSH2 0xD7F JUMP JUMPDEST PUSH17 0x1034B99036B4B9B9B4B733903937B6329 PUSH1 0x7D SHL PUSH1 0x17 SWAP2 DUP5 ADD SWAP2 DUP3 ADD MSTORE DUP4 MLOAD PUSH2 0xF98 DUP2 PUSH1 0x28 DUP5 ADD PUSH1 0x20 DUP9 ADD PUSH2 0xD7F JUMP JUMPDEST ADD PUSH1 0x28 ADD SWAP5 SWAP4 POP POP POP POP JUMP JUMPDEST DUP1 DUP3 MUL DUP2 ISZERO DUP3 DUP3 DIV DUP5 EQ OR PUSH2 0x30C JUMPI PUSH2 0x30C PUSH2 0xF09 JUMP JUMPDEST PUSH4 0x4E487B71 PUSH1 0xE0 SHL PUSH0 MSTORE PUSH1 0x41 PUSH1 0x4 MSTORE PUSH1 0x24 PUSH0 REVERT JUMPDEST PUSH4 0x4E487B71 PUSH1 0xE0 SHL PUSH0 MSTORE PUSH1 0x32 PUSH1 0x4 MSTORE PUSH1 0x24 PUSH0 REVERT JUMPDEST PUSH0 DUP2 PUSH2 0xFF1 JUMPI PUSH2 0xFF1 PUSH2 0xF09 JUMP JUMPDEST POP PUSH0 NOT ADD SWAP1 JUMP INVALID LOG2 PUSH5 0x6970667358 0x22 SLT KECCAK256 0x2B PUSH29 0x5F183362E6ABFE0A2896EF6358BC8A228BBA9B74843A4F4EF1F33C849F 0xE9 PUSH5 0x736F6C6343 STOP ADDMOD XOR STOP CALLER "
				},
				"gasEstimates": {
					"creation": {
						"codeDepositCost": "828400",
						"executionCost": "infinite",
						"totalCost": "infinite"
					},
					"external": {
						"DEFAULT_ADMIN_ROLE()": "304",
						"MULTISIG_ROLE()": "304",
						"allowance(address,address)": "infinite",
						"approve(address,uint256)": "24654",
						"balanceOf(address)": "2560",
						"burn(address,uint256)": "infinite",
						"decimals()": "243",
						"decreaseAllowance(address,uint256)": "26956",
						"getRoleAdmin(bytes32)": "2464",
						"grantRole(bytes32,address)": "infinite",
						"hasRole(bytes32,address)": "2696",
						"increaseAllowance(address,uint256)": "27078",
						"name()": "infinite",
						"renounceRole(bytes32,address)": "29086",
						"revokeRole(bytes32,address)": "infinite",
						"supportsInterface(bytes4)": "447",
						"symbol()": "infinite",
						"totalSupply()": "2370",
						"transfer(address,uint256)": "51074",
						"transferFrom(address,address,uint256)": "infinite"
					},
					"internal": {
						"_mint(address,uint256)": "infinite"
					}
				},
				"methodIdentifiers": {
					"DEFAULT_ADMIN_ROLE()": "a217fddf",
					"MULTISIG_ROLE()": "e328400c",
					"allowance(address,address)": "dd62ed3e",
					"approve(address,uint256)": "095ea7b3",
					"balanceOf(address)": "70a08231",
					"burn(address,uint256)": "9dc29fac",
					"decimals()": "313ce567",
					"decreaseAllowance(address,uint256)": "a457c2d7",
					"getRoleAdmin(bytes32)": "248a9ca3",
					"grantRole(bytes32,address)": "2f2ff15d",
					"hasRole(bytes32,address)": "91d14854",
					"increaseAllowance(address,uint256)": "39509351",
					"name()": "06fdde03",
					"renounceRole(bytes32,address)": "36568abe",
					"revokeRole(bytes32,address)": "d547741f",
					"supportsInterface(bytes4)": "01ffc9a7",
					"symbol()": "95d89b41",
					"totalSupply()": "18160ddd",
					"transfer(address,uint256)": "a9059cbb",
					"transferFrom(address,address,uint256)": "23b872dd"
				}
			},
			"storageLayout": {
				"storage": [
					{
						"astId": 404,
						"contract": "contracts/FlameBorn Token.sol:FlamebornToken",
						"label": "_balances",
						"offset": 0,
						"slot": "0",
						"type": "t_mapping(t_address,t_uint256)"
					},
					{
						"astId": 410,
						"contract": "contracts/FlameBorn Token.sol:FlamebornToken",
						"label": "_allowances",
						"offset": 0,
						"slot": "1",
						"type": "t_mapping(t_address,t_mapping(t_address,t_uint256))"
					},
					{
						"astId": 412,
						"contract": "contracts/FlameBorn Token.sol:FlamebornToken",
						"label": "_totalSupply",
						"offset": 0,
						"slot": "2",
						"type": "t_uint256"
					},
					{
						"astId": 414,
						"contract": "contracts/FlameBorn Token.sol:FlamebornToken",
						"label": "_name",
						"offset": 0,
						"slot": "3",
						"type": "t_string_storage"
					},
					{
						"astId": 416,
						"contract": "contracts/FlameBorn Token.sol:FlamebornToken",
						"label": "_symbol",
						"offset": 0,
						"slot": "4",
						"type": "t_string_storage"
					},
					{
						"astId": 24,
						"contract": "contracts/FlameBorn Token.sol:FlamebornToken",
						"label": "_roles",
						"offset": 0,
						"slot": "5",
						"type": "t_mapping(t_bytes32,t_struct(RoleData)19_storage)"
					},
					{
						"astId": 2351,
						"contract": "contracts/FlameBorn Token.sol:FlamebornToken",
						"label": "_initialMintComplete",
						"offset": 0,
						"slot": "6",
						"type": "t_bool"
					}
				],
				"types": {
					"t_address": {
						"encoding": "inplace",
						"label": "address",
						"numberOfBytes": "20"
					},
					"t_bool": {
						"encoding": "inplace",
						"label": "bool",
						"numberOfBytes": "1"
					},
					"t_bytes32": {
						"encoding": "inplace",
						"label": "bytes32",
						"numberOfBytes": "32"
					},
					"t_mapping(t_address,t_bool)": {
						"encoding": "mapping",
						"key": "t_address",
						"label": "mapping(address => bool)",
						"numberOfBytes": "32",
						"value": "t_bool"
					},
					"t_mapping(t_address,t_mapping(t_address,t_uint256))": {
						"encoding": "mapping",
						"key": "t_address",
						"label": "mapping(address => mapping(address => uint256))",
						"numberOfBytes": "32",
						"value": "t_mapping(t_address,t_uint256)"
					},
					"t_mapping(t_address,t_uint256)": {
						"encoding": "mapping",
						"key": "t_address",
						"label": "mapping(address => uint256)",
						"numberOfBytes": "32",
						"value": "t_uint256"
					},
					"t_mapping(t_bytes32,t_struct(RoleData)19_storage)": {
						"encoding": "mapping",
						"key": "t_bytes32",
						"label": "mapping(bytes32 => struct AccessControl.RoleData)",
						"numberOfBytes": "32",
						"value": "t_struct(RoleData)19_storage"
					},
					"t_string_storage": {
						"encoding": "bytes",
						"label": "string",
						"numberOfBytes": "32"
					},
					"t_struct(RoleData)19_storage": {
						"encoding": "inplace",
						"label": "struct AccessControl.RoleData",
						"members": [
							{
								"astId": 16,
								"contract": "contracts/FlameBorn Token.sol:FlamebornToken",
								"label": "members",
								"offset": 0,
								"slot": "0",
								"type": "t_mapping(t_address,t_bool)"
							},
							{
								"astId": 18,
								"contract": "contracts/FlameBorn Token.sol:FlamebornToken",
								"label": "adminRole",
								"offset": 0,
								"slot": "1",
								"type": "t_bytes32"
							}
						],
						"numberOfBytes": "64"
					},
					"t_uint256": {
						"encoding": "inplace",
						"label": "uint256",
						"numberOfBytes": "32"
					}
				}
			},
			"userdoc": {
				"kind": "user",
				"methods": {},
				"version": 1
			}
		}
	}
}